{
  "_format": "hh-sol-artifact-1",
  "contractName": "Election",
  "sourceName": "contracts/Election.sol",
  "abi": [
    {
      "inputs": [
        {
          "internalType": "uint256",
          "name": "_electionId",
          "type": "uint256"
        },
        {
          "internalType": "string",
          "name": "_name",
          "type": "string"
        },
        {
          "internalType": "string",
          "name": "_description",
          "type": "string"
        },
        {
          "internalType": "string[]",
          "name": "_candidateNames",
          "type": "string[]"
        },
        {
          "internalType": "string[]",
          "name": "_candidateParties",
          "type": "string[]"
        },
        {
          "internalType": "string[]",
          "name": "_candidateSymbols",
          "type": "string[]"
        },
        {
          "internalType": "uint256",
          "name": "_startTime",
          "type": "uint256"
        },
        {
          "internalType": "uint256",
          "name": "_endTime",
          "type": "uint256"
        },
        {
          "internalType": "address",
          "name": "_voterRegistry",
          "type": "address"
        },
        {
          "internalType": "address",
          "name": "_commission",
          "type": "address"
        }
      ],
      "stateMutability": "nonpayable",
      "type": "constructor"
    },
    {
      "inputs": [],
      "name": "InvalidKMSSignatures",
      "type": "error"
    },
    {
      "inputs": [
        {
          "internalType": "bytes32",
          "name": "handle",
          "type": "bytes32"
        },
        {
          "internalType": "address",
          "name": "sender",
          "type": "address"
        }
      ],
      "name": "SenderNotAllowedToUseHandle",
      "type": "error"
    },
    {
      "inputs": [],
      "name": "ZamaProtocolUnsupported",
      "type": "error"
    },
    {
      "anonymous": false,
      "inputs": [
        {
          "indexed": true,
          "internalType": "uint256",
          "name": "electionId",
          "type": "uint256"
        },
        {
          "indexed": false,
          "internalType": "string",
          "name": "name",
          "type": "string"
        },
        {
          "indexed": false,
          "internalType": "uint256",
          "name": "startTime",
          "type": "uint256"
        },
        {
          "indexed": false,
          "internalType": "uint256",
          "name": "endTime",
          "type": "uint256"
        },
        {
          "indexed": false,
          "internalType": "uint8",
          "name": "candidateCount",
          "type": "uint8"
        }
      ],
      "name": "ElectionCreated",
      "type": "event"
    },
    {
      "anonymous": false,
      "inputs": [
        {
          "indexed": false,
          "internalType": "bytes32[]",
          "name": "handlesList",
          "type": "bytes32[]"
        },
        {
          "indexed": false,
          "internalType": "bytes",
          "name": "abiEncodedCleartexts",
          "type": "bytes"
        }
      ],
      "name": "PublicDecryptionVerified",
      "type": "event"
    },
    {
      "anonymous": false,
      "inputs": [
        {
          "indexed": true,
          "internalType": "uint256",
          "name": "electionId",
          "type": "uint256"
        },
        {
          "indexed": false,
          "internalType": "uint256",
          "name": "timestamp",
          "type": "uint256"
        }
      ],
      "name": "ResultsRevealRequested",
      "type": "event"
    },
    {
      "anonymous": false,
      "inputs": [
        {
          "indexed": true,
          "internalType": "uint256",
          "name": "electionId",
          "type": "uint256"
        },
        {
          "indexed": false,
          "internalType": "uint32[]",
          "name": "results",
          "type": "uint32[]"
        },
        {
          "indexed": false,
          "internalType": "uint256",
          "name": "timestamp",
          "type": "uint256"
        }
      ],
      "name": "ResultsRevealed",
      "type": "event"
    },
    {
      "anonymous": false,
      "inputs": [
        {
          "indexed": true,
          "internalType": "address",
          "name": "voter",
          "type": "address"
        },
        {
          "indexed": true,
          "internalType": "uint256",
          "name": "electionId",
          "type": "uint256"
        },
        {
          "indexed": false,
          "internalType": "uint256",
          "name": "timestamp",
          "type": "uint256"
        }
      ],
      "name": "VoteCast",
      "type": "event"
    },
    {
      "inputs": [],
      "name": "candidateCount",
      "outputs": [
        {
          "internalType": "uint8",
          "name": "",
          "type": "uint8"
        }
      ],
      "stateMutability": "view",
      "type": "function"
    },
    {
      "inputs": [
        {
          "internalType": "uint256",
          "name": "",
          "type": "uint256"
        }
      ],
      "name": "candidates",
      "outputs": [
        {
          "internalType": "string",
          "name": "name",
          "type": "string"
        },
        {
          "internalType": "string",
          "name": "party",
          "type": "string"
        },
        {
          "internalType": "string",
          "name": "symbol",
          "type": "string"
        }
      ],
      "stateMutability": "view",
      "type": "function"
    },
    {
      "inputs": [
        {
          "internalType": "externalEuint8",
          "name": "encryptedChoice",
          "type": "bytes32"
        },
        {
          "internalType": "bytes",
          "name": "inputProof",
          "type": "bytes"
        }
      ],
      "name": "castVote",
      "outputs": [],
      "stateMutability": "nonpayable",
      "type": "function"
    },
    {
      "inputs": [],
      "name": "commission",
      "outputs": [
        {
          "internalType": "address",
          "name": "",
          "type": "address"
        }
      ],
      "stateMutability": "view",
      "type": "function"
    },
    {
      "inputs": [],
      "name": "confidentialProtocolId",
      "outputs": [
        {
          "internalType": "uint256",
          "name": "",
          "type": "uint256"
        }
      ],
      "stateMutability": "view",
      "type": "function"
    },
    {
      "inputs": [],
      "name": "electionDescription",
      "outputs": [
        {
          "internalType": "string",
          "name": "",
          "type": "string"
        }
      ],
      "stateMutability": "view",
      "type": "function"
    },
    {
      "inputs": [],
      "name": "electionId",
      "outputs": [
        {
          "internalType": "uint256",
          "name": "",
          "type": "uint256"
        }
      ],
      "stateMutability": "view",
      "type": "function"
    },
    {
      "inputs": [],
      "name": "electionName",
      "outputs": [
        {
          "internalType": "string",
          "name": "",
          "type": "string"
        }
      ],
      "stateMutability": "view",
      "type": "function"
    },
    {
      "inputs": [],
      "name": "endTime",
      "outputs": [
        {
          "internalType": "uint256",
          "name": "",
          "type": "uint256"
        }
      ],
      "stateMutability": "view",
      "type": "function"
    },
    {
      "inputs": [
        {
          "internalType": "uint32[]",
          "name": "decryptedTallies",
          "type": "uint32[]"
        },
        {
          "internalType": "bytes",
          "name": "publicDecryptionProof",
          "type": "bytes"
        }
      ],
      "name": "finalizeRevealResults",
      "outputs": [],
      "stateMutability": "nonpayable",
      "type": "function"
    },
    {
      "inputs": [],
      "name": "getAllCandidates",
      "outputs": [
        {
          "components": [
            {
              "internalType": "string",
              "name": "name",
              "type": "string"
            },
            {
              "internalType": "string",
              "name": "party",
              "type": "string"
            },
            {
              "internalType": "string",
              "name": "symbol",
              "type": "string"
            }
          ],
          "internalType": "struct Election.Candidate[]",
          "name": "",
          "type": "tuple[]"
        }
      ],
      "stateMutability": "view",
      "type": "function"
    },
    {
      "inputs": [
        {
          "internalType": "uint8",
          "name": "index",
          "type": "uint8"
        }
      ],
      "name": "getCandidate",
      "outputs": [
        {
          "internalType": "string",
          "name": "name",
          "type": "string"
        },
        {
          "internalType": "string",
          "name": "party",
          "type": "string"
        },
        {
          "internalType": "string",
          "name": "symbol",
          "type": "string"
        }
      ],
      "stateMutability": "view",
      "type": "function"
    },
    {
      "inputs": [],
      "name": "getElectionInfo",
      "outputs": [
        {
          "components": [
            {
              "internalType": "uint256",
              "name": "electionId",
              "type": "uint256"
            },
            {
              "internalType": "string",
              "name": "name",
              "type": "string"
            },
            {
              "internalType": "string",
              "name": "description",
              "type": "string"
            },
            {
              "internalType": "uint256",
              "name": "startTime",
              "type": "uint256"
            },
            {
              "internalType": "uint256",
              "name": "endTime",
              "type": "uint256"
            },
            {
              "internalType": "uint256",
              "name": "totalVotesCast",
              "type": "uint256"
            },
            {
              "internalType": "uint8",
              "name": "candidateCount",
              "type": "uint8"
            },
            {
              "internalType": "bool",
              "name": "resultsRevealed",
              "type": "bool"
            },
            {
              "internalType": "address",
              "name": "commissionAddress",
              "type": "address"
            }
          ],
          "internalType": "struct Election.ElectionInfo",
          "name": "",
          "type": "tuple"
        }
      ],
      "stateMutability": "view",
      "type": "function"
    },
    {
      "inputs": [],
      "name": "getElectionStatus",
      "outputs": [
        {
          "internalType": "string",
          "name": "status",
          "type": "string"
        }
      ],
      "stateMutability": "view",
      "type": "function"
    },
    {
      "inputs": [],
      "name": "getEncryptedTallyHandles",
      "outputs": [
        {
          "internalType": "bytes32[]",
          "name": "",
          "type": "bytes32[]"
        }
      ],
      "stateMutability": "view",
      "type": "function"
    },
    {
      "inputs": [],
      "name": "getResults",
      "outputs": [
        {
          "internalType": "uint32[]",
          "name": "",
          "type": "uint32[]"
        }
      ],
      "stateMutability": "view",
      "type": "function"
    },
    {
      "inputs": [],
      "name": "getTotalVotesCast",
      "outputs": [
        {
          "internalType": "uint256",
          "name": "",
          "type": "uint256"
        }
      ],
      "stateMutability": "view",
      "type": "function"
    },
    {
      "inputs": [],
      "name": "getWinner",
      "outputs": [
        {
          "internalType": "uint8",
          "name": "winnerIndex",
          "type": "uint8"
        },
        {
          "internalType": "string",
          "name": "winnerName",
          "type": "string"
        },
        {
          "internalType": "string",
          "name": "winnerParty",
          "type": "string"
        },
        {
          "internalType": "uint32",
          "name": "winnerVotes",
          "type": "uint32"
        }
      ],
      "stateMutability": "view",
      "type": "function"
    },
    {
      "inputs": [
        {
          "internalType": "address",
          "name": "",
          "type": "address"
        }
      ],
      "name": "hasVoted",
      "outputs": [
        {
          "internalType": "bool",
          "name": "",
          "type": "bool"
        }
      ],
      "stateMutability": "view",
      "type": "function"
    },
    {
      "inputs": [],
      "name": "requestRevealResults",
      "outputs": [],
      "stateMutability": "nonpayable",
      "type": "function"
    },
    {
      "inputs": [
        {
          "internalType": "uint256",
          "name": "",
          "type": "uint256"
        }
      ],
      "name": "results",
      "outputs": [
        {
          "internalType": "uint32",
          "name": "",
          "type": "uint32"
        }
      ],
      "stateMutability": "view",
      "type": "function"
    },
    {
      "inputs": [],
      "name": "resultsRevealed",
      "outputs": [
        {
          "internalType": "bool",
          "name": "",
          "type": "bool"
        }
      ],
      "stateMutability": "view",
      "type": "function"
    },
    {
      "inputs": [],
      "name": "startTime",
      "outputs": [
        {
          "internalType": "uint256",
          "name": "",
          "type": "uint256"
        }
      ],
      "stateMutability": "view",
      "type": "function"
    },
    {
      "inputs": [],
      "name": "totalVotesCast",
      "outputs": [
        {
          "internalType": "uint256",
          "name": "",
          "type": "uint256"
        }
      ],
      "stateMutability": "view",
      "type": "function"
    },
    {
      "inputs": [],
      "name": "voterRegistry",
      "outputs": [
        {
          "internalType": "contract VoterRegistry",
          "name": "",
          "type": "address"
        }
      ],
      "stateMutability": "view",
      "type": "function"
    }
  ],
  "bytecode": "0x60e080604052346105d7576139d9803803809161001c8285610d29565b83398101610140828203126105d757815160208301519091906001600160401b0381116105d7578161004f918501610d4c565b60408401519092906001600160401b0381116105d75782610071918601610d4c565b60608501519091906001600160401b0381116105d75783610093918701610da1565b60808601519091906001600160401b0381116105d757846100b5918801610da1565b60a087015190946001600160401b0382116105d7576100d5918801610da1565b9260c08701519060e0880151976100fc6101206100f56101008401610e29565b9201610e29565b91610105610ed2565b5046600103610c2257610116610ed2565b5060405161012381610d0e565b73ca2e8f1f656cd25c01f05d0b243ab1ecd4a8ffb6815273d82385dada1ae3e969447f20a3164f6213100e7560208201527377627828a55156b04ac0dc0eb30467f1a552bb0360408201525b80515f5160206139b95f395f51905f5280546001600160a01b03199081166001600160a01b039384161790915560208301515f5160206139995f395f51905f52805483169184169190911790556040909201517f9e7b61f58c47dc699ac88507c4f5bb9f121c03808c5676a8078fe583e4649702805490931691161790558551600211610bea57600a865111610bb1578551885103610b6c5789841015610b3257428a1115610afa5760c085905288516001600160401b0381116105a8575f54600181811c91168015610af0575b60208210146106a757601f8111610a8e575b50806020601f8211600114610a2b575f91610a20575b508160011b915f199060031b1c1916175f555b8051906001600160401b0382116105a85760015490600182811c92168015610a16575b60208310146106a75781601f8493116109a8575b50602090601f8311600114610942575f92610937575b50508160011b915f199060031b1c1916176001555b826002558860035560018060a01b031660805260a05260ff83511660ff1960055416176005555f5b835160ff8216908110156108775761031a8186610e3d565b516103258289610e3d565b5191875181105f1461084e5761033b9088610e3d565b51915b6040519161034b83610d0e565b82526020820190815260408201928352600454680100000000000000008110156105a85760018101806004558110156105945760045f52915180516003939093027f8a35acfbc15ff81a39ae7d344fd709f28e8600b4aa8c65c6b64bfe7fe36bd19b0192906001600160401b0382116105a857835490600182811c92168015610844575b60208310146106a75781601f8493116107f4575b50602090601f8311600114610791575f92610786575b50508160011b915f199060031b1c19161782555b51805160018301916001600160401b0382116105a8578254600181811c9116801561077c575b60208210146106a757601f8111610737575b50602090601f83116001146106d0576002949392915f91836106c5575b50508160011b915f199060031b1c19161790555b9151805191909201916001600160401b0382116105a857825490600182811c921680156106bb575b60208310146106a75781601f849311610657575b50602090601f83116001146105f4575f926105e9575b50508160011b915f199060031b1c19161790555b6104e4610e51565b908180156105db575b5f5160206139b95f395f51905f52546001600160a01b031690813b156105d7575f91604483926040519485938492635ca4b5b160e11b845260048401523060248401525af180156105cc576105bc575b5060065491680100000000000000008310156105a85760018301806006558310156105945760ff9260065f5260205f2001551660ff811461058057600101610302565b634e487b7160e01b5f52601160045260245ffd5b634e487b7160e01b5f52603260045260245ffd5b634e487b7160e01b5f52604160045260245ffd5b5f6105c691610d29565b5f61053d565b6040513d5f823e3d90fd5b5f80fd5b506105e4610e51565b6104ed565b015190505f806104c8565b5f8581528281209350601f198516905b81811061063f5750908460019594939210610627575b505050811b0190556104dc565b01515f1960f88460031b161c191690555f808061061a565b92936020600181928786015181550195019301610604565b909150835f5260205f20601f840160051c8101916020851061069d575b90601f859493920160051c01905b81811061068f57506104b2565b5f8155849350600101610682565b9091508190610674565b634e487b7160e01b5f52602260045260245ffd5b91607f169161049e565b015190505f80610462565b90601f19831691845f52815f20925f5b81811061071f575091600193918560029897969410610707575b505050811b019055610476565b01515f1960f88460031b161c191690555f80806106fa565b929360206001819287860151815501950193016106e0565b835f5260205f20601f840160051c81019160208510610772575b601f0160051c01905b8181106107675750610445565b5f815560010161075a565b9091508190610751565b90607f1690610433565b015190505f806103f9565b5f8681528281209350601f198516905b8181106107dc57509084600195949392106107c4575b505050811b01825561040d565b01515f1960f88460031b161c191690555f80806107b7565b929360206001819287860151815501950193016107a1565b909150845f5260205f20601f840160051c8101916020851061083a575b90601f859493920160051c01905b81811061082c57506103e3565b5f815584935060010161081f565b9091508190610811565b91607f16916103cf565b50604061085d81519182610d29565b6007815266f09f97b3efb88f60c81b60208201529161033e565b837f985bede010c9de6fdb2c2ffc49c78056548fb7988d7cae281fe614263e9300d38460a08b60208e60ff8c511690604051958694608086528051948591826080890152018787015e5f858501870152602085015260408401526060830152601f01601f19168101030190a2604051612aa89081610ef18239608051818181610236015261183e015260a05181818161014e0152611246015260c05181818161052801528181611189015281816114df01528181611dae01526121e60152f35b015190505f806102c5565b60015f9081528281209350601f198516905b8181106109905750908460019594939210610978575b505050811b016001556102da565b01515f1960f88460031b161c191690555f808061096a565b92936020600181928786015181550195019301610954565b60015f529091507fb10e2d527612073b26eecdfd717e6a320cf44b4afac2b0732d9fcbe2b7fa0cf6601f840160051c81019160208510610a0c575b90601f859493920160051c01905b8181106109fe57506102af565b5f81558493506001016109f1565b90915081906109e3565b91607f169161029b565b90508a01515f610265565b5f8080528181209250601f198416905b8d828210610a765750509083600194939210610a5e575b5050811b015f55610278565b8c01515f1960f88460031b161c191690555f80610a52565b60018495602093958493015181550194019201610a3b565b5f80527f290decd9548b62a8d60345a988386fc84ba6bc95484008f6362f93160ef3e563601f830160051c81019160208410610ae6575b601f0160051c01905b818110610adb575061024f565b5f8155600101610ace565b9091508190610ac5565b90607f169061023d565b60405162461bcd60e51b815260206004820152601060248201526f115b99081d1a5b59481a5b881c185cdd60821b6044820152606490fd5b60405162461bcd60e51b8152602060048201526012602482015271496e76616c69642074696d652072616e676560701b6044820152606490fd5b60405162461bcd60e51b815260206004820152601360248201527f4e616d652f7061727479206d69736d61746368000000000000000000000000006044820152606490fd5b60405162461bcd60e51b81526020600482015260116024820152704d61782031302063616e6469646174657360781b6044820152606490fd5b60405162461bcd60e51b815260206004820152601060248201526f4d696e20322063616e6469646174657360801b6044820152606490fd5b4662aa36a703610c9157610c34610ed2565b50604051610c4181610d0e565b73f0ffdc93b7e186bc2f8cb3daa75d86d1930a433d81527392c920834ec8941d2c77d188936e1f7a6f49c127602082015273be0e383937d564d7ff0bc3b46c51f0bf8d5c311a604082015261016f565b46617a6903610cff57610ca2610ed2565b50604051610caf81610d0e565b7350157cffd6bbfa2dece204a89ec419c23ef5755d815273e3a9105a3a932253a70f126eb1e3b589c643dd24602082015273901f8942346f7ab3a01f6d7613119bca447bb030604082015261016f565b6373cac13b60e01b5f5260045ffd5b606081019081106001600160401b038211176105a857604052565b601f909101601f19168101906001600160401b038211908210176105a857604052565b81601f820112156105d7578051906001600160401b0382116105a85760405192610d80601f8401601f191660200185610d29565b828452602083830101116105d757815f9260208093018386015e8301015290565b9080601f830112156105d7578151916001600160401b0383116105a8578260051b9060405193610dd46020840186610d29565b8452602080850192820101918383116105d75760208201905b838210610dfc57505050505090565b81516001600160401b0381116105d757602091610e1e87848094880101610d4c565b815201910190610ded565b51906001600160a01b03821682036105d757565b80518210156105945760209160051b010190565b5f5160206139995f395f51905f5254604051639cd07acb60e01b81525f600480830182905260248301529091602091839160449183916001600160a01b03165af19081156105cc575f91610ea3575090565b90506020813d602011610eca575b81610ebe60209383610d29565b810103126105d7575190565b3d9150610eb1565b60405190610edf82610d0e565b5f604083828152826020820152015256fe6080806040526004361015610012575f80fd5b5f3560e01c908163051364d4146121d15750806309eef43e14612191578063122902a6146121765780631b0c27da146121385780632e6997fe1461201d5780633197cbb6146120005780633477ee2e14611fa8578063384de42f14611f3d5780633a41069c146117de5780633d792d0e146117bc5780634717f97c1461153a57806349a2b6031461151f57806378e97925146115025780637aab087f146113935780637de418d514610fa457806385e8e7a71461136357806386852dca146111125780638927b030146110f05780638e7ea5b214610fc157806392e2c6d214610fa45780639b5b31011461027a578063a9a981a31461025a578063be60040e14610217578063cde9370f146101765763e14891911461012f575f80fd5b34610172575f3660031901126101725760206040516001600160a01b037f0000000000000000000000000000000000000000000000000000000000000000168152f35b5f80fd5b346101725760203660031901126101725760043560ff81168082036101725760ff6005541611156101d2576101ad6101b39161226d565b50612608565b80516101ce604060208401519301516040519384938461244c565b0390f35b60405162461bcd60e51b815260206004820152600d60248201527f496e76616c696420696e646578000000000000000000000000000000000000006044820152606490fd5b34610172575f3660031901126101725760206040516001600160a01b037f0000000000000000000000000000000000000000000000000000000000000000168152f35b34610172575f36600319011261017257602060ff60055416604051908152f35b346101725760403660031901126101725760043567ffffffffffffffff811161017257366023820112156101725780600401359067ffffffffffffffff82116101725760248101913660248260051b840101116101725760243567ffffffffffffffff8111610172576102f19036906004016124b9565b939091610302600354421015612712565b61031160ff600a54161561275e565b60ff6005541694858203610f5f5761032886612656565b935f5b60ff81168881101561035f578160019161035761034960ff95612688565b90549060031b1c918a6126a0565b52011661032b565b50509194909295606090600281145f1461079d57505090841561078957610385866127aa565b8560011015610789576103d260209261044c9263ffffffff6103aa60445f98016127aa565b81604051931687840152166040820152604081526103c96060826122a6565b955b36916126cc565b6001600160a01b037f9e7b61f58c47dc699ac88507c4f5bb9f121c03808c5676a8078fe583e46497025416906040519485809481936378542ead60e01b83526060600484015261043a610428606485018d612486565b8481036003190160248601528b612209565b83810360031901604485015290612209565b03925af190811561077e575f9161074f575b5015610740577fc6366bab028b8d033cb362cfd1f2f3457ef4e92fc738b6788b90d5a7846367a0916104af6104a192604051938493604085526040850190612486565b908382036020850152612209565b0390a168010000000000000000811161072c5760095481600955808210610679575b508160095f528160031c5f5b81811061060a57506007198316830380610597575b505050600160ff19600a541617600a5560405190806040830160408452526060820192905f905b80821061056f574260208501527f00000000000000000000000000000000000000000000000000000000000000007f7387c0e7ced012227949fb1858ac8d8c570a0b2be9cb81ac07661cc60e28b03885870386a2005b90919384359063ffffffff821680920361017257602081600193829352019501920190610519565b915f925f5b8181106105d1575050507f6e1540171b6c0c960b71a7020d9f60077f6af931a8bbf590da0223dacf75c7af01558280806104f2565b90919360206106006001926105e5886127aa565b908560021b63ffffffff809160031b9316831b921b19161790565b950192910161059c565b5f5f5b6008811061064257507f6e1540171b6c0c960b71a7020d9f60077f6af931a8bbf590da0223dacf75c7af8201556001016104dd565b93906020610670600192610655856127aa565b908860021b63ffffffff809160031b9316831b921b19161790565b9201940161060d565b600780830160031c910160031c7f6e1540171b6c0c960b71a7020d9f60077f6af931a8bbf590da0223dacf75c7af0190601c8360021b16806106f2575b507f6e1540171b6c0c960b71a7020d9f60077f6af931a8bbf590da0223dacf75c7af015b8181106106e757506104d1565b5f81556001016106da565b7f6e1540171b6c0c960b71a7020d9f60077f6af931a8bbf590da0223dacf75c7ae8201908154905f199060200360031b1c169055846106b6565b634e487b7160e01b5f52604160045260245ffd5b63cf6c44e960e01b5f5260045ffd5b610771915060203d602011610777575b61076981836122a6565b8101906126b4565b8561045e565b503d61075f565b6040513d5f823e3d90fd5b634e487b7160e01b5f52603260045260245ffd5b6003810361081f5750508415610789576107b6866127aa565b908560011015610789576107cc604482016127aa565b8660021015610789575f9360209363ffffffff6103d293816107f3606461044c98016127aa565b9181604051951689860152166040840152166060820152606081526108196080826122a6565b956103cb565b600481036108ba57505090841561078957610839866127aa565b9185600110156107895761084f604482016127aa565b90866002101561078957610865606482016127aa565b928760031015610789575f9463ffffffff61044c94816020978161088e60846103d299016127aa565b938160405197168b8801521660408601521660608401521660808201526080815261081960a0826122a6565b60058103610972575050908415610789576108d4866127aa565b908560011015610789576108ea604484016127aa565b91866002101561078957610900606485016127aa565b91876003101561078957610916608486016127aa565b9188600410156107895763ffffffff602095816103d2958161044c988161094060a45f9e016127aa565b958160405199168d8a01521660408801521660608601521660808401521660a082015260a0815261081960c0826122a6565b60068103610a4657505084156107895761098b866127aa565b8560011015610789576109a0604483016127aa565b928660021015610789576109b6606484016127aa565b908760031015610789576109cc608485016127aa565b928860041015610789576109e260a486016127aa565b938960051015610789575f9663ffffffff61044c96818094816103d29981610a0e60c460209f016127aa565b97816040519b168f8c01521660408a01521660608801521660808601521660a08401521660c082015260c0815261081960e0826122a6565b60078103610b4157505090841561078957610a60866127aa565b90856001101561078957610a76604484016127aa565b92866002101561078957610a8c606482016127aa565b91876003101561078957610aa2608483016127aa565b91886004101561078957610ab860a482016127aa565b92896005101561078957610ace60c483016127aa565b958a600610156107895763ffffffff602097816103d297818097968161044c9c5f9f829a90610b0060e48593016127aa565b9a60206040519e8f92169101521660408c01521660608a01521660808801521660a08601521660c08401521660e082015260e08152610819610100826122a6565b60088103610c73575050841561078957610b5a866127aa565b90856001101561078957610b70604482016127aa565b90866002101561078957610b86606482016127aa565b876003101561078957610b9b608483016127aa565b886004101561078957610bb060a484016127aa565b90896005101561078957610bc660c485016127aa565b928a6006101561078957610bdc60e486016127aa565b948b600710156107895761010401610bf3906127aa565b956040519763ffffffff16602089015263ffffffff16604088015263ffffffff16606087015263ffffffff16608086015263ffffffff1660a085015263ffffffff1660c084015263ffffffff1660e083015263ffffffff166101008201526101008152610c62610120826122a6565b9161044c6103d25f936020936103cb565b60098103610db6575050841561078957610c8c866127aa565b90856001101561078957610ca2604482016127aa565b90866002101561078957610cb8606482016127aa565b876003101561078957610ccd608483016127aa565b886004101561078957610ce260a484016127aa565b896005101561078957610cf760c485016127aa565b918a6006101561078957610d0d60e486016127aa565b938b6007101561078957610d2461010487016127aa565b958c600810156107895761012401610d3b906127aa565b966040519863ffffffff1660208a015263ffffffff16604089015263ffffffff16606088015263ffffffff16608087015263ffffffff1660a086015263ffffffff1660c085015263ffffffff1660e084015263ffffffff1661010083015263ffffffff166101208201526101208152610c62610140826122a6565b600a03610f1a57851561078957610dcc876127aa565b91866001101561078957610de2604482016127aa565b91876002101561078957610df8606483016127aa565b90886003101561078957610e0e608484016127aa565b896004101561078957610e2360a485016127aa565b8a6005101561078957610e3860c486016127aa565b918b6006101561078957610e4e60e487016127aa565b938c6007101561078957610e6561010488016127aa565b958d600810156107895787610e7e8f99610124016127aa565b98600910156107895761014401610e94906127aa565b986040519a63ffffffff1660208c015263ffffffff1660408b015263ffffffff169089015263ffffffff16608088015263ffffffff1660a087015263ffffffff1660c086015263ffffffff1660e085015263ffffffff1661010084015263ffffffff1661012083015263ffffffff166101408201526101408152610c62610160826122a6565b60405162461bcd60e51b815260206004820152601760248201527f496e76616c69642063616e64696461746520636f756e740000000000000000006044820152606490fd5b60405162461bcd60e51b815260206004820152601460248201527f54616c6c7920636f756e74206d69736d617463680000000000000000000000006044820152606490fd5b34610172575f366003190112610172576020600854604051908152f35b34610172575f3660031901126101725760ff600a5416156110ab5760ff5f5f5f8360055416905b818582161061105b57505063ffffffff6110506110048461226d565b5061104261102760016110206110198961226d565b5094612396565b9301612396565b91604051978897168752608060208801526080870190612209565b908582036040870152612209565b911660608301520390f35b63ffffffff6110698261222d565b90549060031b1c1663ffffffff841610611088575b6001018416610fe8565b9250905063ffffffff61109a8361222d565b905460039190911b1c16908261107e565b60405162461bcd60e51b815260206004820152601460248201527f526573756c7473206e6f742072657665616c65640000000000000000000000006044820152606490fd5b34610172575f36600319011261017257602061110a612981565b604051908152f35b34610172575f366003190112610172575f61010060405161113281612289565b82815260606020820152606060408201528260608201528260808201528260a08201528260c08201528260e08201520152600254600354906008549060ff6005541660ff600a54166040519161118783612289565b7f00000000000000000000000000000000000000000000000000000000000000008352604051945f965f548060011c90600181168015611359575b60208310811461134557828a5290811561132257506001146112cd575b509160ff916001600160a01b039594936111fd8960409b038a6122a6565b6020860198895261129e61120f6122c8565b8b880190815260608801998a526080880192835260a0880193845260c0880194855260e08801961515875261128b6101008901988a7f0000000000000000000000000000000000000000000000000000000000000000168a526101208e519e8f9e8f9360208552516020850152519201526101408d0190612209565b90518b8203601f190160608d0152612209565b975160808a01525160a08901525160c0880152511660e086015251151561010085015251166101208301520390f35b5f8080529098507f290decd9548b62a8d60345a988386fc84ba6bc95484008f6362f93160ef3e5635b89821061130c57508701602001975060ff6111df565b6001816020925483858d010152019101906112f6565b60ff19166020808b019190915291151560051b8901909101985060ff90506111df565b634e487b7160e01b5f52602260045260245ffd5b91607f16916111c2565b34610172575f366003190112610172576101ce61137f5f612396565b604051918291602083526020830190612209565b34610172575f366003190112610172576113b1600354421015612712565b6113c060ff600a54161561275e565b604060205f5b60ff6005541660ff821610156114b5576113df81612688565b90549060031b1c9081156114a5575b8351916113fb85846122a6565b60018352602083018436823783511561078957526001600160a01b037f9e7b61f58c47dc699ac88507c4f5bb9f121c03808c5676a8078fe583e46497005416803b15610172578451637d6e912360e11b815260206004820152925f91849182908490829061146d906024830190612486565b03925af190811561149b5760ff9260019261148b575b5001166113c6565b5f611495916122a6565b85611483565b84513d5f823e3d90fd5b90506114af612a2d565b906113ee565b82514281527f6c4b065080c036c682c3d1cdb4a3801c7054f1dbb9b153d7bfea992cc3ab50e560207f000000000000000000000000000000000000000000000000000000000000000092a2005b34610172575f366003190112610172576020600254604051908152f35b34610172575f366003190112610172576101ce61137f6122c8565b34610172575f3660031901126101725760ff600a54161561177757604051806020600954918281520190828260095f527f6e1540171b6c0c960b71a7020d9f60077f6af931a8bbf590da0223dacf75c7af925f905b8060078301106116f0576115e89454918181106116d9575b8181106116c0575b8181106116a6575b81811061168c575b818110611672575b818110611658575b81811061163e575b10611630575b5093929303826122a6565b604051918291602083019060208452518091526040830191905f5b818110611611575050500390f35b825163ffffffff16845285945060209384019390920191600101611603565b60e01c8152602001856115dd565b92602060019163ffffffff8560c01c1681520193016115d7565b92602060019163ffffffff8560a01c1681520193016115cf565b92602060019163ffffffff8560801c1681520193016115c7565b92602060019163ffffffff8560601c1681520193016115bf565b92602060019163ffffffff8560401c1681520193016115b7565b92602060019163ffffffff85831c1681520193016115af565b92602060019163ffffffff851681520193016115a7565b916008919350610100600191865463ffffffff8116825263ffffffff8160201c16602083015263ffffffff8160401c16604083015263ffffffff8160601c16606083015263ffffffff8160801c16608083015263ffffffff8160a01c1660a083015263ffffffff8160c01c1660c083015260e01c60e082015201940192018592939161158f565b60405162461bcd60e51b815260206004820152601860248201527f526573756c7473206e6f74207965742072657665616c656400000000000000006044820152606490fd5b34610172575f36600319011261017257602060ff600a54166040519015158152f35b346101725760403660031901126101725760243567ffffffffffffffff81116101725761180f9036906004016124b9565b906002544210611ef857600354421015611eb357604051636d1b67ff60e11b81523360048201526020816024817f00000000000000000000000000000000000000000000000000000000000000006001600160a01b03165afa90811561077e575f91611e94575b5015611e4f57335f52600760205260ff60405f205416611e0a57335f52600760205260405f20600160ff19825416179055600854905f198214611df6576118d09260016118c8930160085536916126cc565b6004356127bb565b6004905f9080159082906002825b60ff6005541660ff821690811015611da6576001600160a01b035f516020612a7c5f395f51905f5254168760405192639cd07acb60e01b84528a840152611d9357816044815f6020948860248401525af190811561077e575f91611d62575b50838187611d52575b15611d3e575b60209060648a5f6001600160a01b035f516020612a7c5f395f51905f525416604051968795869463f77f3f1d60e01b865285015260248401528160448401525af190811561077e575f91611d0d575b505f516020612a7c5f395f51905f5254604051639cd07acb60e01b815260018a820152906001600160a01b031686611cfa57816044815f6020948e60248401525af190811561077e575f91611cc9575b506119f4612a2d565b91818115611c46575b15611c33575b828a6020939415611c1e575b5f6064926001600160a01b035f516020612a7c5f395f51905f525416906040519788968795637702dcff60e01b8752860152602485015260448401525af190811561077e575f91611bed575b50611a6582612688565b90549060031b1c818115611bdd575b15611bc9575b60209060648a5f6001600160a01b035f516020612a7c5f395f51905f525416604051968795869463022f65e760e31b865285015260248401528160448401525af190811561077e575f91611b98575b50611ad382612688565b819291549060031b91821b915f19901b1916179055611af181612688565b90549060031b1c908115611b88575b6001600160a01b037f9e7b61f58c47dc699ac88507c4f5bb9f121c03808c5676a8078fe583e46497005416803b156101725760408051635ca4b5b160e11b8152808b01948552306020860152935f92859290918391859183910103925af190811561077e5760ff92600192611b78575b5001166118de565b5f611b82916122a6565b89611b70565b9050611b92612a2d565b90611b00565b90506020813d8211611bc1575b81611bb2602093836122a6565b81010312610172575188611ac9565b3d9150611ba5565b90506020611bd5612a2d565b919050611a7a565b9050611be7612a2d565b90611a74565b90506020813d8211611c16575b81611c07602093836122a6565b81010312610172575188611a5b565b3d9150611bfa565b606491505f611c2b612a2d565b925050611a0f565b60209150611c3f612a2d565b9150611a03565b5f516020612a7c5f395f51905f5254604051639cd07acb60e01b81525f8d8201529192506001600160a01b0316816044815f6020948160248401525af190811561077e575f91611c98575b50906119fd565b90506020813d8211611cc1575b81611cb2602093836122a6565b8101031261017257518b611c91565b3d9150611ca5565b90506020813d8211611cf2575b81611ce3602093836122a6565b810103126101725751896119eb565b3d9150611cd6565b60218a634e487b7160e01b5f525260245ffd5b90506020813d8211611d36575b81611d27602093836122a6565b8101031261017257518861199b565b3d9150611d1a565b90506020611d4a6129b0565b91905061194c565b9050611d5c6129b0565b90611946565b90506020813d8211611d8b575b81611d7c602093836122a6565b8101031261017257518861193d565b3d9150611d6f565b602189634e487b7160e01b5f525260245ffd5b6040514281527f0000000000000000000000000000000000000000000000000000000000000000907fb4cfecf70861b7b150d8337780d34fb4cbc2114b5fb1fe51a5c5fca1849f727460203392a3005b634e487b7160e01b5f52601160045260245ffd5b60405162461bcd60e51b815260206004820152601e60248201527f416c726561647920766f74656420696e207468697320656c656374696f6e00006044820152606490fd5b60405162461bcd60e51b815260206004820152601660248201527f4e6f742061207265676973746572656420766f746572000000000000000000006044820152606490fd5b611ead915060203d6020116107775761076981836122a6565b83611876565b60405162461bcd60e51b815260206004820152600f60248201527f456c656374696f6e20636c6f73656400000000000000000000000000000000006044820152606490fd5b60405162461bcd60e51b815260206004820152601460248201527f456c656374696f6e206e6f7420737461727465640000000000000000000000006044820152606490fd5b34610172575f3660031901126101725760ff60055416611f5c81612656565b5f5b60ff811683811015611f925781600191611f8a611f7c60ff95612688565b90549060031b1c91866126a0565b520116611f5e565b604051602080825281906101ce90820186612486565b346101725760203660031901126101725760043560045481101561017257611fcf9061226d565b50611fd981612396565b6101ce611ff46002611fed60018601612396565b9401612396565b6040519384938461244c565b34610172575f366003190112610172576020600354604051908152f35b34610172575f36600319011261017257600454612039816125f0565b9061204760405192836122a6565b80825260208201908160045f527f8a35acfbc15ff81a39ae7d344fd709f28e8600b4aa8c65c6b64bfe7fe36bd19b5f915b83831061211a57848660405191829160208301906020845251809152604083019060408160051b85010192915f905b8282106120b657505050500390f35b9193600191939550602061210a8192603f198a820301865288519060406120f96120e98451606085526060850190612209565b8685015184820388860152612209565b920151906040818403910152612209565b96019201920185949391926120a7565b6003602060019261212a85612608565b815201920192019190612078565b34610172576020366003190112610172576004356009548110156101725763ffffffff61216660209261222d565b90549060031b1c16604051908152f35b34610172575f366003190112610172576101ce61137f6124e7565b34610172576020366003190112610172576004356001600160a01b038116809103610172575f526007602052602060ff60405f2054166040519015158152f35b34610172575f366003190112610172576020907f00000000000000000000000000000000000000000000000000000000000000008152f35b805180835260209291819084018484015e5f828201840152601f01601f1916010190565b906009548210156107895760095f52600382901c7f6e1540171b6c0c960b71a7020d9f60077f6af931a8bbf590da0223dacf75c7af019160021b601c1690565b6004548110156107895760045f52600360205f20910201905f90565b610120810190811067ffffffffffffffff82111761072c57604052565b90601f8019910116810190811067ffffffffffffffff82111761072c57604052565b604051905f6001548060011c916001821691821561238c575b60208410831461134557838652859290811561236d575060011461230e575b61230c925003836122a6565b565b5060015f90815290917fb10e2d527612073b26eecdfd717e6a320cf44b4afac2b0732d9fcbe2b7fa0cf65b81831061235157505090602061230c92820101612300565b6020919350806001915483858901015201910190918492612339565b6020925061230c94915060ff191682840152151560051b820101612300565b92607f16926122e1565b90604051915f8154908160011c9260018316928315612442575b60208510841461134557848752869390811561242057506001146123dc575b5061230c925003836122a6565b90505f9291925260205f20905f915b81831061240457505090602061230c928201015f6123cf565b60209193508060019154838589010152019101909184926123eb565b90506020925061230c94915060ff191682840152151560051b8201015f6123cf565b93607f16936123b0565b91612475906124676124839593606086526060860190612209565b908482036020860152612209565b916040818403910152612209565b90565b90602080835192838152019201905f5b8181106124a35750505090565b8251845260209384019390920191600101612496565b9181601f840112156101725782359167ffffffffffffffff8311610172576020838186019501011161017257565b60025442106125b557600354421061257a5760ff600a54161561253f576040516125126040826122a6565b600981527f636f6d706c657465640000000000000000000000000000000000000000000000602082015290565b60405161254d6040826122a6565b600881527f636f756e74696e67000000000000000000000000000000000000000000000000602082015290565b6040516125886040826122a6565b600681527f6163746976650000000000000000000000000000000000000000000000000000602082015290565b6040516125c36040826122a6565b600881527f7570636f6d696e67000000000000000000000000000000000000000000000000602082015290565b67ffffffffffffffff811161072c5760051b60200190565b906040516060810181811067ffffffffffffffff82111761072c5760405260406126516002839561263881612396565b855261264660018201612396565b602086015201612396565b910152565b90612660826125f0565b61266d60405191826122a6565b828152809261267e601f19916125f0565b0190602036910137565b6006548110156107895760065f5260205f2001905f90565b80518210156107895760209160051b010190565b90816020910312610172575180151581036101725790565b92919267ffffffffffffffff821161072c57604051916126f6601f8201601f1916602001846122a6565b829481845281830111610172578281602093845f960137010152565b1561271957565b60405162461bcd60e51b815260206004820152601360248201527f456c656374696f6e207374696c6c206f70656e000000000000000000000000006044820152606490fd5b1561276557565b60405162461bcd60e51b815260206004820152601060248201527f416c72656164792072657665616c6564000000000000000000000000000000006044820152606490fd5b3563ffffffff811681036101725790565b8151909190156128d357602090612815926001600160a01b035f516020612a7c5f395f51905f525416905f60405180968195829463045fc19560e11b84526004840152336024840152608060448401526084830190612209565b6002606483015203925af190811561077e575f916128a1575b506001600160a01b037f9e7b61f58c47dc699ac88507c4f5bb9f121c03808c5676a8078fe583e46497005416803b1561017257604051630f8e573b60e21b815260048101839052336024820152905f908290604490829084905af1801561077e57612897575090565b5f612483916122a6565b90506020813d6020116128cb575b816128bc602093836122a6565b8101031261017257515f61282e565b3d91506128af565b508015612978577f9e7b61f58c47dc699ac88507c4f5bb9f121c03808c5676a8078fe583e4649700546040516382027b6d60e01b81526004810183905233602482015290602090829060449082906001600160a01b03165afa90811561077e575f91612959575b50156129435790565b630276b5d960e01b5f526004523360245260445ffd5b612972915060203d6020116107775761076981836122a6565b5f61293a565b506124836129b0565b4660010361298e57600190565b4662aa36a70361299e5761271190565b617a6946146129ab575f90565b5f1990565b5f516020612a7c5f395f51905f5254604051639cd07acb60e01b81525f6004820152906001600160a01b0316816044815f602094600260248401525af190811561077e575f916129fe575090565b90506020813d602011612a25575b81612a19602093836122a6565b81010312610172575190565b3d9150612a0c565b5f516020612a7c5f395f51905f5254604051639cd07acb60e01b81525f6004820152906001600160a01b0316816044815f602094600460248401525af190811561077e575f916129fe57509056fe9e7b61f58c47dc699ac88507c4f5bb9f121c03808c5676a8078fe583e4649701a164736f6c634300081b000a9e7b61f58c47dc699ac88507c4f5bb9f121c03808c5676a8078fe583e46497019e7b61f58c47dc699ac88507c4f5bb9f121c03808c5676a8078fe583e4649700",
  "linkReferences": {},
  "deployedLinkReferences": {}
}