{
  "_format": "hh-sol-artifact-1",
  "contractName": "ElectionFactory",
  "sourceName": "contracts/ElectionFactory.sol",
  "abi": [
    {
      "inputs": [
        {
          "internalType": "address",
          "name": "_voterRegistry",
          "type": "address"
        },
        {
          "internalType": "address",
          "name": "_voterPassContract",
          "type": "address"
        }
      ],
      "stateMutability": "nonpayable",
      "type": "constructor"
    },
    {
      "inputs": [
        {
          "internalType": "address",
          "name": "owner",
          "type": "address"
        }
      ],
      "name": "OwnableInvalidOwner",
      "type": "error"
    },
    {
      "inputs": [
        {
          "internalType": "address",
          "name": "account",
          "type": "address"
        }
      ],
      "name": "OwnableUnauthorizedAccount",
      "type": "error"
    },
    {
      "anonymous": false,
      "inputs": [
        {
          "indexed": true,
          "internalType": "uint256",
          "name": "electionId",
          "type": "uint256"
        },
        {
          "indexed": true,
          "internalType": "address",
          "name": "electionAddress",
          "type": "address"
        },
        {
          "indexed": false,
          "internalType": "string",
          "name": "name",
          "type": "string"
        },
        {
          "indexed": false,
          "internalType": "uint256",
          "name": "startTime",
          "type": "uint256"
        },
        {
          "indexed": false,
          "internalType": "uint256",
          "name": "endTime",
          "type": "uint256"
        }
      ],
      "name": "ElectionDeployed",
      "type": "event"
    },
    {
      "anonymous": false,
      "inputs": [
        {
          "indexed": true,
          "internalType": "address",
          "name": "previousOwner",
          "type": "address"
        },
        {
          "indexed": true,
          "internalType": "address",
          "name": "newOwner",
          "type": "address"
        }
      ],
      "name": "OwnershipTransferred",
      "type": "event"
    },
    {
      "inputs": [
        {
          "internalType": "string",
          "name": "name",
          "type": "string"
        },
        {
          "internalType": "string",
          "name": "description",
          "type": "string"
        },
        {
          "internalType": "string[]",
          "name": "candidateNames",
          "type": "string[]"
        },
        {
          "internalType": "string[]",
          "name": "candidateParties",
          "type": "string[]"
        },
        {
          "internalType": "string[]",
          "name": "candidateSymbols",
          "type": "string[]"
        },
        {
          "internalType": "uint256",
          "name": "startTime",
          "type": "uint256"
        },
        {
          "internalType": "uint256",
          "name": "endTime",
          "type": "uint256"
        }
      ],
      "name": "createElection",
      "outputs": [
        {
          "internalType": "address",
          "name": "",
          "type": "address"
        }
      ],
      "stateMutability": "nonpayable",
      "type": "function"
    },
    {
      "inputs": [],
      "name": "electionCount",
      "outputs": [
        {
          "internalType": "uint256",
          "name": "",
          "type": "uint256"
        }
      ],
      "stateMutability": "view",
      "type": "function"
    },
    {
      "inputs": [
        {
          "internalType": "uint256",
          "name": "",
          "type": "uint256"
        }
      ],
      "name": "elections",
      "outputs": [
        {
          "internalType": "address",
          "name": "",
          "type": "address"
        }
      ],
      "stateMutability": "view",
      "type": "function"
    },
    {
      "inputs": [],
      "name": "getAllElections",
      "outputs": [
        {
          "internalType": "address[]",
          "name": "",
          "type": "address[]"
        }
      ],
      "stateMutability": "view",
      "type": "function"
    },
    {
      "inputs": [
        {
          "internalType": "uint256",
          "name": "index",
          "type": "uint256"
        }
      ],
      "name": "getElection",
      "outputs": [
        {
          "internalType": "address",
          "name": "",
          "type": "address"
        }
      ],
      "stateMutability": "view",
      "type": "function"
    },
    {
      "inputs": [],
      "name": "getElectionCount",
      "outputs": [
        {
          "internalType": "uint256",
          "name": "",
          "type": "uint256"
        }
      ],
      "stateMutability": "view",
      "type": "function"
    },
    {
      "inputs": [
        {
          "internalType": "address",
          "name": "",
          "type": "address"
        }
      ],
      "name": "isDeployedElection",
      "outputs": [
        {
          "internalType": "bool",
          "name": "",
          "type": "bool"
        }
      ],
      "stateMutability": "view",
      "type": "function"
    },
    {
      "inputs": [],
      "name": "owner",
      "outputs": [
        {
          "internalType": "address",
          "name": "",
          "type": "address"
        }
      ],
      "stateMutability": "view",
      "type": "function"
    },
    {
      "inputs": [],
      "name": "renounceOwnership",
      "outputs": [],
      "stateMutability": "nonpayable",
      "type": "function"
    },
    {
      "inputs": [
        {
          "internalType": "address",
          "name": "newOwner",
          "type": "address"
        }
      ],
      "name": "transferOwnership",
      "outputs": [],
      "stateMutability": "nonpayable",
      "type": "function"
    },
    {
      "inputs": [],
      "name": "voterPassContract",
      "outputs": [
        {
          "internalType": "address",
          "name": "",
          "type": "address"
        }
      ],
      "stateMutability": "view",
      "type": "function"
    },
    {
      "inputs": [],
      "name": "voterRegistry",
      "outputs": [
        {
          "internalType": "contract VoterRegistry",
          "name": "",
          "type": "address"
        }
      ],
      "stateMutability": "view",
      "type": "function"
    }
  ],
  "bytecode": "0x60c03461018257601f61468338819003918201601f19168301916001600160401b0383118484101761018657808492604094855283398101031261018257610052602061004b8361019a565b920161019a565b90331561016f575f8054336001600160a01b0319821681178355604051939290916001600160a01b0316907f8be0079c531659141344cd1fd0a4f28419497f9722a3daafe3b4186f6b6457e09080a36001600160a01b031690811561013a57506001600160a01b038216156100f55760805260a0526040516144d490816101af823960805181818161031b01526105d9015260a05181818160bf01526103550152f35b60405162461bcd60e51b815260206004820152601560248201527f496e76616c6964207061737320636f6e747261637400000000000000000000006044820152606490fd5b62461bcd60e51b815260206004820152601060248201526f496e76616c696420726567697374727960801b6044820152606490fd5b631e4fbdf760e01b5f525f60045260245ffd5b5f80fd5b634e487b7160e01b5f52604160045260245ffd5b51906001600160a01b03821682036101825756fe6080806040526004361015610012575f80fd5b5f3560e01c908163213785a014610837575080635e6fef0114610806578063715018a6146107a25780637fd5f268146106c55780638da5cb5b146106a0578063997d2830146106835780639d710777146105fd578063be60040e146105ba578063c6b8565b1461057a578063f1b1795d1461017a578063f2fde38b146100e75763f523d662146100a0575f80fd5b346100e3575f3660031901126100e35760206040516001600160a01b037f0000000000000000000000000000000000000000000000000000000000000000168152f35b5f80fd5b346100e35760203660031901126100e3576004356001600160a01b0381168091036100e357610114610982565b8015610167576001600160a01b035f548273ffffffffffffffffffffffffffffffffffffffff198216175f55167f8be0079c531659141344cd1fd0a4f28419497f9722a3daafe3b4186f6b6457e05f80a3005b631e4fbdf760e01b5f525f60045260245ffd5b346100e35760e03660031901126100e35760043567ffffffffffffffff81116100e3576101ab90369060040161087d565b9060243567ffffffffffffffff81116100e3576101cc90369060040161087d565b909260443567ffffffffffffffff81116100e3576101ee9036906004016108ab565b60649291923567ffffffffffffffff81116100e3576102119036906004016108ab565b91909360843567ffffffffffffffff81116100e3576102349036906004016108ab565b989060a4359960c43598610246610982565b871561053557600286106104f057600a86116104ab57898c101561046657600254985f198a146104525760018a0160025560405197613b1f95868a01978a891067ffffffffffffffff8a1117610433578a998f6102e8938f978f6102da938f918f6103049f906102f69d610160926102cc966109a99039815281602082015201916108dc565b8d810360408f0152916108dc565b918a830360608c01526108fc565b9187830360808901526108fc565b9184830360a08601526108fc565b908860c08201528660e08201526001600160a01b037f000000000000000000000000000000000000000000000000000000000000000016610100820152336101208201526101406001600160a01b037f00000000000000000000000000000000000000000000000000000000000000001691015203905ff08015610447576001600160a01b031693845f52600360205260405f20600160ff1982541617905560015491680100000000000000008310156104335760209686956103ee8560017fa16e60055352a4c28f7ab7ad4384f46549089b6835b521a389ebc426630788079701600155610851565b81549060031b906001600160a01b038a831b921b191617905561041e6040519485946060865260608601916108dc565b918984015260408301520390a3604051908152f35b634e487b7160e01b5f52604160045260245ffd5b6040513d5f823e3d90fd5b634e487b7160e01b5f52601160045260245ffd5b60405162461bcd60e51b815260206004820152601260248201527f496e76616c69642074696d652072616e676500000000000000000000000000006044820152606490fd5b60405162461bcd60e51b815260206004820152601160248201527f4d61782031302063616e646964617465730000000000000000000000000000006044820152606490fd5b60405162461bcd60e51b815260206004820152601060248201527f4d696e20322063616e64696461746573000000000000000000000000000000006044820152606490fd5b60405162461bcd60e51b815260206004820152600d60248201527f4e616d65207265717569726564000000000000000000000000000000000000006044820152606490fd5b346100e35760203660031901126100e3576004356001600160a01b0381168091036100e3575f526003602052602060ff60405f2054166040519015158152f35b346100e3575f3660031901126100e35760206040516001600160a01b037f0000000000000000000000000000000000000000000000000000000000000000168152f35b346100e35760203660031901126100e35760043560025481101561063e576001600160a01b0361062e602092610851565b90549060031b1c16604051908152f35b60405162461bcd60e51b815260206004820152600d60248201527f496e76616c696420696e646578000000000000000000000000000000000000006044820152606490fd5b346100e3575f3660031901126100e3576020600254604051908152f35b346100e3575f3660031901126100e35760206001600160a01b035f5416604051908152f35b346100e3575f3660031901126100e3576040518060206001549182815201809160015f527fb10e2d527612073b26eecdfd717e6a320cf44b4afac2b0732d9fcbe2b7fa0cf6905f5b81811061078357505050829003601f01601f191682019167ffffffffffffffff8311818410176104335790829182604052602083019060208452518091526040830191905f5b818110610761575050500390f35b82516001600160a01b0316845285945060209384019390920191600101610753565b82546001600160a01b031684526020909301926001928301920161070d565b346100e3575f3660031901126100e3576107ba610982565b5f6001600160a01b03815473ffffffffffffffffffffffffffffffffffffffff1981168355167f8be0079c531659141344cd1fd0a4f28419497f9722a3daafe3b4186f6b6457e08280a3005b346100e35760203660031901126100e3576004356001548110156100e3576001600160a01b0361062e602092610851565b346100e3575f3660031901126100e3576020906002548152f35b6001548110156108695760015f5260205f2001905f90565b634e487b7160e01b5f52603260045260245ffd5b9181601f840112156100e35782359167ffffffffffffffff83116100e357602083818601950101116100e357565b9181601f840112156100e35782359167ffffffffffffffff83116100e3576020808501948460051b0101116100e357565b908060209392818452848401375f828201840152601f01601f1916010190565b90602083828152019060208160051b85010193835f915b8383106109235750505050505090565b909192939495601f198282030186528635601e19843603018112156100e3578301906020823592019167ffffffffffffffff81116100e35780360383136100e35761097460209283926001956108dc565b980196019493019190610913565b6001600160a01b035f5416330361099557565b63118cdaa760e01b5f523360045260245ffdfe61010080604052346105f857613b1f803803809161001d8285610d99565b8339810190610160818303126105f857805160208201519092906001600160401b0381116105f85781610051918401610dbc565b60408301519092906001600160401b0381116105f85782610073918301610dbc565b60608201519094906001600160401b0381116105f85783610095918401610e11565b60808301519091906001600160401b0381116105f857846100b7918501610e11565b60a084015190946001600160401b0382116105f8576100d7918501610e11565b9260c08101519060e0810151976100f16101008301610e99565b61010b6101406101046101208601610e99565b9401610e99565b610113610f42565b5046600103610c9257610124610f42565b5060405161013181610d7e565b73ca2e8f1f656cd25c01f05d0b243ab1ecd4a8ffb6815273d82385dada1ae3e969447f20a3164f6213100e7560208201527377627828a55156b04ac0dc0eb30467f1a552bb0360408201525b80515f516020613aff5f395f51905f5280546001600160a01b03199081166001600160a01b039384161790915560208301515f516020613adf5f395f51905f52805483169184169190911790556040909201517f9e7b61f58c47dc699ac88507c4f5bb9f121c03808c5676a8078fe583e4649702805490931691161790558651600211610c5a57600a875111610c21578651895103610bdc578a851015610ba257428b1115610b6a576001600160a01b0316918215610b255760e086905289516001600160401b0381116105c9575f54600181811c91168015610b1b575b60208210146106c857601f8111610ab9575b50806020601f8211600114610a55575f91610a4a575b508160011b915f199060031b1c1916175f555b8051906001600160401b0382116105c95760015490600182811c92168015610a40575b60208310146106c85781601f8493116109d2575b50602090601f831160011461096c575f92610961575b50508160011b915f199060031b1c1916176001555b836002558960035560018060a01b031660805260a05260c05260ff83511660ff1960055416176005555f5b835160ff8216908110156108985761033b8186610ead565b516103468289610ead565b5191875181105f1461086f5761035c9088610ead565b51915b6040519161036c83610d7e565b82526020820190815260408201928352600454680100000000000000008110156105c95760018101806004558110156105b55760045f52915180516003939093027f8a35acfbc15ff81a39ae7d344fd709f28e8600b4aa8c65c6b64bfe7fe36bd19b0192906001600160401b0382116105c957835490600182811c92168015610865575b60208310146106c85781601f849311610815575b50602090601f83116001146107b2575f926107a7575b50508160011b915f199060031b1c19161782555b51805160018301916001600160401b0382116105c9578254600181811c9116801561079d575b60208210146106c857601f8111610758575b50602090601f83116001146106f1576002949392915f91836106e6575b50508160011b915f199060031b1c19161790555b9151805191909201916001600160401b0382116105c957825490600182811c921680156106dc575b60208310146106c85781601f849311610678575b50602090601f8311600114610615575f9261060a575b50508160011b915f199060031b1c19161790555b610505610ec1565b908180156105fc575b5f516020613aff5f395f51905f52546001600160a01b031690813b156105f8575f91604483926040519485938492635ca4b5b160e11b845260048401523060248401525af180156105ed576105dd575b5060065491680100000000000000008310156105c95760018301806006558310156105b55760ff9260065f5260205f2001551660ff81146105a157600101610323565b634e487b7160e01b5f52601160045260245ffd5b634e487b7160e01b5f52603260045260245ffd5b634e487b7160e01b5f52604160045260245ffd5b5f6105e791610d99565b5f61055e565b6040513d5f823e3d90fd5b5f80fd5b50610605610ec1565b61050e565b015190505f806104e9565b5f8581528281209350601f198516905b8181106106605750908460019594939210610648575b505050811b0190556104fd565b01515f1960f88460031b161c191690555f808061063b565b92936020600181928786015181550195019301610625565b909150835f5260205f20601f840160051c810191602085106106be575b90601f859493920160051c01905b8181106106b057506104d3565b5f81558493506001016106a3565b9091508190610695565b634e487b7160e01b5f52602260045260245ffd5b91607f16916104bf565b015190505f80610483565b90601f19831691845f52815f20925f5b818110610740575091600193918560029897969410610728575b505050811b019055610497565b01515f1960f88460031b161c191690555f808061071b565b92936020600181928786015181550195019301610701565b835f5260205f20601f840160051c81019160208510610793575b601f0160051c01905b8181106107885750610466565b5f815560010161077b565b9091508190610772565b90607f1690610454565b015190505f8061041a565b5f8681528281209350601f198516905b8181106107fd57509084600195949392106107e5575b505050811b01825561042e565b01515f1960f88460031b161c191690555f80806107d8565b929360206001819287860151815501950193016107c2565b909150845f5260205f20601f840160051c8101916020851061085b575b90601f859493920160051c01905b81811061084d5750610404565b5f8155849350600101610840565b9091508190610832565b91607f16916103f0565b50604061087e81519182610d99565b6007815266f09f97b3efb88f60c81b60208201529161035f565b837f985bede010c9de6fdb2c2ffc49c78056548fb7988d7cae281fe614263e9300d38460a08b60208e60ff8c511690604051958694608086528051948591826080890152018787015e5f858501870152602085015260408401526060830152601f01601f19168101030190a2604051612b7e9081610f61823960805181610284015260a05181818161015901526118b6015260c0518181816101a00152611294015260e051818181610576015281816111d70152818161152d0152818161188601526122bc0152f35b015190505f806102e3565b60015f9081528281209350601f198516905b8181106109ba57509084600195949392106109a2575b505050811b016001556102f8565b01515f1960f88460031b161c191690555f8080610994565b9293602060018192878601518155019501930161097e565b60015f529091507fb10e2d527612073b26eecdfd717e6a320cf44b4afac2b0732d9fcbe2b7fa0cf6601f840160051c81019160208510610a36575b90601f859493920160051c01905b818110610a2857506102cd565b5f8155849350600101610a1b565b9091508190610a0d565b91607f16916102b9565b90508b01515f610283565b5f8080528181209250601f198416908e5b828210610aa05750509083600194939210610a88575b5050811b015f55610296565b8d01515f1960f88460031b161c191690555f80610a7c565b600184956020939584930151815501940192018e610a66565b5f80527f290decd9548b62a8d60345a988386fc84ba6bc95484008f6362f93160ef3e563601f830160051c81019160208410610b11575b601f0160051c01905b818110610b06575061026d565b5f8155600101610af9565b9091508190610af0565b90607f169061025b565b60405162461bcd60e51b815260206004820152601d60248201527f496e76616c6964207061737320636f6e747261637420616464726573730000006044820152606490fd5b60405162461bcd60e51b815260206004820152601060248201526f115b99081d1a5b59481a5b881c185cdd60821b6044820152606490fd5b60405162461bcd60e51b8152602060048201526012602482015271496e76616c69642074696d652072616e676560701b6044820152606490fd5b60405162461bcd60e51b815260206004820152601360248201527f4e616d652f7061727479206d69736d61746368000000000000000000000000006044820152606490fd5b60405162461bcd60e51b81526020600482015260116024820152704d61782031302063616e6469646174657360781b6044820152606490fd5b60405162461bcd60e51b815260206004820152601060248201526f4d696e20322063616e6469646174657360801b6044820152606490fd5b4662aa36a703610d0157610ca4610f42565b50604051610cb181610d7e565b73f0ffdc93b7e186bc2f8cb3daa75d86d1930a433d81527392c920834ec8941d2c77d188936e1f7a6f49c127602082015273be0e383937d564d7ff0bc3b46c51f0bf8d5c311a604082015261017d565b46617a6903610d6f57610d12610f42565b50604051610d1f81610d7e565b7350157cffd6bbfa2dece204a89ec419c23ef5755d815273e3a9105a3a932253a70f126eb1e3b589c643dd24602082015273901f8942346f7ab3a01f6d7613119bca447bb030604082015261017d565b6373cac13b60e01b5f5260045ffd5b606081019081106001600160401b038211176105c957604052565b601f909101601f19168101906001600160401b038211908210176105c957604052565b81601f820112156105f8578051906001600160401b0382116105c95760405192610df0601f8401601f191660200185610d99565b828452602083830101116105f857815f9260208093018386015e8301015290565b9080601f830112156105f8578151916001600160401b0383116105c9578260051b9060405193610e446020840186610d99565b8452602080850192820101918383116105f85760208201905b838210610e6c57505050505090565b81516001600160401b0381116105f857602091610e8e87848094880101610dbc565b815201910190610e5d565b51906001600160a01b03821682036105f857565b80518210156105b55760209160051b010190565b5f516020613adf5f395f51905f5254604051639cd07acb60e01b81525f600480830182905260248301529091602091839160449183916001600160a01b03165af19081156105ed575f91610f13575090565b90506020813d602011610f3a575b81610f2e60209383610d99565b810103126105f8575190565b3d9150610f21565b60405190610f4f82610d7e565b5f604083828152826020820152015256fe6080806040526004361015610012575f80fd5b5f3560e01c908163051364d4146122a75750806309eef43e14612267578063122902a61461224c5780631b0c27da1461220e5780632e6997fe146120f35780633197cbb6146120d65780633477ee2e1461207e578063384de42f146120135780633a41069c1461182c5780633d792d0e1461180a5780634717f97c1461158857806349a2b6031461156d57806378e97925146115505780637aab087f146113e15780637de418d514610ff257806385e8e7a7146113b157806386852dca146111605780638927b0301461113e5780638e7ea5b21461100f57806392e2c6d214610ff25780639b5b3101146102c8578063a9a981a3146102a8578063be60040e14610265578063cde9370f146101c4578063e1489191146101815763f523d6621461013a575f80fd5b3461017d575f36600319011261017d5760206040516001600160a01b037f0000000000000000000000000000000000000000000000000000000000000000168152f35b5f80fd5b3461017d575f36600319011261017d5760206040516001600160a01b037f0000000000000000000000000000000000000000000000000000000000000000168152f35b3461017d57602036600319011261017d5760043560ff811680820361017d5760ff600554161115610220576101fb61020191612343565b506126de565b805161021c6040602084015193015160405193849384612522565b0390f35b60405162461bcd60e51b815260206004820152600d60248201527f496e76616c696420696e646578000000000000000000000000000000000000006044820152606490fd5b3461017d575f36600319011261017d5760206040516001600160a01b037f0000000000000000000000000000000000000000000000000000000000000000168152f35b3461017d575f36600319011261017d57602060ff60055416604051908152f35b3461017d57604036600319011261017d5760043567ffffffffffffffff811161017d573660238201121561017d5780600401359067ffffffffffffffff821161017d5760248101913660248260051b8401011161017d5760243567ffffffffffffffff811161017d5761033f90369060040161258f565b9390916103506003544210156127e8565b61035f60ff600a541615612834565b60ff6005541694858203610fad576103768661272c565b935f5b60ff8116888110156103ad57816001916103a561039760ff9561275e565b90549060031b1c918a612776565b520116610379565b50509194909295606090600281145f146107eb5750509084156107d7576103d386612880565b85600110156107d75761042060209261049a9263ffffffff6103f860445f9801612880565b816040519316878401521660408201526040815261041760608261237c565b955b36916127a2565b6001600160a01b037f9e7b61f58c47dc699ac88507c4f5bb9f121c03808c5676a8078fe583e46497025416906040519485809481936378542ead60e01b835260606004840152610488610476606485018d61255c565b8481036003190160248601528b6122df565b838103600319016044850152906122df565b03925af19081156107cc575f9161079d575b501561078e577fc6366bab028b8d033cb362cfd1f2f3457ef4e92fc738b6788b90d5a7846367a0916104fd6104ef9260405193849360408552604085019061255c565b9083820360208501526122df565b0390a168010000000000000000811161077a57600954816009558082106106c7575b508160095f528160031c5f5b818110610658575060071983168303806105e5575b505050600160ff19600a541617600a5560405190806040830160408452526060820192905f905b8082106105bd574260208501527f00000000000000000000000000000000000000000000000000000000000000007f7387c0e7ced012227949fb1858ac8d8c570a0b2be9cb81ac07661cc60e28b03885870386a2005b90919384359063ffffffff821680920361017d57602081600193829352019501920190610567565b915f925f5b81811061061f575050507f6e1540171b6c0c960b71a7020d9f60077f6af931a8bbf590da0223dacf75c7af0155828080610540565b909193602061064e60019261063388612880565b908560021b63ffffffff809160031b9316831b921b19161790565b95019291016105ea565b5f5f5b6008811061069057507f6e1540171b6c0c960b71a7020d9f60077f6af931a8bbf590da0223dacf75c7af82015560010161052b565b939060206106be6001926106a385612880565b908860021b63ffffffff809160031b9316831b921b19161790565b9201940161065b565b600780830160031c910160031c7f6e1540171b6c0c960b71a7020d9f60077f6af931a8bbf590da0223dacf75c7af0190601c8360021b1680610740575b507f6e1540171b6c0c960b71a7020d9f60077f6af931a8bbf590da0223dacf75c7af015b818110610735575061051f565b5f8155600101610728565b7f6e1540171b6c0c960b71a7020d9f60077f6af931a8bbf590da0223dacf75c7ae8201908154905f199060200360031b1c16905584610704565b634e487b7160e01b5f52604160045260245ffd5b63cf6c44e960e01b5f5260045ffd5b6107bf915060203d6020116107c5575b6107b7818361237c565b81019061278a565b856104ac565b503d6107ad565b6040513d5f823e3d90fd5b634e487b7160e01b5f52603260045260245ffd5b6003810361086d57505084156107d75761080486612880565b9085600110156107d75761081a60448201612880565b86600210156107d7575f9360209363ffffffff6104209381610841606461049a9801612880565b91816040519516898601521660408401521660608201526060815261086760808261237c565b95610419565b600481036109085750509084156107d75761088786612880565b9185600110156107d75761089d60448201612880565b9086600210156107d7576108b360648201612880565b9287600310156107d7575f9463ffffffff61049a9481602097816108dc60846104209901612880565b938160405197168b8801521660408601521660608401521660808201526080815261086760a08261237c565b600581036109c05750509084156107d75761092286612880565b9085600110156107d75761093860448401612880565b9186600210156107d75761094e60648501612880565b9187600310156107d75761096460848601612880565b9188600410156107d75763ffffffff60209581610420958161049a988161098e60a45f9e01612880565b958160405199168d8a01521660408801521660608601521660808401521660a082015260a0815261086760c08261237c565b60068103610a9457505084156107d7576109d986612880565b85600110156107d7576109ee60448301612880565b9286600210156107d757610a0460648401612880565b9087600310156107d757610a1a60848501612880565b9288600410156107d757610a3060a48601612880565b9389600510156107d7575f9663ffffffff61049a96818094816104209981610a5c60c460209f01612880565b97816040519b168f8c01521660408a01521660608801521660808601521660a08401521660c082015260c0815261086760e08261237c565b60078103610b8f5750509084156107d757610aae86612880565b9085600110156107d757610ac460448401612880565b9286600210156107d757610ada60648201612880565b9187600310156107d757610af060848301612880565b9188600410156107d757610b0660a48201612880565b9289600510156107d757610b1c60c48301612880565b958a600610156107d75763ffffffff6020978161042097818097968161049a9c5f9f829a90610b4e60e4859301612880565b9a60206040519e8f92169101521660408c01521660608a01521660808801521660a08601521660c08401521660e082015260e081526108676101008261237c565b60088103610cc157505084156107d757610ba886612880565b9085600110156107d757610bbe60448201612880565b9086600210156107d757610bd460648201612880565b87600310156107d757610be960848301612880565b88600410156107d757610bfe60a48401612880565b9089600510156107d757610c1460c48501612880565b928a600610156107d757610c2a60e48601612880565b948b600710156107d75761010401610c4190612880565b956040519763ffffffff16602089015263ffffffff16604088015263ffffffff16606087015263ffffffff16608086015263ffffffff1660a085015263ffffffff1660c084015263ffffffff1660e083015263ffffffff166101008201526101008152610cb06101208261237c565b9161049a6104205f93602093610419565b60098103610e0457505084156107d757610cda86612880565b9085600110156107d757610cf060448201612880565b9086600210156107d757610d0660648201612880565b87600310156107d757610d1b60848301612880565b88600410156107d757610d3060a48401612880565b89600510156107d757610d4560c48501612880565b918a600610156107d757610d5b60e48601612880565b938b600710156107d757610d726101048701612880565b958c600810156107d75761012401610d8990612880565b966040519863ffffffff1660208a015263ffffffff16604089015263ffffffff16606088015263ffffffff16608087015263ffffffff1660a086015263ffffffff1660c085015263ffffffff1660e084015263ffffffff1661010083015263ffffffff166101208201526101208152610cb06101408261237c565b600a03610f685785156107d757610e1a87612880565b9186600110156107d757610e3060448201612880565b9187600210156107d757610e4660648301612880565b9088600310156107d757610e5c60848401612880565b89600410156107d757610e7160a48501612880565b8a600510156107d757610e8660c48601612880565b918b600610156107d757610e9c60e48701612880565b938c600710156107d757610eb36101048801612880565b958d600810156107d75787610ecc8f9961012401612880565b98600910156107d75761014401610ee290612880565b986040519a63ffffffff1660208c015263ffffffff1660408b015263ffffffff169089015263ffffffff16608088015263ffffffff1660a087015263ffffffff1660c086015263ffffffff1660e085015263ffffffff1661010084015263ffffffff1661012083015263ffffffff166101408201526101408152610cb06101608261237c565b60405162461bcd60e51b815260206004820152601760248201527f496e76616c69642063616e64696461746520636f756e740000000000000000006044820152606490fd5b60405162461bcd60e51b815260206004820152601460248201527f54616c6c7920636f756e74206d69736d617463680000000000000000000000006044820152606490fd5b3461017d575f36600319011261017d576020600854604051908152f35b3461017d575f36600319011261017d5760ff600a5416156110f95760ff5f5f5f8360055416905b81858216106110a957505063ffffffff61109e61105284612343565b50611090611075600161106e61106789612343565b509461246c565b930161246c565b916040519788971687526080602088015260808701906122df565b9085820360408701526122df565b911660608301520390f35b63ffffffff6110b782612303565b90549060031b1c1663ffffffff8416106110d6575b6001018416611036565b9250905063ffffffff6110e883612303565b905460039190911b1c1690826110cc565b60405162461bcd60e51b815260206004820152601460248201527f526573756c7473206e6f742072657665616c65640000000000000000000000006044820152606490fd5b3461017d575f36600319011261017d576020611158612a57565b604051908152f35b3461017d575f36600319011261017d575f6101006040516111808161235f565b82815260606020820152606060408201528260608201528260808201528260a08201528260c08201528260e08201520152600254600354906008549060ff6005541660ff600a5416604051916111d58361235f565b7f00000000000000000000000000000000000000000000000000000000000000008352604051945f965f548060011c906001811680156113a7575b60208310811461139357828a52908115611370575060011461131b575b509160ff916001600160a01b0395949361124b8960409b038a61237c565b602086019889526112ec61125d61239e565b8b880190815260608801998a526080880192835260a0880193845260c0880194855260e0880196151587526112d96101008901988a7f0000000000000000000000000000000000000000000000000000000000000000168a526101208e519e8f9e8f9360208552516020850152519201526101408d01906122df565b90518b8203601f190160608d01526122df565b975160808a01525160a08901525160c0880152511660e086015251151561010085015251166101208301520390f35b5f8080529098507f290decd9548b62a8d60345a988386fc84ba6bc95484008f6362f93160ef3e5635b89821061135a57508701602001975060ff61122d565b6001816020925483858d01015201910190611344565b60ff19166020808b019190915291151560051b8901909101985060ff905061122d565b634e487b7160e01b5f52602260045260245ffd5b91607f1691611210565b3461017d575f36600319011261017d5761021c6113cd5f61246c565b6040519182916020835260208301906122df565b3461017d575f36600319011261017d576113ff6003544210156127e8565b61140e60ff600a541615612834565b604060205f5b60ff6005541660ff821610156115035761142d8161275e565b90549060031b1c9081156114f3575b835191611449858461237c565b6001835260208301843682378351156107d757526001600160a01b037f9e7b61f58c47dc699ac88507c4f5bb9f121c03808c5676a8078fe583e46497005416803b1561017d578451637d6e912360e11b815260206004820152925f9184918290849082906114bb90602483019061255c565b03925af19081156114e95760ff926001926114d9575b500116611414565b5f6114e39161237c565b856114d1565b84513d5f823e3d90fd5b90506114fd612b03565b9061143c565b82514281527f6c4b065080c036c682c3d1cdb4a3801c7054f1dbb9b153d7bfea992cc3ab50e560207f000000000000000000000000000000000000000000000000000000000000000092a2005b3461017d575f36600319011261017d576020600254604051908152f35b3461017d575f36600319011261017d5761021c6113cd61239e565b3461017d575f36600319011261017d5760ff600a5416156117c557604051806020600954918281520190828260095f527f6e1540171b6c0c960b71a7020d9f60077f6af931a8bbf590da0223dacf75c7af925f905b80600783011061173e57611636945491818110611727575b81811061170e575b8181106116f4575b8181106116da575b8181106116c0575b8181106116a6575b81811061168c575b1061167e575b50939293038261237c565b604051918291602083019060208452518091526040830191905f5b81811061165f575050500390f35b825163ffffffff16845285945060209384019390920191600101611651565b60e01c81526020018561162b565b92602060019163ffffffff8560c01c168152019301611625565b92602060019163ffffffff8560a01c16815201930161161d565b92602060019163ffffffff8560801c168152019301611615565b92602060019163ffffffff8560601c16815201930161160d565b92602060019163ffffffff8560401c168152019301611605565b92602060019163ffffffff85831c1681520193016115fd565b92602060019163ffffffff851681520193016115f5565b916008919350610100600191865463ffffffff8116825263ffffffff8160201c16602083015263ffffffff8160401c16604083015263ffffffff8160601c16606083015263ffffffff8160801c16608083015263ffffffff8160a01c1660a083015263ffffffff8160c01c1660c083015260e01c60e08201520194019201859293916115dd565b60405162461bcd60e51b815260206004820152601860248201527f526573756c7473206e6f74207965742072657665616c656400000000000000006044820152606490fd5b3461017d575f36600319011261017d57602060ff600a54166040519015158152f35b3461017d57604036600319011261017d5760243567ffffffffffffffff811161017d5761185d90369060040161258f565b906002544210611fce57600354421015611f89576040516396ca51d960e01b81523360048201527f0000000000000000000000000000000000000000000000000000000000000000602482018190526001600160a01b037f0000000000000000000000000000000000000000000000000000000000000000169390929091602081604481885afa9081156107cc575f91611f6a575b5015611f1b57335f52600760205260ff60405f205416611ed657335f52600760205260405f20600160ff19825416179055600854905f198214611ec25761194c926001611944930160085536916127a2565b600435612891565b6004928115915f91826002815b60ff6005541660ff821690811015611e3e576001600160a01b035f516020612b525f395f51905f5254168460405192639cd07acb60e01b84528c840152611e2b57816044815f6020948860248401525af19081156107cc575f91611dfa575b50858189611dea575b15611dd6575b60209060648c5f6001600160a01b035f516020612b525f395f51905f525416604051968795869463f77f3f1d60e01b865285015260248401528160448401525af19081156107cc575f91611da5575b505f516020612b525f395f51905f5254604051639cd07acb60e01b815260018c820152906001600160a01b031688611d9257816044815f8f9460209560248401525af19081156107cc575f91611d61575b50611a70612b03565b91818115611cc2575b15611caf575b828c6020939415611c9a575b5f6064926001600160a01b035f516020612b525f395f51905f525416906040519788968795637702dcff60e01b8752860152602485015260448401525af19081156107cc575f91611c69575b50611ae18261275e565b90549060031b1c818115611c59575b15611c45575b60209060648c5f6001600160a01b035f516020612b525f395f51905f525416604051968795869463022f65e760e31b865285015260248401528160448401525af19081156107cc575f91611c14575b50611b4f8261275e565b819291549060031b91821b915f19901b1916179055611b6d8161275e565b90549060031b1c908115611c04575b6001600160a01b037f9e7b61f58c47dc699ac88507c4f5bb9f121c03808c5676a8078fe583e46497005416803b1561017d5760408051635ca4b5b160e11b8152808d01948552306020860152935f92859290918391859183910103925af19081156107cc5760ff92600192611bf4575b500116611959565b5f611bfe9161237c565b8b611bec565b9050611c0e612b03565b90611b7c565b90506020813d8211611c3d575b81611c2e6020938361237c565b8101031261017d57518a611b45565b3d9150611c21565b90506020611c51612b03565b919050611af6565b9050611c63612b03565b90611af0565b90506020813d8211611c92575b81611c836020938361237c565b8101031261017d57518a611ad7565b3d9150611c76565b606491505f611ca7612b03565b925050611a8b565b60209150611cbb612b03565b9150611a7f565b90508b6001600160a01b035f516020612b525f395f51905f5254165f60405192639cd07acb60e01b845283015260545f1015611d4e57816044815f6020948160248401525af19081156107cc575f91611d1d575b5090611a79565b90506020813d8211611d46575b81611d376020938361237c565b8101031261017d57518d611d16565b3d9150611d2a565b60218e634e487b7160e01b5f525260245ffd5b90506020813d8211611d8a575b81611d7b6020938361237c565b8101031261017d57518b611a67565b3d9150611d6e565b60218c634e487b7160e01b5f525260245ffd5b90506020813d8211611dce575b81611dbf6020938361237c565b8101031261017d57518a611a16565b3d9150611db2565b90506020611de2612a86565b9190506119c7565b9050611df4612a86565b906119c1565b90506020813d8211611e23575b81611e146020938361237c565b8101031261017d57518a6119b8565b3d9150611e07565b60218b634e487b7160e01b5f525260245ffd5b604080516309e25c9d60e41b8152338c820190815260208082018d90528c93909183919082900301815f8b5af180156107cc57611ea5575b506040514281527fb4cfecf70861b7b150d8337780d34fb4cbc2114b5fb1fe51a5c5fca1849f727460203392a3005b611ebd9060203d6020116107c5576107b7818361237c565b611e76565b634e487b7160e01b5f52601160045260245ffd5b60405162461bcd60e51b815260206004820152601e60248201527f416c726561647920766f74656420696e207468697320656c656374696f6e00006044820152606490fd5b60405162461bcd60e51b815260206004820152602160248201527f496e76616c6964206f72206d697373696e6720566f7465722050617373204e466044820152601560fa1b6064820152608490fd5b611f83915060203d6020116107c5576107b7818361237c565b856118f2565b60405162461bcd60e51b815260206004820152600f60248201527f456c656374696f6e20636c6f73656400000000000000000000000000000000006044820152606490fd5b60405162461bcd60e51b815260206004820152601460248201527f456c656374696f6e206e6f7420737461727465640000000000000000000000006044820152606490fd5b3461017d575f36600319011261017d5760ff600554166120328161272c565b5f5b60ff811683811015612068578160019161206061205260ff9561275e565b90549060031b1c9186612776565b520116612034565b6040516020808252819061021c9082018661255c565b3461017d57602036600319011261017d5760043560045481101561017d576120a590612343565b506120af8161246c565b61021c6120ca60026120c36001860161246c565b940161246c565b60405193849384612522565b3461017d575f36600319011261017d576020600354604051908152f35b3461017d575f36600319011261017d5760045461210f816126c6565b9061211d604051928361237c565b80825260208201908160045f527f8a35acfbc15ff81a39ae7d344fd709f28e8600b4aa8c65c6b64bfe7fe36bd19b5f915b8383106121f057848660405191829160208301906020845251809152604083019060408160051b85010192915f905b82821061218c57505050500390f35b919360019193955060206121e08192603f198a820301865288519060406121cf6121bf84516060855260608501906122df565b86850151848203888601526122df565b9201519060408184039101526122df565b960192019201859493919261217d565b60036020600192612200856126de565b81520192019201919061214e565b3461017d57602036600319011261017d5760043560095481101561017d5763ffffffff61223c602092612303565b90549060031b1c16604051908152f35b3461017d575f36600319011261017d5761021c6113cd6125bd565b3461017d57602036600319011261017d576004356001600160a01b03811680910361017d575f526007602052602060ff60405f2054166040519015158152f35b3461017d575f36600319011261017d576020907f00000000000000000000000000000000000000000000000000000000000000008152f35b805180835260209291819084018484015e5f828201840152601f01601f1916010190565b906009548210156107d75760095f52600382901c7f6e1540171b6c0c960b71a7020d9f60077f6af931a8bbf590da0223dacf75c7af019160021b601c1690565b6004548110156107d75760045f52600360205f20910201905f90565b610120810190811067ffffffffffffffff82111761077a57604052565b90601f8019910116810190811067ffffffffffffffff82111761077a57604052565b604051905f6001548060011c9160018216918215612462575b60208410831461139357838652859290811561244357506001146123e4575b6123e29250038361237c565b565b5060015f90815290917fb10e2d527612073b26eecdfd717e6a320cf44b4afac2b0732d9fcbe2b7fa0cf65b8183106124275750509060206123e2928201016123d6565b602091935080600191548385890101520191019091849261240f565b602092506123e294915060ff191682840152151560051b8201016123d6565b92607f16926123b7565b90604051915f8154908160011c9260018316928315612518575b6020851084146113935784875286939081156124f657506001146124b2575b506123e29250038361237c565b90505f9291925260205f20905f915b8183106124da5750509060206123e2928201015f6124a5565b60209193508060019154838589010152019101909184926124c1565b9050602092506123e294915060ff191682840152151560051b8201015f6124a5565b93607f1693612486565b9161254b9061253d61255995936060865260608601906122df565b9084820360208601526122df565b9160408184039101526122df565b90565b90602080835192838152019201905f5b8181106125795750505090565b825184526020938401939092019160010161256c565b9181601f8401121561017d5782359167ffffffffffffffff831161017d576020838186019501011161017d57565b600254421061268b5760035442106126505760ff600a541615612615576040516125e860408261237c565b600981527f636f6d706c657465640000000000000000000000000000000000000000000000602082015290565b60405161262360408261237c565b600881527f636f756e74696e67000000000000000000000000000000000000000000000000602082015290565b60405161265e60408261237c565b600681527f6163746976650000000000000000000000000000000000000000000000000000602082015290565b60405161269960408261237c565b600881527f7570636f6d696e67000000000000000000000000000000000000000000000000602082015290565b67ffffffffffffffff811161077a5760051b60200190565b906040516060810181811067ffffffffffffffff82111761077a5760405260406127276002839561270e8161246c565b855261271c6001820161246c565b60208601520161246c565b910152565b90612736826126c6565b612743604051918261237c565b8281528092612754601f19916126c6565b0190602036910137565b6006548110156107d75760065f5260205f2001905f90565b80518210156107d75760209160051b010190565b9081602091031261017d5751801515810361017d5790565b92919267ffffffffffffffff821161077a57604051916127cc601f8201601f19166020018461237c565b82948184528183011161017d578281602093845f960137010152565b156127ef57565b60405162461bcd60e51b815260206004820152601360248201527f456c656374696f6e207374696c6c206f70656e000000000000000000000000006044820152606490fd5b1561283b57565b60405162461bcd60e51b815260206004820152601060248201527f416c72656164792072657665616c6564000000000000000000000000000000006044820152606490fd5b3563ffffffff8116810361017d5790565b8151909190156129a9576020906128eb926001600160a01b035f516020612b525f395f51905f525416905f60405180968195829463045fc19560e11b845260048401523360248401526080604484015260848301906122df565b6002606483015203925af19081156107cc575f91612977575b506001600160a01b037f9e7b61f58c47dc699ac88507c4f5bb9f121c03808c5676a8078fe583e46497005416803b1561017d57604051630f8e573b60e21b815260048101839052336024820152905f908290604490829084905af180156107cc5761296d575090565b5f6125599161237c565b90506020813d6020116129a1575b816129926020938361237c565b8101031261017d57515f612904565b3d9150612985565b508015612a4e577f9e7b61f58c47dc699ac88507c4f5bb9f121c03808c5676a8078fe583e4649700546040516382027b6d60e01b81526004810183905233602482015290602090829060449082906001600160a01b03165afa9081156107cc575f91612a2f575b5015612a195790565b630276b5d960e01b5f526004523360245260445ffd5b612a48915060203d6020116107c5576107b7818361237c565b5f612a10565b50612559612a86565b46600103612a6457600190565b4662aa36a703612a745761271190565b617a694614612a81575f90565b5f1990565b5f516020612b525f395f51905f5254604051639cd07acb60e01b81525f6004820152906001600160a01b0316816044815f602094600260248401525af19081156107cc575f91612ad4575090565b90506020813d602011612afb575b81612aef6020938361237c565b8101031261017d575190565b3d9150612ae2565b5f516020612b525f395f51905f5254604051639cd07acb60e01b81525f6004820152906001600160a01b0316816044815f602094600460248401525af19081156107cc575f91612ad457509056fe9e7b61f58c47dc699ac88507c4f5bb9f121c03808c5676a8078fe583e4649701a164736f6c634300081b000a9e7b61f58c47dc699ac88507c4f5bb9f121c03808c5676a8078fe583e46497019e7b61f58c47dc699ac88507c4f5bb9f121c03808c5676a8078fe583e4649700a164736f6c634300081b000a",
  "linkReferences": {},
  "deployedLinkReferences": {}
}