{
  "_format": "hh-sol-artifact-1",
  "contractName": "FHEIdentityRegistry",
  "sourceName": "contracts/FHEIdentityRegistry.sol",
  "abi": [
    {
      "inputs": [
        {
          "internalType": "address",
          "name": "_voterRegistry",
          "type": "address"
        },
        {
          "internalType": "address",
          "name": "_commission",
          "type": "address"
        },
        {
          "internalType": "address",
          "name": "_voterPass",
          "type": "address"
        }
      ],
      "stateMutability": "nonpayable",
      "type": "constructor"
    },
    {
      "inputs": [
        {
          "internalType": "address",
          "name": "owner",
          "type": "address"
        }
      ],
      "name": "OwnableInvalidOwner",
      "type": "error"
    },
    {
      "inputs": [
        {
          "internalType": "address",
          "name": "account",
          "type": "address"
        }
      ],
      "name": "OwnableUnauthorizedAccount",
      "type": "error"
    },
    {
      "inputs": [
        {
          "internalType": "bytes32",
          "name": "handle",
          "type": "bytes32"
        },
        {
          "internalType": "address",
          "name": "sender",
          "type": "address"
        }
      ],
      "name": "SenderNotAllowedToUseHandle",
      "type": "error"
    },
    {
      "inputs": [],
      "name": "ZamaProtocolUnsupported",
      "type": "error"
    },
    {
      "anonymous": false,
      "inputs": [
        {
          "indexed": true,
          "internalType": "address",
          "name": "oldCommission",
          "type": "address"
        },
        {
          "indexed": true,
          "internalType": "address",
          "name": "newCommission",
          "type": "address"
        }
      ],
      "name": "CommissionChanged",
      "type": "event"
    },
    {
      "anonymous": false,
      "inputs": [
        {
          "indexed": true,
          "internalType": "address",
          "name": "appointedBy",
          "type": "address"
        },
        {
          "indexed": true,
          "internalType": "address",
          "name": "newCommissioner",
          "type": "address"
        }
      ],
      "name": "CommissionerAppointed",
      "type": "event"
    },
    {
      "anonymous": false,
      "inputs": [
        {
          "indexed": true,
          "internalType": "uint256",
          "name": "requestId",
          "type": "uint256"
        },
        {
          "indexed": true,
          "internalType": "address",
          "name": "citizen",
          "type": "address"
        },
        {
          "indexed": true,
          "internalType": "address",
          "name": "approver",
          "type": "address"
        },
        {
          "indexed": false,
          "internalType": "uint256",
          "name": "timestamp",
          "type": "uint256"
        }
      ],
      "name": "IdentityRequestApproved",
      "type": "event"
    },
    {
      "anonymous": false,
      "inputs": [
        {
          "indexed": true,
          "internalType": "uint256",
          "name": "requestId",
          "type": "uint256"
        },
        {
          "indexed": true,
          "internalType": "address",
          "name": "citizen",
          "type": "address"
        },
        {
          "indexed": true,
          "internalType": "address",
          "name": "rejector",
          "type": "address"
        },
        {
          "indexed": false,
          "internalType": "string",
          "name": "reason",
          "type": "string"
        },
        {
          "indexed": false,
          "internalType": "uint256",
          "name": "timestamp",
          "type": "uint256"
        }
      ],
      "name": "IdentityRequestRejected",
      "type": "event"
    },
    {
      "anonymous": false,
      "inputs": [
        {
          "indexed": true,
          "internalType": "uint256",
          "name": "requestId",
          "type": "uint256"
        },
        {
          "indexed": true,
          "internalType": "address",
          "name": "citizen",
          "type": "address"
        },
        {
          "indexed": false,
          "internalType": "uint8",
          "name": "chunkCount",
          "type": "uint8"
        },
        {
          "indexed": false,
          "internalType": "uint256",
          "name": "timestamp",
          "type": "uint256"
        }
      ],
      "name": "IdentityRequestSubmitted",
      "type": "event"
    },
    {
      "anonymous": false,
      "inputs": [
        {
          "indexed": true,
          "internalType": "address",
          "name": "previousOwner",
          "type": "address"
        },
        {
          "indexed": true,
          "internalType": "address",
          "name": "newOwner",
          "type": "address"
        }
      ],
      "name": "OwnershipTransferred",
      "type": "event"
    },
    {
      "anonymous": false,
      "inputs": [
        {
          "indexed": true,
          "internalType": "uint256",
          "name": "requestId",
          "type": "uint256"
        },
        {
          "indexed": true,
          "internalType": "address",
          "name": "citizen",
          "type": "address"
        },
        {
          "indexed": false,
          "internalType": "uint256",
          "name": "timestamp",
          "type": "uint256"
        }
      ],
      "name": "VoterAutoRegistered",
      "type": "event"
    },
    {
      "inputs": [],
      "name": "DOC_DRIVING_LICENSE",
      "outputs": [
        {
          "internalType": "uint8",
          "name": "",
          "type": "uint8"
        }
      ],
      "stateMutability": "view",
      "type": "function"
    },
    {
      "inputs": [],
      "name": "DOC_NATIONAL_ID",
      "outputs": [
        {
          "internalType": "uint8",
          "name": "",
          "type": "uint8"
        }
      ],
      "stateMutability": "view",
      "type": "function"
    },
    {
      "inputs": [],
      "name": "DOC_PASSPORT",
      "outputs": [
        {
          "internalType": "uint8",
          "name": "",
          "type": "uint8"
        }
      ],
      "stateMutability": "view",
      "type": "function"
    },
    {
      "inputs": [],
      "name": "DOC_VOTER_CARD",
      "outputs": [
        {
          "internalType": "uint8",
          "name": "",
          "type": "uint8"
        }
      ],
      "stateMutability": "view",
      "type": "function"
    },
    {
      "inputs": [],
      "name": "MAX_DOC_CHUNKS",
      "outputs": [
        {
          "internalType": "uint256",
          "name": "",
          "type": "uint256"
        }
      ],
      "stateMutability": "view",
      "type": "function"
    },
    {
      "inputs": [],
      "name": "REQUEST_EXPIRY",
      "outputs": [
        {
          "internalType": "uint256",
          "name": "",
          "type": "uint256"
        }
      ],
      "stateMutability": "view",
      "type": "function"
    },
    {
      "inputs": [
        {
          "internalType": "uint256",
          "name": "",
          "type": "uint256"
        }
      ],
      "name": "allRequestIds",
      "outputs": [
        {
          "internalType": "uint256",
          "name": "",
          "type": "uint256"
        }
      ],
      "stateMutability": "view",
      "type": "function"
    },
    {
      "inputs": [
        {
          "internalType": "address",
          "name": "newCommissioner",
          "type": "address"
        }
      ],
      "name": "appointCommissioner",
      "outputs": [],
      "stateMutability": "nonpayable",
      "type": "function"
    },
    {
      "inputs": [
        {
          "internalType": "uint256",
          "name": "requestId",
          "type": "uint256"
        },
        {
          "internalType": "bytes",
          "name": "signature",
          "type": "bytes"
        }
      ],
      "name": "approveIdentityRequest",
      "outputs": [],
      "stateMutability": "nonpayable",
      "type": "function"
    },
    {
      "inputs": [
        {
          "internalType": "uint256",
          "name": "",
          "type": "uint256"
        }
      ],
      "name": "approvedSignatures",
      "outputs": [
        {
          "internalType": "bytes",
          "name": "",
          "type": "bytes"
        }
      ],
      "stateMutability": "view",
      "type": "function"
    },
    {
      "inputs": [
        {
          "internalType": "address",
          "name": "",
          "type": "address"
        }
      ],
      "name": "citizenRequestId",
      "outputs": [
        {
          "internalType": "uint256",
          "name": "",
          "type": "uint256"
        }
      ],
      "stateMutability": "view",
      "type": "function"
    },
    {
      "inputs": [],
      "name": "commission",
      "outputs": [
        {
          "internalType": "address",
          "name": "",
          "type": "address"
        }
      ],
      "stateMutability": "view",
      "type": "function"
    },
    {
      "inputs": [
        {
          "internalType": "uint256",
          "name": "",
          "type": "uint256"
        }
      ],
      "name": "commissioners",
      "outputs": [
        {
          "internalType": "address",
          "name": "",
          "type": "address"
        }
      ],
      "stateMutability": "view",
      "type": "function"
    },
    {
      "inputs": [],
      "name": "confidentialProtocolId",
      "outputs": [
        {
          "internalType": "uint256",
          "name": "",
          "type": "uint256"
        }
      ],
      "stateMutability": "view",
      "type": "function"
    },
    {
      "inputs": [
        {
          "internalType": "uint256",
          "name": "requestId",
          "type": "uint256"
        },
        {
          "internalType": "address",
          "name": "targetCommissioner",
          "type": "address"
        }
      ],
      "name": "delegateRequestAccess",
      "outputs": [],
      "stateMutability": "nonpayable",
      "type": "function"
    },
    {
      "inputs": [],
      "name": "getAllRequests",
      "outputs": [
        {
          "components": [
            {
              "internalType": "address",
              "name": "citizen",
              "type": "address"
            },
            {
              "internalType": "uint256",
              "name": "submittedAt",
              "type": "uint256"
            },
            {
              "internalType": "uint256",
              "name": "requestId",
              "type": "uint256"
            },
            {
              "internalType": "uint8",
              "name": "docChunkCount",
              "type": "uint8"
            },
            {
              "internalType": "enum FHEIdentityRegistry.RequestStatus",
              "name": "status",
              "type": "uint8"
            },
            {
              "internalType": "string",
              "name": "rejectionReason",
              "type": "string"
            },
            {
              "internalType": "bytes32",
              "name": "commitmentHash",
              "type": "bytes32"
            }
          ],
          "internalType": "struct FHEIdentityRegistry.IdentityRequest[]",
          "name": "",
          "type": "tuple[]"
        }
      ],
      "stateMutability": "view",
      "type": "function"
    },
    {
      "inputs": [
        {
          "internalType": "address",
          "name": "citizen",
          "type": "address"
        }
      ],
      "name": "getCitizenStatus",
      "outputs": [
        {
          "internalType": "bool",
          "name": "isVerified",
          "type": "bool"
        },
        {
          "internalType": "bool",
          "name": "isPending",
          "type": "bool"
        },
        {
          "internalType": "bool",
          "name": "isRegistered",
          "type": "bool"
        },
        {
          "internalType": "uint256",
          "name": "requestId",
          "type": "uint256"
        },
        {
          "internalType": "enum FHEIdentityRegistry.RequestStatus",
          "name": "status",
          "type": "uint8"
        },
        {
          "internalType": "string",
          "name": "rejectionReason",
          "type": "string"
        }
      ],
      "stateMutability": "view",
      "type": "function"
    },
    {
      "inputs": [],
      "name": "getCommissioners",
      "outputs": [
        {
          "internalType": "address[]",
          "name": "",
          "type": "address[]"
        }
      ],
      "stateMutability": "view",
      "type": "function"
    },
    {
      "inputs": [
        {
          "internalType": "uint256",
          "name": "requestId",
          "type": "uint256"
        }
      ],
      "name": "getEncryptedChunkCount",
      "outputs": [
        {
          "internalType": "uint256",
          "name": "",
          "type": "uint256"
        }
      ],
      "stateMutability": "view",
      "type": "function"
    },
    {
      "inputs": [
        {
          "internalType": "uint256",
          "name": "requestId",
          "type": "uint256"
        },
        {
          "internalType": "uint256",
          "name": "chunkIndex",
          "type": "uint256"
        }
      ],
      "name": "getEncryptedDocChunk",
      "outputs": [
        {
          "internalType": "euint256",
          "name": "",
          "type": "bytes32"
        }
      ],
      "stateMutability": "view",
      "type": "function"
    },
    {
      "inputs": [
        {
          "internalType": "uint256",
          "name": "requestId",
          "type": "uint256"
        }
      ],
      "name": "getEncryptedDocType",
      "outputs": [
        {
          "internalType": "euint8",
          "name": "",
          "type": "bytes32"
        }
      ],
      "stateMutability": "view",
      "type": "function"
    },
    {
      "inputs": [],
      "name": "getPendingCount",
      "outputs": [
        {
          "internalType": "uint256",
          "name": "",
          "type": "uint256"
        }
      ],
      "stateMutability": "view",
      "type": "function"
    },
    {
      "inputs": [],
      "name": "getPendingRequests",
      "outputs": [
        {
          "components": [
            {
              "internalType": "address",
              "name": "citizen",
              "type": "address"
            },
            {
              "internalType": "uint256",
              "name": "submittedAt",
              "type": "uint256"
            },
            {
              "internalType": "uint256",
              "name": "requestId",
              "type": "uint256"
            },
            {
              "internalType": "uint8",
              "name": "docChunkCount",
              "type": "uint8"
            },
            {
              "internalType": "enum FHEIdentityRegistry.RequestStatus",
              "name": "status",
              "type": "uint8"
            },
            {
              "internalType": "string",
              "name": "rejectionReason",
              "type": "string"
            },
            {
              "internalType": "bytes32",
              "name": "commitmentHash",
              "type": "bytes32"
            }
          ],
          "internalType": "struct FHEIdentityRegistry.IdentityRequest[]",
          "name": "",
          "type": "tuple[]"
        }
      ],
      "stateMutability": "view",
      "type": "function"
    },
    {
      "inputs": [
        {
          "internalType": "uint256",
          "name": "requestId",
          "type": "uint256"
        }
      ],
      "name": "getRequest",
      "outputs": [
        {
          "components": [
            {
              "internalType": "address",
              "name": "citizen",
              "type": "address"
            },
            {
              "internalType": "uint256",
              "name": "submittedAt",
              "type": "uint256"
            },
            {
              "internalType": "uint256",
              "name": "requestId",
              "type": "uint256"
            },
            {
              "internalType": "uint8",
              "name": "docChunkCount",
              "type": "uint8"
            },
            {
              "internalType": "enum FHEIdentityRegistry.RequestStatus",
              "name": "status",
              "type": "uint8"
            },
            {
              "internalType": "string",
              "name": "rejectionReason",
              "type": "string"
            },
            {
              "internalType": "bytes32",
              "name": "commitmentHash",
              "type": "bytes32"
            }
          ],
          "internalType": "struct FHEIdentityRegistry.IdentityRequest",
          "name": "",
          "type": "tuple"
        }
      ],
      "stateMutability": "view",
      "type": "function"
    },
    {
      "inputs": [
        {
          "internalType": "address",
          "name": "",
          "type": "address"
        }
      ],
      "name": "hasPendingRequest",
      "outputs": [
        {
          "internalType": "bool",
          "name": "",
          "type": "bool"
        }
      ],
      "stateMutability": "view",
      "type": "function"
    },
    {
      "inputs": [
        {
          "internalType": "address",
          "name": "",
          "type": "address"
        }
      ],
      "name": "isCommissioner",
      "outputs": [
        {
          "internalType": "bool",
          "name": "",
          "type": "bool"
        }
      ],
      "stateMutability": "view",
      "type": "function"
    },
    {
      "inputs": [
        {
          "internalType": "address",
          "name": "",
          "type": "address"
        }
      ],
      "name": "isVerifiedCitizen",
      "outputs": [
        {
          "internalType": "bool",
          "name": "",
          "type": "bool"
        }
      ],
      "stateMutability": "view",
      "type": "function"
    },
    {
      "inputs": [],
      "name": "owner",
      "outputs": [
        {
          "internalType": "address",
          "name": "",
          "type": "address"
        }
      ],
      "stateMutability": "view",
      "type": "function"
    },
    {
      "inputs": [
        {
          "internalType": "uint256",
          "name": "",
          "type": "uint256"
        }
      ],
      "name": "pendingRequestIds",
      "outputs": [
        {
          "internalType": "uint256",
          "name": "",
          "type": "uint256"
        }
      ],
      "stateMutability": "view",
      "type": "function"
    },
    {
      "inputs": [
        {
          "internalType": "uint256",
          "name": "requestId",
          "type": "uint256"
        },
        {
          "internalType": "string",
          "name": "reason",
          "type": "string"
        }
      ],
      "name": "rejectIdentityRequest",
      "outputs": [],
      "stateMutability": "nonpayable",
      "type": "function"
    },
    {
      "inputs": [],
      "name": "renounceOwnership",
      "outputs": [],
      "stateMutability": "nonpayable",
      "type": "function"
    },
    {
      "inputs": [],
      "name": "requestCount",
      "outputs": [
        {
          "internalType": "uint256",
          "name": "",
          "type": "uint256"
        }
      ],
      "stateMutability": "view",
      "type": "function"
    },
    {
      "inputs": [
        {
          "internalType": "uint256",
          "name": "",
          "type": "uint256"
        }
      ],
      "name": "requests",
      "outputs": [
        {
          "internalType": "address",
          "name": "citizen",
          "type": "address"
        },
        {
          "internalType": "uint256",
          "name": "submittedAt",
          "type": "uint256"
        },
        {
          "internalType": "uint256",
          "name": "requestId",
          "type": "uint256"
        },
        {
          "internalType": "uint8",
          "name": "docChunkCount",
          "type": "uint8"
        },
        {
          "internalType": "enum FHEIdentityRegistry.RequestStatus",
          "name": "status",
          "type": "uint8"
        },
        {
          "internalType": "string",
          "name": "rejectionReason",
          "type": "string"
        },
        {
          "internalType": "bytes32",
          "name": "commitmentHash",
          "type": "bytes32"
        }
      ],
      "stateMutability": "view",
      "type": "function"
    },
    {
      "inputs": [
        {
          "internalType": "externalEuint256[]",
          "name": "encryptedChunks",
          "type": "bytes32[]"
        },
        {
          "internalType": "bytes[]",
          "name": "inputProofs",
          "type": "bytes[]"
        },
        {
          "internalType": "externalEuint8",
          "name": "encryptedDocTypeVal",
          "type": "bytes32"
        },
        {
          "internalType": "bytes",
          "name": "docTypeProof",
          "type": "bytes"
        },
        {
          "internalType": "bytes32",
          "name": "commitmentHash",
          "type": "bytes32"
        }
      ],
      "name": "resubmitIdentityRequest",
      "outputs": [],
      "stateMutability": "nonpayable",
      "type": "function"
    },
    {
      "inputs": [
        {
          "internalType": "address",
          "name": "newCommission",
          "type": "address"
        }
      ],
      "name": "setCommission",
      "outputs": [],
      "stateMutability": "nonpayable",
      "type": "function"
    },
    {
      "inputs": [
        {
          "internalType": "address",
          "name": "_voterPass",
          "type": "address"
        }
      ],
      "name": "setVoterPassContract",
      "outputs": [],
      "stateMutability": "nonpayable",
      "type": "function"
    },
    {
      "inputs": [
        {
          "internalType": "externalEuint256[]",
          "name": "encryptedChunks",
          "type": "bytes32[]"
        },
        {
          "internalType": "bytes[]",
          "name": "inputProofs",
          "type": "bytes[]"
        },
        {
          "internalType": "externalEuint8",
          "name": "encryptedDocTypeVal",
          "type": "bytes32"
        },
        {
          "internalType": "bytes",
          "name": "docTypeProof",
          "type": "bytes"
        },
        {
          "internalType": "bytes32",
          "name": "commitmentHash",
          "type": "bytes32"
        }
      ],
      "name": "submitIdentityRequest",
      "outputs": [],
      "stateMutability": "nonpayable",
      "type": "function"
    },
    {
      "inputs": [
        {
          "internalType": "address",
          "name": "newOwner",
          "type": "address"
        }
      ],
      "name": "transferOwnership",
      "outputs": [],
      "stateMutability": "nonpayable",
      "type": "function"
    },
    {
      "inputs": [],
      "name": "voterPassContract",
      "outputs": [
        {
          "internalType": "contract VoterEligibilityPass",
          "name": "",
          "type": "address"
        }
      ],
      "stateMutability": "view",
      "type": "function"
    },
    {
      "inputs": [],
      "name": "voterRegistry",
      "outputs": [
        {
          "internalType": "contract VoterRegistry",
          "name": "",
          "type": "address"
        }
      ],
      "stateMutability": "view",
      "type": "function"
    }
  ],
  "bytecode": "0x60a06040523461047c57604051601f612e2b38819003918201601f19168301916001600160401b038311848410176102ce5780849260609460405283398101031261047c5761004d8161049f565b610065604061005e6020850161049f565b930161049f565b9161006e6104b3565b50466001036103985761007f6104b3565b50610088610480565b73ca2e8f1f656cd25c01f05d0b243ab1ecd4a8ffb6815273d82385dada1ae3e969447f20a3164f6213100e7560208201527377627828a55156b04ac0dc0eb30467f1a552bb0360408201525b80517f9e7b61f58c47dc699ac88507c4f5bb9f121c03808c5676a8078fe583e464970080546001600160a01b03199081166001600160a01b039384161790915560208301517f9e7b61f58c47dc699ac88507c4f5bb9f121c03808c5676a8078fe583e4649701805483169184169190911790556040909201517f9e7b61f58c47dc699ac88507c4f5bb9f121c03808c5676a8078fe583e4649702805490931691161790553315610385575f8054336001600160a01b0319821681178355604051949290916001600160a01b0316907f8be0079c531659141344cd1fd0a4f28419497f9722a3daafe3b4186f6b6457e09080a36001600160a01b031691821561035057506001600160a01b0316918215610316576001600160a01b03169081156102e257608052600b80546001600160a01b0319908116929092179055600c8054909116821790555f818152600d60205260409020805460ff19166001179055600e54680100000000000000008110156102ce576001810180600e558110156102ba57600e5f527fbb7b4a454dc3493923482f07822329ed19e8244eff582cc204f8554c3620c3fd0180546001600160a01b031916909117905560405161295d90816104ce823960805181818161081d01528181610a2301528181610e610152611d9c0152f35b634e487b7160e01b5f52603260045260245ffd5b634e487b7160e01b5f52604160045260245ffd5b60405162461bcd60e51b815260206004820152600c60248201526b496e76616c6964207061737360a01b6044820152606490fd5b60405162461bcd60e51b815260206004820152601260248201527124b73b30b634b21031b7b6b6b4b9b9b4b7b760711b6044820152606490fd5b62461bcd60e51b815260206004820152601060248201526f496e76616c696420726567697374727960801b6044820152606490fd5b631e4fbdf760e01b5f525f60045260245ffd5b4662aa36a703610403576103aa6104b3565b506103b3610480565b73f0ffdc93b7e186bc2f8cb3daa75d86d1930a433d81527392c920834ec8941d2c77d188936e1f7a6f49c127602082015273be0e383937d564d7ff0bc3b46c51f0bf8d5c311a60408201526100d4565b46617a690361046d576104146104b3565b5061041d610480565b7350157cffd6bbfa2dece204a89ec419c23ef5755d815273e3a9105a3a932253a70f126eb1e3b589c643dd24602082015273901f8942346f7ab3a01f6d7613119bca447bb03060408201526100d4565b6373cac13b60e01b5f5260045ffd5b5f80fd5b60405190606082016001600160401b038111838210176102ce57604052565b51906001600160a01b038216820361047c57565b6104bb610480565b905f82525f60208301525f604083015256fe6080806040526004361015610012575f80fd5b5f905f3560e01c9081630928f2db14611639575080630c99375d146115fc5780630f3ceab6146115a357806322f195b514611586578063337b3b1c1461155c578063378fc4be1461151f5780633f7a3c65146115045780635badbe4c146114e7578063605cc5f4146114cc57806360cda60f146113f85780636e204165146113ae578063715018a614611357578063784095f5146110ff57806380a1f7121461102b5780638195b47314610ff357806381d12c5814610f5a578063875bb45b14610f315780638927b03014610f0f5780638d82ecab14610d725780638da5cb5b14610d4d5780638da646cb14610c85578063968e5a0d14610c5c5780639d104f2914610c39578063ab8cbacd14610c1e578063b3c3fb281461089a578063b52952bf1461085d578063b7cece0414610841578063be60040e146107fd578063bf520b97146106f8578063c58343ef14610651578063d795ede114610633578063d97e30fa1461050e578063e1489191146104e7578063e24ddf2e146104bd578063e8bc321114610427578063f2fde38b146103a1578063f3c855b1146102f4578063f523d662146102cd578063f7821868146102b15763fb1a002a146101d6575f80fd5b346102ae57806003193601126102ae576009546101f281611c34565b91805b82811061020e576040518061020a8682611967565b0390f35b8061021a6001926117f9565b90549060031b1c835260036020526040832060056040519161023b8361185e565b6001600160a01b0381541683528481015460208401526002810154604084015261027a60ff6003830154818116606087015260081c1660808501611c97565b610286600482016119c6565b60a0840152015460c082015261029c8287611c83565b526102a78186611c83565b50016101f5565b80fd5b50346102ae57806003193601126102ae576020604051600a8152f35b50346102ae57806003193601126102ae5760206001600160a01b03600b5416604051908152f35b50346102ae5760203660031901126102ae576001600160a01b03196103176117cb565b61031f6123cf565b600c546001600160a01b0382169281846001600160a01b038194167f57b6129a9bfa54e1abab397a888a489dfa7a74f9047a478bccc140442400a1548880a31617600c55818352600d60205260ff6040842054161561037c578280f35b61039b918352600d60205260408320600160ff19825416179055611cbb565b5f808280f35b50346102ae5760203660031901126102ae576001600160a01b036103c36117cb565b6103cb6123cf565b168015610413576001600160a01b038254826001600160a01b03198216178455167f8be0079c531659141344cd1fd0a4f28419497f9722a3daafe3b4186f6b6457e08380a380f35b631e4fbdf760e01b82526004829052602482fd5b50346102ae5760403660031901126102ae5760043590602435828252600160205260408220548110156104785760408260209461046994526001855220611811565b90549060031b1c604051908152f35b60405162461bcd60e51b815260206004820152601960248201527f4368756e6b20696e646578206f7574206f6620626f756e6473000000000000006044820152606490fd5b50346102ae5760203660031901126102ae5760406020916004358152600283522054604051908152f35b50346102ae57806003193601126102ae5760206001600160a01b03600c5416604051908152f35b50346102ae5760403660031901126102ae576004356024356001600160a01b03811680820361062f576001600160a01b03600c541633148015610619575b61055590611ab2565b8352600d60205260ff604084205416156105d4578183526001602052604083209261058284541515611afe565b805b845460ff821610156105b957806105ae846105a26105b49489611811565b90549060031b1c6124bd565b50611cff565b610584565b506105d082848352600260205260408320546124e7565b5080f35b60405162461bcd60e51b815260206004820152601b60248201527f546172676574206d75737420626520636f6d6d697373696f6e657200000000006044820152606490fd5b50338452600d602052604084205460ff1661054c565b8380fd5b50346102ae57806003193601126102ae576020600854604051908152f35b50346102ae5760203660031901126102ae57604061020a91610671611bfd565b50600435815260036020522060056040519161068c8361185e565b6001600160a01b03815416835260018101546020840152600281015460408401526106cc60ff6003830154818116606087015260081c1660808501611c97565b6106d8600482016119c6565b60a0840152015460c0820152604051918291602083526020830190611901565b50346102ae5760203660031901126102ae576107126117cb565b6001600160a01b03600c5416331480156107e7575b61073090611ab2565b6001600160a01b03811690610746821515611a66565b818352600d60205260ff6040842054166107a257818352600d60205260408320805460ff1916600117905561077a90611cbb565b337f427627d5fef4fb167f1d9923e1af78123a10b318a13eb2c1fa7da1bedc4f52b08380a380f35b60405162461bcd60e51b815260206004820152601460248201527f416c726561647920636f6d6d697373696f6e65720000000000000000000000006044820152606490fd5b50338252600d602052604082205460ff16610727565b50346102ae57806003193601126102ae5760206040516001600160a01b037f0000000000000000000000000000000000000000000000000000000000000000168152f35b50346102ae57806003193601126102ae57602060405160028152f35b50346102ae5760203660031901126102ae5760ff60406020926001600160a01b036108866117cb565b168152600d84522054166040519015158152f35b5034610b12576108a9366118c0565b906001600160a01b03600c541633148015610c06575b6108c890611ab2565b825f52600360205260405f20916108ea6001600160a01b038454161515611afe565b6003830160ff815460081c166004811015610bf2576109099015611b4a565b600184015462278d008101809111610bde574211610b995761010061ff00198254161790556001600160a01b038354165f52600560205260405f2060ff1981541690556001600160a01b038354165f52600660205260405f20600160ff19825416179055835f52600760205260405f209167ffffffffffffffff8211610b855761099d826109978554611826565b85611b96565b5f90601f8311600114610b21576109cb92915f9183610b16575b50508160011b915f199060031b1c19161790565b90555b6109d7826123f5565b8054600582015460405160208101916bffffffffffffffffffffffff198460601b168352603482015242605482015260548152610a1560748261187a565b519020906001600160a01b037f00000000000000000000000000000000000000000000000000000000000000001690813b15610b125760446001600160a01b03915f80946040519687958694637e370ebb60e11b865216600485015260248401525af18015610b0757610aeb575b506001600160a01b039054169060405142815282827f35b38ae8c7024f8da7a6b231e97dc4f3a354fdb9cdeaa6ed6a47662fa5a40c3060203394a47f116dbdab03933571b9cc7f402348b5d6a63a2ac106eccd642b5457b7641ba49c6020604051428152a380f35b610af89193505f9061187a565b5f916001600160a01b03610a83565b6040513d5f823e3d90fd5b5f80fd5b013590505f806109b7565b601f19831691845f5260205f20925f5b818110610b6d5750908460019594939210610b54575b505050811b0190556109ce565b01355f19600384901b60f8161c191690555f8080610b47565b91936020600181928787013581550195019201610b31565b634e487b7160e01b5f52604160045260245ffd5b60405162461bcd60e51b815260206004820152600f60248201527f52657175657374206578706972656400000000000000000000000000000000006044820152606490fd5b634e487b7160e01b5f52601160045260245ffd5b634e487b7160e01b5f52602160045260245ffd5b50335f908152600d602052604090205460ff166108bf565b34610b12575f366003190112610b1257602060405160048152f35b34610b1257610c5a610c4a3661174d565b9695909594919493929333611d56565b005b34610b12576020366003190112610b1257600435600954811015610b12576104696020916117f9565b34610b12575f366003190112610b1257604051806020600e5492838152018092600e5f527fbb7b4a454dc3493923482f07822329ed19e8244eff582cc204f8554c3620c3fd905f5b818110610d2e5750505081610ce391038261187a565b604051918291602083019060208452518091526040830191905f5b818110610d0c575050500390f35b82516001600160a01b0316845285945060209384019390920191600101610cfe565b82546001600160a01b0316845260209093019260019283019201610ccd565b34610b12575f366003190112610b125760206001600160a01b035f5416604051908152f35b34610b12576020366003190112610b12576001600160a01b03610d936117cb565b16805f52600460205260405f2054805f52600360205260405f209060405192610dbb8461185e565b6001600160a01b038354168452600183015460208501526002830154604085015260038301549360ff85166060820152610dff60ff608083019660081c1686611c97565b60c06005610e0f600487016119c6565b9560a084019687520154910152805f52600660205260ff60405f20541692815f52600560205260ff60405f2054169460405192636d1b67ff60e11b845260048401526020836024816001600160a01b037f0000000000000000000000000000000000000000000000000000000000000000165afa928315610b07575f93610ede575b50516004811015610bf25761020a93610ecd925193604051978897151588521515602088015215156040870152606086015260808501906118f4565b60c060a084015260c083019061189c565b610f0191935060203d602011610f08575b610ef9818361187a565b810190611ca3565b9186610e91565b503d610eef565b34610b12575f366003190112610b12576020610f2961248e565b604051908152f35b34610b12576020366003190112610b1257600435600854811015610b12576104696020916117e1565b34610b12576020366003190112610b12576004355f52600360205260405f206001600160a01b03815416600182015491610fe9600282015491610fd860038201546005610fa9600485016119c6565b9301549460405197889788526020880152604087015260ff8116606087015260ff608087019160081c166118f4565b60e060a085015260e084019061189c565b9060c08301520390f35b34610b12576020366003190112610b12576001600160a01b036110146117cb565b165f526004602052602060405f2054604051908152f35b34610b12575f366003190112610b125760085461104781611c34565b905f5b81811061105f576040518061020a8582611967565b8061106b6001926117e1565b90549060031b1c5f52600360205260405f2060056040519161108c8361185e565b6001600160a01b038154168352848101546020840152600281015460408401526110cb60ff6003830154818116606087015260081c1660808501611c97565b6110d7600482016119c6565b60a0840152015460c08201526110ed8286611c83565b526110f88185611c83565b500161104a565b34610b125761110d366118c0565b916001600160a01b03600c54163314801561133f575b61112c90611ab2565b805f52600360205260405f2061114d6001600160a01b038254161515611afe565b6003810160ff815460081c166004811015610bf25761116c9015611b4a565b600a85106112fa57805461ff0019166102001790556004810167ffffffffffffffff8511610b85576111a8856111a28354611826565b83611b96565b845f601f82116001146112675791611200827faab2a338380053799409d2828e3a0946972eeff8bc65ec4ca5be78c7d731c8d995936001600160a01b03955f9161125c575b508160011b915f199060031b1c19161790565b90555b818154165f52600560205260405f2060ff198154169055611223846123f5565b54169284604051916040835281604084015260608301375f606086830101524260208201526060813396601f80199101168101030190a4005b90508801358a6111ed565b5f8381526020812092508790601f198216905b8181106112df5750917faab2a338380053799409d2828e3a0946972eeff8bc65ec4ca5be78c7d731c8d99593916001600160a01b039593106112c6575b5050600187811b019055611203565b8701355f1960038a901b60f8161c1916905587806112b7565b8884013585556001909401936020938401938a93500161127a565b60405162461bcd60e51b815260206004820152601e60248201527f526561736f6e20726571756972656420286d696e2031302063686172732900006044820152606490fd5b50335f908152600d602052604090205460ff16611123565b34610b12575f366003190112610b125761136f6123cf565b5f6001600160a01b0381546001600160a01b031981168355167f8be0079c531659141344cd1fd0a4f28419497f9722a3daafe3b4186f6b6457e08280a3005b34610b12576020366003190112610b12576001600160a01b036113cf6117cb565b6113d76123cf565b166113e3811515611a66565b6001600160a01b0319600b541617600b555f80f35b34610b12576020366003190112610b12576004355f52600760205260405f20604051905f9080549061142982611826565b80855291600181169081156114a55750600114611465575b61020a846114518186038261187a565b60405191829160208352602083019061189c565b5f90815260208120939250905b80821061148b5750909150810160200161145182611441565b919260018160209254838588010152019101909291611472565b60ff191660208087019190915292151560051b850190920192506114519150839050611441565b34610b12575f366003190112610b1257602060405160038152f35b34610b12575f366003190112610b12576020600a54604051908152f35b34610b12575f366003190112610b1257602060405160018152f35b34610b12576020366003190112610b12576001600160a01b036115406117cb565b165f526006602052602060ff60405f2054166040519015158152f35b34610b12576020366003190112610b12576004355f526001602052602060405f2054604051908152f35b34610b12575f366003190112610b1257602060405162278d008152f35b34610b12576020366003190112610b1257600435600e54811015610b1257600e548110156115e8576001600160a01b03602091600e5f52825f20015416604051908152f35b634e487b7160e01b5f52603260045260245ffd5b34610b12576020366003190112610b12576001600160a01b0361161d6117cb565b165f526005602052602060ff60405f2054166040519015158152f35b34610b12576116473661174d565b96959095949194939293335f52600460205260405f20545f52600360205260ff600360405f20015460081c166004811015610bf2576002036116a257610c5a9850335f52600560205260405f2060ff19815416905533611d56565b62461bcd60e51b8952602060048a0152602160248a01527f43616e206f6e6c792072657375626d69742061667465722072656a656374696f60448a0152603760f91b60648a0152608489fd5b9181601f84011215610b125782359167ffffffffffffffff8311610b12576020808501948460051b010111610b1257565b9181601f84011215610b125782359167ffffffffffffffff8311610b125760208381860195010111610b1257565b9060a0600319830112610b125760043567ffffffffffffffff8111610b125782611779916004016116ee565b9290929160243567ffffffffffffffff8111610b12578261179c916004016116ee565b92909291604435916064359067ffffffffffffffff8211610b12576117c39160040161171f565b909160843590565b600435906001600160a01b0382168203610b1257565b6008548110156115e85760085f5260205f2001905f90565b6009548110156115e85760095f5260205f2001905f90565b80548210156115e8575f5260205f2001905f90565b90600182811c92168015611854575b602083101461184057565b634e487b7160e01b5f52602260045260245ffd5b91607f1691611835565b60e0810190811067ffffffffffffffff821117610b8557604052565b90601f8019910116810190811067ffffffffffffffff821117610b8557604052565b805180835260209291819084018484015e5f828201840152601f01601f1916010190565b906040600319830112610b1257600435916024359067ffffffffffffffff8211610b12576118f09160040161171f565b9091565b906004821015610bf25752565b906001600160a01b038251168152602082015160208201526040820151604082015260ff6060830151166060820152611942608083015160808301906118f4565b60c08061195e60a085015160e060a086015260e085019061189c565b93015191015290565b602081016020825282518091526040820191602060408360051b8301019401925f915b83831061199957505050505090565b90919293946020806119b7600193603f198682030187528951611901565b9701930193019193929061198a565b9060405191825f8254926119d984611826565b8084529360018116908115611a445750600114611a00575b506119fe9250038361187a565b565b90505f9291925260205f20905f915b818310611a285750509060206119fe928201015f6119f1565b6020919350806001915483858901015201910190918492611a0f565b9050602092506119fe94915060ff191682840152151560051b8201015f6119f1565b15611a6d57565b60405162461bcd60e51b815260206004820152600f60248201527f496e76616c6964206164647265737300000000000000000000000000000000006044820152606490fd5b15611ab957565b60405162461bcd60e51b815260206004820152601860248201527f4f6e6c7920456c656374696f6e20436f6d6d697373696f6e00000000000000006044820152606490fd5b15611b0557565b60405162461bcd60e51b815260206004820152601160248201527f52657175657374206e6f7420666f756e640000000000000000000000000000006044820152606490fd5b15611b5157565b60405162461bcd60e51b815260206004820152600b60248201527f4e6f742070656e64696e670000000000000000000000000000000000000000006044820152606490fd5b601f8211611ba357505050565b5f5260205f20906020601f840160051c83019310611bdb575b601f0160051c01905b818110611bd0575050565b5f8155600101611bc5565b9091508190611bbc565b67ffffffffffffffff8111610b855760051b60200190565b60405190611c0a8261185e565b5f60c083828152826020820152826040820152826060820152826080820152606060a08201520152565b90611c3e82611be5565b611c4b604051918261187a565b8281528092611c5c601f1991611be5565b01905f5b828110611c6c57505050565b602090611c77611bfd565b82828501015201611c60565b80518210156115e85760209160051b010190565b6004821015610bf25752565b90816020910312610b1257518015158103610b125790565b600e5468010000000000000000811015610b8557806001611ce19201600e55600e611811565b6001600160a01b0380839493549260031b9316831b921b1916179055565b60ff1660ff8114610bde5760010190565b92919267ffffffffffffffff8211610b855760405191611d3a601f8201601f19166020018461187a565b829481845281830111610b12578281602093845f960137010152565b98919095979694969392936001600160a01b038a1691825f52600660205260ff60405f20541661238a57604051636d1b67ff60e11b8152600481018490526020816024817f00000000000000000000000000000000000000000000000000000000000000006001600160a01b03165afa908115610b07575f9161236b575b5061232657825f52600560205260ff60405f2054166122e157801561229c57600a8111612257578481036122125781156121cd57600a54985f198a14610bde5760018a01600a555f5b60ff81169083821015611f285787611fe08260051b169210156115e85781890135601e198a360301811215610b125789019182359267ffffffffffffffff8411610b1257602001928036038413610b12578f93611ebc92611e848f92611e8c943691611d10565b910135612505565b92838015611f15575b611ea0903090612764565b611eb56001600160a01b03600c5416856124bd565b50836124bd565b508b5f52600160205260405f2091825468010000000000000000811015610b8557611ef381611f10956001611f0994018155611811565b819391549060031b91821b915f19901b19161790565b9055611cff565b611e1d565b50611ea0611f2161285f565b9050611e95565b50509197509450611f7e92999350611f48611f4e929960ff973691611d10565b90612669565b918280156121ba575b611f62903090612764565b611f776001600160a01b03600c5416846124e7565b50826124e7565b50845f52600260205260405f205516604051611f998161185e565b8481526020810192428452604082019385855260608301848152608084015f815260209660405193611fcb898661187a565b5f855260a0870194855260c08701958652895f52600389526001600160a01b0360405f209751166001600160a01b031988541617875551600187015551600286015560ff6003860192511660ff19835416178255516004811015610bf257815461ff00191660089190911b61ff0016179055518051600484019167ffffffffffffffff8211610b8557612062826109978554611826565b8690601f83116001146121535791806120949260059695945f926121485750508160011b915f199060031b1c19161790565b90555b51910155835f52600482528260405f2055835f526005825260405f20600160ff1982541617905560095468010000000000000000811015610b85576120e8611ef38260018794016009556009611811565b90556008549068010000000000000000821015610b85577fc7cb5f6f7091b704604f8ffdca8b8db183c93c3082cced03be8ce5f05b834d0d9284612139611ef3856001604097016008556008611811565b905582519182524290820152a3565b015190505f806109b7565b90601f19831691845f52885f20925f5b8a8282106121a45750509160019391856005989796941061218c575b505050811b019055612097565b01515f1960f88460031b161c191690555f808061217f565b6001859682939686015181550195019301612163565b50611f626121c66128ef565b9050611f57565b60405162461bcd60e51b815260206004820152601360248201527f436f6d6d69746d656e74207265717569726564000000000000000000000000006044820152606490fd5b60405162461bcd60e51b815260206004820152600e60248201527f50726f6f66206d69736d617463680000000000000000000000000000000000006044820152606490fd5b60405162461bcd60e51b815260206004820152601260248201527f446f63756d656e7420746f6f206c6172676500000000000000000000000000006044820152606490fd5b60405162461bcd60e51b815260206004820152601060248201527f4e6f20646f63756d656e742064617461000000000000000000000000000000006044820152606490fd5b60405162461bcd60e51b815260206004820152601760248201527f5265717565737420616c72656164792070656e64696e670000000000000000006044820152606490fd5b60405162461bcd60e51b815260206004820152601860248201527f416c7265616479207265676973746572656420766f74657200000000000000006044820152606490fd5b612384915060203d602011610f0857610ef9818361187a565b5f611dd4565b60405162461bcd60e51b815260206004820152601060248201527f416c7265616479207665726966696564000000000000000000000000000000006044820152606490fd5b6001600160a01b035f541633036123e257565b63118cdaa760e01b5f523360045260245ffd5b5f5b60085480821015612489578261240c836117e1565b90549060031b1c1461242157506001016123f7565b9091505f198101908111610bde57611ef361243e61244b926117e1565b90549060031b1c926117e1565b90556008548015612475575f1901612462816117e1565b8154905f199060031b1b19169055600855565b634e487b7160e01b5f52603160045260245ffd5b505050565b4660010361249b57600190565b4662aa36a7036124ab5761271190565b617a6946146124b8575f90565b5f1990565b9081156124d2575b6124cf9082612764565b90565b90506124cf6124df61285f565b9190506124c5565b9081156124f8576124cf9082612764565b90506124cf6124df6128ef565b815190919015612631576125686001600160a01b037f9e7b61f58c47dc699ac88507c4f5bb9f121c03808c5676a8078fe583e46497015416916040519363045fc19560e11b8552600485015233602485015260806044850152608484019061189c565b602091835f8180946008606483015203925af1908115610b07575f916125ff575b506001600160a01b037f9e7b61f58c47dc699ac88507c4f5bb9f121c03808c5676a8078fe583e46497005416803b15610b1257604051630f8e573b60e21b815260048101839052336024820152905f908290818381604481015b03925af18015610b07576125f5575090565b5f6124cf9161187a565b90506020813d602011612629575b8161261a6020938361187a565b81010312610b1257515f612589565b3d915061260d565b5080156126605761264233826127df565b1561264a5790565b630276b5d960e01b5f526004523360245260445ffd5b506124cf61285f565b81519091901561274a576126cc6001600160a01b037f9e7b61f58c47dc699ac88507c4f5bb9f121c03808c5676a8078fe583e46497015416916040519363045fc19560e11b8552600485015233602485015260806044850152608484019061189c565b602091835f8180946002606483015203925af1908115610b07575f916125ff57506001600160a01b037f9e7b61f58c47dc699ac88507c4f5bb9f121c03808c5676a8078fe583e46497005416803b15610b1257604051630f8e573b60e21b815260048101839052336024820152905f908290818381604481016125e3565b50801561275b5761264233826127df565b506124cf6128ef565b6001600160a01b037f9e7b61f58c47dc699ac88507c4f5bb9f121c03808c5676a8078fe583e4649700541691823b15610b1257604051635ca4b5b160e11b815260048101929092526001600160a01b03166024820152905f908290604490829084905af18015610b07576127d55750565b5f6119fe9161187a565b7f9e7b61f58c47dc699ac88507c4f5bb9f121c03808c5676a8078fe583e4649700546040516382027b6d60e01b815260048101929092526001600160a01b039283166024830152909160209183916044918391165afa908115610b07575f91612846575090565b6124cf915060203d602011610f0857610ef9818361187a565b7f9e7b61f58c47dc699ac88507c4f5bb9f121c03808c5676a8078fe583e464970154604051639cd07acb60e01b81525f6004820152906001600160a01b0316816044815f602094600860248401525af1908115610b07575f916128c0575090565b90506020813d6020116128e7575b816128db6020938361187a565b81010312610b12575190565b3d91506128ce565b7f9e7b61f58c47dc699ac88507c4f5bb9f121c03808c5676a8078fe583e464970154604051639cd07acb60e01b81525f6004820152906001600160a01b0316816044815f602094600260248401525af1908115610b07575f916128c057509056fea164736f6c634300081b000a",
  "linkReferences": {},
  "deployedLinkReferences": {}
}