{
  "_format": "hh-sol-artifact-1",
  "contractName": "FHEIdentityRegistry",
  "sourceName": "contracts/FHEIdentityRegistry.sol",
  "abi": [
    {
      "inputs": [
        {
          "internalType": "address",
          "name": "_voterRegistry",
          "type": "address"
        },
        {
          "internalType": "address",
          "name": "_commission",
          "type": "address"
        },
        {
          "internalType": "address",
          "name": "_voterPass",
          "type": "address"
        }
      ],
      "stateMutability": "nonpayable",
      "type": "constructor"
    },
    {
      "inputs": [
        {
          "internalType": "address",
          "name": "owner",
          "type": "address"
        }
      ],
      "name": "OwnableInvalidOwner",
      "type": "error"
    },
    {
      "inputs": [
        {
          "internalType": "address",
          "name": "account",
          "type": "address"
        }
      ],
      "name": "OwnableUnauthorizedAccount",
      "type": "error"
    },
    {
      "inputs": [
        {
          "internalType": "bytes32",
          "name": "handle",
          "type": "bytes32"
        },
        {
          "internalType": "address",
          "name": "sender",
          "type": "address"
        }
      ],
      "name": "SenderNotAllowedToUseHandle",
      "type": "error"
    },
    {
      "inputs": [],
      "name": "ZamaProtocolUnsupported",
      "type": "error"
    },
    {
      "anonymous": false,
      "inputs": [
        {
          "indexed": true,
          "internalType": "address",
          "name": "oldCommission",
          "type": "address"
        },
        {
          "indexed": true,
          "internalType": "address",
          "name": "newCommission",
          "type": "address"
        }
      ],
      "name": "CommissionChanged",
      "type": "event"
    },
    {
      "anonymous": false,
      "inputs": [
        {
          "indexed": true,
          "internalType": "address",
          "name": "appointedBy",
          "type": "address"
        },
        {
          "indexed": true,
          "internalType": "address",
          "name": "newCommissioner",
          "type": "address"
        }
      ],
      "name": "CommissionerAppointed",
      "type": "event"
    },
    {
      "anonymous": false,
      "inputs": [
        {
          "indexed": true,
          "internalType": "uint256",
          "name": "requestId",
          "type": "uint256"
        },
        {
          "indexed": true,
          "internalType": "address",
          "name": "citizen",
          "type": "address"
        },
        {
          "indexed": true,
          "internalType": "address",
          "name": "approver",
          "type": "address"
        },
        {
          "indexed": false,
          "internalType": "uint256",
          "name": "timestamp",
          "type": "uint256"
        }
      ],
      "name": "IdentityRequestApproved",
      "type": "event"
    },
    {
      "anonymous": false,
      "inputs": [
        {
          "indexed": true,
          "internalType": "uint256",
          "name": "requestId",
          "type": "uint256"
        },
        {
          "indexed": true,
          "internalType": "address",
          "name": "citizen",
          "type": "address"
        },
        {
          "indexed": true,
          "internalType": "address",
          "name": "rejector",
          "type": "address"
        },
        {
          "indexed": false,
          "internalType": "string",
          "name": "reason",
          "type": "string"
        },
        {
          "indexed": false,
          "internalType": "uint256",
          "name": "timestamp",
          "type": "uint256"
        }
      ],
      "name": "IdentityRequestRejected",
      "type": "event"
    },
    {
      "anonymous": false,
      "inputs": [
        {
          "indexed": true,
          "internalType": "uint256",
          "name": "requestId",
          "type": "uint256"
        },
        {
          "indexed": true,
          "internalType": "address",
          "name": "citizen",
          "type": "address"
        },
        {
          "indexed": false,
          "internalType": "uint8",
          "name": "chunkCount",
          "type": "uint8"
        },
        {
          "indexed": false,
          "internalType": "uint256",
          "name": "timestamp",
          "type": "uint256"
        }
      ],
      "name": "IdentityRequestSubmitted",
      "type": "event"
    },
    {
      "anonymous": false,
      "inputs": [
        {
          "indexed": true,
          "internalType": "address",
          "name": "previousOwner",
          "type": "address"
        },
        {
          "indexed": true,
          "internalType": "address",
          "name": "newOwner",
          "type": "address"
        }
      ],
      "name": "OwnershipTransferred",
      "type": "event"
    },
    {
      "anonymous": false,
      "inputs": [
        {
          "indexed": true,
          "internalType": "uint256",
          "name": "requestId",
          "type": "uint256"
        },
        {
          "indexed": true,
          "internalType": "address",
          "name": "citizen",
          "type": "address"
        },
        {
          "indexed": false,
          "internalType": "uint256",
          "name": "timestamp",
          "type": "uint256"
        }
      ],
      "name": "VoterAutoRegistered",
      "type": "event"
    },
    {
      "inputs": [],
      "name": "DOC_DRIVING_LICENSE",
      "outputs": [
        {
          "internalType": "uint8",
          "name": "",
          "type": "uint8"
        }
      ],
      "stateMutability": "view",
      "type": "function"
    },
    {
      "inputs": [],
      "name": "DOC_NATIONAL_ID",
      "outputs": [
        {
          "internalType": "uint8",
          "name": "",
          "type": "uint8"
        }
      ],
      "stateMutability": "view",
      "type": "function"
    },
    {
      "inputs": [],
      "name": "DOC_PASSPORT",
      "outputs": [
        {
          "internalType": "uint8",
          "name": "",
          "type": "uint8"
        }
      ],
      "stateMutability": "view",
      "type": "function"
    },
    {
      "inputs": [],
      "name": "DOC_VOTER_CARD",
      "outputs": [
        {
          "internalType": "uint8",
          "name": "",
          "type": "uint8"
        }
      ],
      "stateMutability": "view",
      "type": "function"
    },
    {
      "inputs": [],
      "name": "MAX_DOC_CHUNKS",
      "outputs": [
        {
          "internalType": "uint256",
          "name": "",
          "type": "uint256"
        }
      ],
      "stateMutability": "view",
      "type": "function"
    },
    {
      "inputs": [],
      "name": "REQUEST_EXPIRY",
      "outputs": [
        {
          "internalType": "uint256",
          "name": "",
          "type": "uint256"
        }
      ],
      "stateMutability": "view",
      "type": "function"
    },
    {
      "inputs": [
        {
          "internalType": "uint256",
          "name": "",
          "type": "uint256"
        }
      ],
      "name": "allRequestIds",
      "outputs": [
        {
          "internalType": "uint256",
          "name": "",
          "type": "uint256"
        }
      ],
      "stateMutability": "view",
      "type": "function"
    },
    {
      "inputs": [
        {
          "internalType": "address",
          "name": "newCommissioner",
          "type": "address"
        }
      ],
      "name": "appointCommissioner",
      "outputs": [],
      "stateMutability": "nonpayable",
      "type": "function"
    },
    {
      "inputs": [
        {
          "internalType": "uint256",
          "name": "requestId",
          "type": "uint256"
        }
      ],
      "name": "approveIdentityRequest",
      "outputs": [],
      "stateMutability": "nonpayable",
      "type": "function"
    },
    {
      "inputs": [
        {
          "internalType": "address",
          "name": "",
          "type": "address"
        }
      ],
      "name": "citizenRequestId",
      "outputs": [
        {
          "internalType": "uint256",
          "name": "",
          "type": "uint256"
        }
      ],
      "stateMutability": "view",
      "type": "function"
    },
    {
      "inputs": [],
      "name": "commission",
      "outputs": [
        {
          "internalType": "address",
          "name": "",
          "type": "address"
        }
      ],
      "stateMutability": "view",
      "type": "function"
    },
    {
      "inputs": [
        {
          "internalType": "uint256",
          "name": "",
          "type": "uint256"
        }
      ],
      "name": "commissioners",
      "outputs": [
        {
          "internalType": "address",
          "name": "",
          "type": "address"
        }
      ],
      "stateMutability": "view",
      "type": "function"
    },
    {
      "inputs": [],
      "name": "confidentialProtocolId",
      "outputs": [
        {
          "internalType": "uint256",
          "name": "",
          "type": "uint256"
        }
      ],
      "stateMutability": "view",
      "type": "function"
    },
    {
      "inputs": [
        {
          "internalType": "uint256",
          "name": "requestId",
          "type": "uint256"
        },
        {
          "internalType": "address",
          "name": "targetCommissioner",
          "type": "address"
        }
      ],
      "name": "delegateRequestAccess",
      "outputs": [],
      "stateMutability": "nonpayable",
      "type": "function"
    },
    {
      "inputs": [],
      "name": "getAllRequests",
      "outputs": [
        {
          "components": [
            {
              "internalType": "address",
              "name": "citizen",
              "type": "address"
            },
            {
              "internalType": "uint256",
              "name": "submittedAt",
              "type": "uint256"
            },
            {
              "internalType": "uint256",
              "name": "requestId",
              "type": "uint256"
            },
            {
              "internalType": "uint8",
              "name": "docChunkCount",
              "type": "uint8"
            },
            {
              "internalType": "enum FHEIdentityRegistry.RequestStatus",
              "name": "status",
              "type": "uint8"
            },
            {
              "internalType": "string",
              "name": "rejectionReason",
              "type": "string"
            },
            {
              "internalType": "bytes32",
              "name": "commitmentHash",
              "type": "bytes32"
            }
          ],
          "internalType": "struct FHEIdentityRegistry.IdentityRequest[]",
          "name": "",
          "type": "tuple[]"
        }
      ],
      "stateMutability": "view",
      "type": "function"
    },
    {
      "inputs": [
        {
          "internalType": "address",
          "name": "citizen",
          "type": "address"
        }
      ],
      "name": "getCitizenStatus",
      "outputs": [
        {
          "internalType": "bool",
          "name": "isVerified",
          "type": "bool"
        },
        {
          "internalType": "bool",
          "name": "isPending",
          "type": "bool"
        },
        {
          "internalType": "bool",
          "name": "isRegistered",
          "type": "bool"
        },
        {
          "internalType": "uint256",
          "name": "requestId",
          "type": "uint256"
        },
        {
          "internalType": "enum FHEIdentityRegistry.RequestStatus",
          "name": "status",
          "type": "uint8"
        },
        {
          "internalType": "string",
          "name": "rejectionReason",
          "type": "string"
        }
      ],
      "stateMutability": "view",
      "type": "function"
    },
    {
      "inputs": [],
      "name": "getCommissioners",
      "outputs": [
        {
          "internalType": "address[]",
          "name": "",
          "type": "address[]"
        }
      ],
      "stateMutability": "view",
      "type": "function"
    },
    {
      "inputs": [
        {
          "internalType": "uint256",
          "name": "requestId",
          "type": "uint256"
        }
      ],
      "name": "getEncryptedChunkCount",
      "outputs": [
        {
          "internalType": "uint256",
          "name": "",
          "type": "uint256"
        }
      ],
      "stateMutability": "view",
      "type": "function"
    },
    {
      "inputs": [
        {
          "internalType": "uint256",
          "name": "requestId",
          "type": "uint256"
        },
        {
          "internalType": "uint256",
          "name": "chunkIndex",
          "type": "uint256"
        }
      ],
      "name": "getEncryptedDocChunk",
      "outputs": [
        {
          "internalType": "euint256",
          "name": "",
          "type": "bytes32"
        }
      ],
      "stateMutability": "view",
      "type": "function"
    },
    {
      "inputs": [
        {
          "internalType": "uint256",
          "name": "requestId",
          "type": "uint256"
        }
      ],
      "name": "getEncryptedDocType",
      "outputs": [
        {
          "internalType": "euint8",
          "name": "",
          "type": "bytes32"
        }
      ],
      "stateMutability": "view",
      "type": "function"
    },
    {
      "inputs": [],
      "name": "getPendingCount",
      "outputs": [
        {
          "internalType": "uint256",
          "name": "",
          "type": "uint256"
        }
      ],
      "stateMutability": "view",
      "type": "function"
    },
    {
      "inputs": [],
      "name": "getPendingRequests",
      "outputs": [
        {
          "components": [
            {
              "internalType": "address",
              "name": "citizen",
              "type": "address"
            },
            {
              "internalType": "uint256",
              "name": "submittedAt",
              "type": "uint256"
            },
            {
              "internalType": "uint256",
              "name": "requestId",
              "type": "uint256"
            },
            {
              "internalType": "uint8",
              "name": "docChunkCount",
              "type": "uint8"
            },
            {
              "internalType": "enum FHEIdentityRegistry.RequestStatus",
              "name": "status",
              "type": "uint8"
            },
            {
              "internalType": "string",
              "name": "rejectionReason",
              "type": "string"
            },
            {
              "internalType": "bytes32",
              "name": "commitmentHash",
              "type": "bytes32"
            }
          ],
          "internalType": "struct FHEIdentityRegistry.IdentityRequest[]",
          "name": "",
          "type": "tuple[]"
        }
      ],
      "stateMutability": "view",
      "type": "function"
    },
    {
      "inputs": [
        {
          "internalType": "uint256",
          "name": "requestId",
          "type": "uint256"
        }
      ],
      "name": "getRequest",
      "outputs": [
        {
          "components": [
            {
              "internalType": "address",
              "name": "citizen",
              "type": "address"
            },
            {
              "internalType": "uint256",
              "name": "submittedAt",
              "type": "uint256"
            },
            {
              "internalType": "uint256",
              "name": "requestId",
              "type": "uint256"
            },
            {
              "internalType": "uint8",
              "name": "docChunkCount",
              "type": "uint8"
            },
            {
              "internalType": "enum FHEIdentityRegistry.RequestStatus",
              "name": "status",
              "type": "uint8"
            },
            {
              "internalType": "string",
              "name": "rejectionReason",
              "type": "string"
            },
            {
              "internalType": "bytes32",
              "name": "commitmentHash",
              "type": "bytes32"
            }
          ],
          "internalType": "struct FHEIdentityRegistry.IdentityRequest",
          "name": "",
          "type": "tuple"
        }
      ],
      "stateMutability": "view",
      "type": "function"
    },
    {
      "inputs": [
        {
          "internalType": "address",
          "name": "",
          "type": "address"
        }
      ],
      "name": "hasPendingRequest",
      "outputs": [
        {
          "internalType": "bool",
          "name": "",
          "type": "bool"
        }
      ],
      "stateMutability": "view",
      "type": "function"
    },
    {
      "inputs": [
        {
          "internalType": "address",
          "name": "",
          "type": "address"
        }
      ],
      "name": "isCommissioner",
      "outputs": [
        {
          "internalType": "bool",
          "name": "",
          "type": "bool"
        }
      ],
      "stateMutability": "view",
      "type": "function"
    },
    {
      "inputs": [
        {
          "internalType": "address",
          "name": "",
          "type": "address"
        }
      ],
      "name": "isVerifiedCitizen",
      "outputs": [
        {
          "internalType": "bool",
          "name": "",
          "type": "bool"
        }
      ],
      "stateMutability": "view",
      "type": "function"
    },
    {
      "inputs": [],
      "name": "owner",
      "outputs": [
        {
          "internalType": "address",
          "name": "",
          "type": "address"
        }
      ],
      "stateMutability": "view",
      "type": "function"
    },
    {
      "inputs": [
        {
          "internalType": "uint256",
          "name": "",
          "type": "uint256"
        }
      ],
      "name": "pendingRequestIds",
      "outputs": [
        {
          "internalType": "uint256",
          "name": "",
          "type": "uint256"
        }
      ],
      "stateMutability": "view",
      "type": "function"
    },
    {
      "inputs": [
        {
          "internalType": "uint256",
          "name": "requestId",
          "type": "uint256"
        },
        {
          "internalType": "string",
          "name": "reason",
          "type": "string"
        }
      ],
      "name": "rejectIdentityRequest",
      "outputs": [],
      "stateMutability": "nonpayable",
      "type": "function"
    },
    {
      "inputs": [],
      "name": "renounceOwnership",
      "outputs": [],
      "stateMutability": "nonpayable",
      "type": "function"
    },
    {
      "inputs": [],
      "name": "requestCount",
      "outputs": [
        {
          "internalType": "uint256",
          "name": "",
          "type": "uint256"
        }
      ],
      "stateMutability": "view",
      "type": "function"
    },
    {
      "inputs": [
        {
          "internalType": "uint256",
          "name": "",
          "type": "uint256"
        }
      ],
      "name": "requests",
      "outputs": [
        {
          "internalType": "address",
          "name": "citizen",
          "type": "address"
        },
        {
          "internalType": "uint256",
          "name": "submittedAt",
          "type": "uint256"
        },
        {
          "internalType": "uint256",
          "name": "requestId",
          "type": "uint256"
        },
        {
          "internalType": "uint8",
          "name": "docChunkCount",
          "type": "uint8"
        },
        {
          "internalType": "enum FHEIdentityRegistry.RequestStatus",
          "name": "status",
          "type": "uint8"
        },
        {
          "internalType": "string",
          "name": "rejectionReason",
          "type": "string"
        },
        {
          "internalType": "bytes32",
          "name": "commitmentHash",
          "type": "bytes32"
        }
      ],
      "stateMutability": "view",
      "type": "function"
    },
    {
      "inputs": [
        {
          "internalType": "externalEuint256[]",
          "name": "encryptedChunks",
          "type": "bytes32[]"
        },
        {
          "internalType": "bytes[]",
          "name": "inputProofs",
          "type": "bytes[]"
        },
        {
          "internalType": "externalEuint8",
          "name": "encryptedDocTypeVal",
          "type": "bytes32"
        },
        {
          "internalType": "bytes",
          "name": "docTypeProof",
          "type": "bytes"
        },
        {
          "internalType": "bytes32",
          "name": "commitmentHash",
          "type": "bytes32"
        }
      ],
      "name": "resubmitIdentityRequest",
      "outputs": [],
      "stateMutability": "nonpayable",
      "type": "function"
    },
    {
      "inputs": [
        {
          "internalType": "address",
          "name": "newCommission",
          "type": "address"
        }
      ],
      "name": "setCommission",
      "outputs": [],
      "stateMutability": "nonpayable",
      "type": "function"
    },
    {
      "inputs": [
        {
          "internalType": "address",
          "name": "_voterPass",
          "type": "address"
        }
      ],
      "name": "setVoterPassContract",
      "outputs": [],
      "stateMutability": "nonpayable",
      "type": "function"
    },
    {
      "inputs": [
        {
          "internalType": "externalEuint256[]",
          "name": "encryptedChunks",
          "type": "bytes32[]"
        },
        {
          "internalType": "bytes[]",
          "name": "inputProofs",
          "type": "bytes[]"
        },
        {
          "internalType": "externalEuint8",
          "name": "encryptedDocTypeVal",
          "type": "bytes32"
        },
        {
          "internalType": "bytes",
          "name": "docTypeProof",
          "type": "bytes"
        },
        {
          "internalType": "bytes32",
          "name": "commitmentHash",
          "type": "bytes32"
        }
      ],
      "name": "submitIdentityRequest",
      "outputs": [],
      "stateMutability": "nonpayable",
      "type": "function"
    },
    {
      "inputs": [
        {
          "internalType": "address",
          "name": "newOwner",
          "type": "address"
        }
      ],
      "name": "transferOwnership",
      "outputs": [],
      "stateMutability": "nonpayable",
      "type": "function"
    },
    {
      "inputs": [],
      "name": "voterPassContract",
      "outputs": [
        {
          "internalType": "contract VoterEligibilityPass",
          "name": "",
          "type": "address"
        }
      ],
      "stateMutability": "view",
      "type": "function"
    },
    {
      "inputs": [],
      "name": "voterRegistry",
      "outputs": [
        {
          "internalType": "contract VoterRegistry",
          "name": "",
          "type": "address"
        }
      ],
      "stateMutability": "view",
      "type": "function"
    }
  ],
  "bytecode": "0x60a06040523461047c57604051601f612ddd38819003918201601f19168301916001600160401b038311848410176102ce5780849260609460405283398101031261047c5761004d8161049f565b610065604061005e6020850161049f565b930161049f565b9161006e6104b3565b50466001036103985761007f6104b3565b50610088610480565b73ca2e8f1f656cd25c01f05d0b243ab1ecd4a8ffb6815273d82385dada1ae3e969447f20a3164f6213100e7560208201527377627828a55156b04ac0dc0eb30467f1a552bb0360408201525b80517f9e7b61f58c47dc699ac88507c4f5bb9f121c03808c5676a8078fe583e464970080546001600160a01b03199081166001600160a01b039384161790915560208301517f9e7b61f58c47dc699ac88507c4f5bb9f121c03808c5676a8078fe583e4649701805483169184169190911790556040909201517f9e7b61f58c47dc699ac88507c4f5bb9f121c03808c5676a8078fe583e4649702805490931691161790553315610385575f8054336001600160a01b0319821681178355604051949290916001600160a01b0316907f8be0079c531659141344cd1fd0a4f28419497f9722a3daafe3b4186f6b6457e09080a36001600160a01b031691821561035057506001600160a01b0316918215610316576001600160a01b03169081156102e257608052600a80546001600160a01b0319908116929092179055600b8054909116821790555f818152600c60205260409020805460ff19166001179055600d54680100000000000000008110156102ce576001810180600d558110156102ba57600d5f527fd7b6990105719101dabeb77144f2a3385c8033acd3af97e9423a695e81ad1eb50180546001600160a01b031916909117905560405161290f90816104ce823960805181818161081201528181610adb015281816111770152611d470152f35b634e487b7160e01b5f52603260045260245ffd5b634e487b7160e01b5f52604160045260245ffd5b60405162461bcd60e51b815260206004820152600c60248201526b496e76616c6964207061737360a01b6044820152606490fd5b60405162461bcd60e51b815260206004820152601260248201527124b73b30b634b21031b7b6b6b4b9b9b4b7b760711b6044820152606490fd5b62461bcd60e51b815260206004820152601060248201526f496e76616c696420726567697374727960801b6044820152606490fd5b631e4fbdf760e01b5f525f60045260245ffd5b4662aa36a703610403576103aa6104b3565b506103b3610480565b73f0ffdc93b7e186bc2f8cb3daa75d86d1930a433d81527392c920834ec8941d2c77d188936e1f7a6f49c127602082015273be0e383937d564d7ff0bc3b46c51f0bf8d5c311a60408201526100d4565b46617a690361046d576104146104b3565b5061041d610480565b7350157cffd6bbfa2dece204a89ec419c23ef5755d815273e3a9105a3a932253a70f126eb1e3b589c643dd24602082015273901f8942346f7ab3a01f6d7613119bca447bb03060408201526100d4565b6373cac13b60e01b5f5260045ffd5b5f80fd5b60405190606082016001600160401b038111838210176102ce57604052565b51906001600160a01b038216820361047c57565b6104bb610480565b905f82525f60208301525f604083015256fe6080806040526004361015610012575f80fd5b5f905f3560e01c9081630928f2db14611602575080630c99375d146115c55780630f3ceab61461156c57806322f195b51461154f578063337b3b1c14611525578063378fc4be146114e85780633f7a3c65146114cd5780635badbe4c146114b0578063605cc5f4146114955780636e2041651461144b578063715018a6146113f457806376664ed714611049578063784095f514610da157806380a1f71214610ccc5780638195b47314610c9457806381d12c5814610bfa578063875bb45b14610bcf5780638927b03014610bac5780638d82ecab146109e95780638da5cb5b146109c35780638da646cb146108fb578063968e5a0d146108d05780639d104f29146108ab578063ab8cbacd1461088f578063b52952bf14610852578063b7cece0414610836578063be60040e146107f2578063bf520b97146106ed578063c58343ef14610646578063d795ede114610628578063d97e30fa14610503578063e1489191146104dc578063e24ddf2e146104b2578063e8bc32111461041c578063f2fde38b14610396578063f3c855b1146102e9578063f523d662146102c2578063f7821868146102a65763fb1a002a146101cb575f80fd5b346102a357806003193601126102a3576008546101e781611bdf565b91805b82811061020357604051806101ff8682611888565b0390f35b8061020f6001926117c4565b90549060031b1c83526003602052604083206005604051916102308361191f565b6001600160a01b0381541683528481015460208401526002810154604084015261026f60ff6003830154818116606087015260081c1660808501611c42565b61027b60048201611971565b60a0840152015460c08201526102918287611c2e565b5261029c8186611c2e565b50016101ea565b80fd5b50346102a357806003193601126102a3576020604051600a8152f35b50346102a357806003193601126102a35760206001600160a01b03600a5416604051908152f35b50346102a35760203660031901126102a3576001600160a01b031961030c611796565b610314612381565b600b546001600160a01b0382169281846001600160a01b038194167f57b6129a9bfa54e1abab397a888a489dfa7a74f9047a478bccc140442400a1548880a31617600b55818352600c60205260ff60408420541615610371578280f35b610390918352600c60205260408320600160ff19825416179055611c66565b5f808280f35b50346102a35760203660031901126102a3576001600160a01b036103b8611796565b6103c0612381565b168015610408576001600160a01b038254826001600160a01b03198216178455167f8be0079c531659141344cd1fd0a4f28419497f9722a3daafe3b4186f6b6457e08380a380f35b631e4fbdf760e01b82526004829052602482fd5b50346102a35760403660031901126102a357600435906024358282526001602052604082205481101561046d5760408260209461045e945260018552206117dc565b90549060031b1c604051908152f35b60405162461bcd60e51b815260206004820152601960248201527f4368756e6b20696e646578206f7574206f6620626f756e6473000000000000006044820152606490fd5b50346102a35760203660031901126102a35760406020916004358152600283522054604051908152f35b50346102a357806003193601126102a35760206001600160a01b03600b5416604051908152f35b50346102a35760403660031901126102a3576004356024356001600160a01b038116808203610624576001600160a01b03600b54163314801561060e575b61054a90611a5d565b8352600c60205260ff604084205416156105c9578183526001602052604083209261057784541515611aa9565b805b845460ff821610156105ae57806105a3846105976105a994896117dc565b90549060031b1c612440565b50611caa565b610579565b506105c5828483526002602052604083205461246a565b5080f35b60405162461bcd60e51b815260206004820152601b60248201527f546172676574206d75737420626520636f6d6d697373696f6e657200000000006044820152606490fd5b50338452600c602052604084205460ff16610541565b8380fd5b50346102a357806003193601126102a3576020600754604051908152f35b50346102a35760203660031901126102a35760406101ff91610666611ba8565b5060043581526003602052206005604051916106818361191f565b6001600160a01b03815416835260018101546020840152600281015460408401526106c160ff6003830154818116606087015260081c1660808501611c42565b6106cd60048201611971565b60a0840152015460c0820152604051918291602083526020830190611822565b50346102a35760203660031901126102a357610707611796565b6001600160a01b03600b5416331480156107dc575b61072590611a5d565b6001600160a01b0381169061073b821515611a11565b818352600c60205260ff60408420541661079757818352600c60205260408320805460ff1916600117905561076f90611c66565b337f427627d5fef4fb167f1d9923e1af78123a10b318a13eb2c1fa7da1bedc4f52b08380a380f35b60405162461bcd60e51b815260206004820152601460248201527f416c726561647920636f6d6d697373696f6e65720000000000000000000000006044820152606490fd5b50338252600c602052604082205460ff1661071c565b50346102a357806003193601126102a35760206040516001600160a01b037f0000000000000000000000000000000000000000000000000000000000000000168152f35b50346102a357806003193601126102a357602060405160028152f35b50346102a35760203660031901126102a35760ff60406020926001600160a01b0361087b611796565b168152600c84522054166040519015158152f35b50346102a357806003193601126102a357602060405160048152f35b50346102a3576108cd6108bd36611718565b9695909594919493929333611d01565b80f35b50346102a35760203660031901126102a357600435906008548210156102a357602061045e836117c4565b50346102a357806003193601126102a357604051806020600d5491828152018091600d85527fd7b6990105719101dabeb77144f2a3385c8033acd3af97e9423a695e81ad1eb590855b8181106109a4575050508261095a91038361194f565b604051928392602084019060208552518091526040840192915b818110610982575050500390f35b82516001600160a01b0316845285945060209384019390920191600101610974565b82546001600160a01b0316845260209093019260019283019201610944565b50346102a357806003193601126102a3576001600160a01b036020915416604051908152f35b50346102a35760203660031901126102a3576001600160a01b03610a0b611796565b169081815260046020526040812054918282526003602052604082209160405193610a358561191f565b6001600160a01b038454168552600184015460208601526002840154604086015260038401549460ff86166060820152610a7960ff608083019760081c1687611c42565b60c06005610a8960048801611971565b9660a084019788520154910152828252600660205260ff60408320541693838352600560205260ff6040842054169560405194636d1b67ff60e11b865260048601526020856024816001600160a01b037f0000000000000000000000000000000000000000000000000000000000000000165afa948515610ba1578495610b70575b5051926004841015610b5c575091610b4b916101ff94935193604051978897151588521515602088015215156040870152606086015260808501906117f1565b60c060a084015260c08301906117fe565b634e487b7160e01b81526021600452602490fd5b610b9391955060203d602011610b9a575b610b8b818361194f565b810190611c4e565b935f610b0b565b503d610b81565b6040513d86823e3d90fd5b50346102a357806003193601126102a3576020610bc7612488565b604051908152f35b50346102a35760203660031901126102a357600435906007548210156102a357602061045e836117ac565b50346102a35760203660031901126102a35760409060043581526003602052206001600160a01b03815416600182015491610c8a600282015491610c7960038201546005610c4a60048501611971565b9301549460405197889788526020880152604087015260ff8116606087015260ff608087019160081c166117f1565b60e060a085015260e08401906117fe565b9060c08301520390f35b50346102a35760203660031901126102a35760406020916001600160a01b03610cbb611796565b168152600483522054604051908152f35b50346102a357806003193601126102a357600754610ce981611bdf565b91805b828110610d0157604051806101ff8682611888565b80610d0d6001926117ac565b90549060031b1c8352600360205260408320600560405191610d2e8361191f565b6001600160a01b03815416835284810154602084015260028101546040840152610d6d60ff6003830154818116606087015260081c1660808501611c42565b610d7960048201611971565b60a0840152015460c0820152610d8f8287611c2e565b52610d9a8186611c2e565b5001610cec565b50346102a35760403660031901126102a35760043560243567ffffffffffffffff811161104557610dd69036906004016116ea565b916001600160a01b03600b54163314801561102f575b610df590611a5d565b808452600360205260408420610e166001600160a01b038254161515611aa9565b6003810160ff815460081c16600481101561101b57610e359015611af5565b600a8510610fd657805461ff0019166102001790556004810167ffffffffffffffff8511610fc257610e7185610e6b83546118e7565b83611b41565b8486601f8211600114610f315791610ec9827faab2a338380053799409d2828e3a0946972eeff8bc65ec4ca5be78c7d731c8d995936001600160a01b03958b91610f26575b508160011b915f199060031b1c19161790565b90555b805482168752600560205260408720805460ff19169055610eec846123a7565b541692846040519160408352816040840152606083013785606086830101524260208201526060813396601f80199101168101030190a480f35b90508801355f610eb6565b82885260208820915086601f198116895b818110610fa75750917faab2a338380053799409d2828e3a0946972eeff8bc65ec4ca5be78c7d731c8d99593916001600160a01b03959310610f8e575b5050600187811b019055610ecc565b8701355f1960038a901b60f8161c191690555f80610f7f565b8884013585556001909401936020938401938a935001610f42565b634e487b7160e01b86526041600452602486fd5b60405162461bcd60e51b815260206004820152601e60248201527f526561736f6e20726571756972656420286d696e2031302063686172732900006044820152606490fd5b634e487b7160e01b87526021600452602487fd5b50338452600c602052604084205460ff16610dec565b8280fd5b503461136b57602036600319011261136b576004356001600160a01b03600b5416331480156113dc575b61107c90611a5d565b805f52600360205260405f2061109d6001600160a01b038254161515611aa9565b6003810160ff815460081c1660048110156113c8576110bc9015611af5565b600182015462278d0081018091116113b457421161136f5761010061ff00198254161790556001600160a01b038154165f52600560205260405f2060ff1981541690556001600160a01b038154165f52600660205260405f20600160ff19825416179055611129826123a7565b80546005820190815460405160208101916bffffffffffffffffffffffff198460601b16835260348201524260548201526054815261116960748261194f565b519020906001600160a01b037f00000000000000000000000000000000000000000000000000000000000000001690813b1561136b5760446001600160a01b03915f80946040519687958694637e370ebb60e11b865216600485015260248401525af180156113605761134b575b506001600160a01b03600a54169081611254575b50506001600160a01b039054169060405142815282827f35b38ae8c7024f8da7a6b231e97dc4f3a354fdb9cdeaa6ed6a47662fa5a40c3060203394a47f116dbdab03933571b9cc7f402348b5d6a63a2ac106eccd642b5457b7641ba49c6020604051428152a380f35b8385526001602052604085208054156113375790602091865260e4828720548760031b1c918688526002845261128f60408920549584612440565b506112a56001600160a01b03600a54168661246a565b50876001600160a01b03600a54166001600160a01b0388541692546040519788968795636d6fc1eb60e01b8752600487015284602487015260448601526064850152608484015260c060a48401528160c48401525af18015610ba15761130c575b806111eb565b602090813d8311611330575b611322818361194f565b81010312611045575f611306565b503d611318565b634e487b7160e01b86526032600452602486fd5b6113589194505f9061194f565b5f925f6111d7565b6040513d5f823e3d90fd5b5f80fd5b60405162461bcd60e51b815260206004820152600f60248201527f52657175657374206578706972656400000000000000000000000000000000006044820152606490fd5b634e487b7160e01b5f52601160045260245ffd5b634e487b7160e01b5f52602160045260245ffd5b50335f908152600c602052604090205460ff16611073565b3461136b575f36600319011261136b5761140c612381565b5f6001600160a01b0381546001600160a01b031981168355167f8be0079c531659141344cd1fd0a4f28419497f9722a3daafe3b4186f6b6457e08280a3005b3461136b57602036600319011261136b576001600160a01b0361146c611796565b611474612381565b16611480811515611a11565b6001600160a01b0319600a541617600a555f80f35b3461136b575f36600319011261136b57602060405160038152f35b3461136b575f36600319011261136b576020600954604051908152f35b3461136b575f36600319011261136b57602060405160018152f35b3461136b57602036600319011261136b576001600160a01b03611509611796565b165f526006602052602060ff60405f2054166040519015158152f35b3461136b57602036600319011261136b576004355f526001602052602060405f2054604051908152f35b3461136b575f36600319011261136b57602060405162278d008152f35b3461136b57602036600319011261136b57600435600d5481101561136b57600d548110156115b1576001600160a01b03602091600d5f52825f20015416604051908152f35b634e487b7160e01b5f52603260045260245ffd5b3461136b57602036600319011261136b576001600160a01b036115e6611796565b165f526005602052602060ff60405f2054166040519015158152f35b3461136b5761161036611718565b96959095949194939293335f52600460205260405f20545f52600360205260ff600360405f20015460081c1660048110156113c85760020361166d5761166b9850335f52600560205260405f2060ff19815416905533611d01565b005b62461bcd60e51b8952602060048a0152602160248a01527f43616e206f6e6c792072657375626d69742061667465722072656a656374696f60448a0152603760f91b60648a0152608489fd5b9181601f8401121561136b5782359167ffffffffffffffff831161136b576020808501948460051b01011161136b57565b9181601f8401121561136b5782359167ffffffffffffffff831161136b576020838186019501011161136b57565b9060a060031983011261136b5760043567ffffffffffffffff811161136b5782611744916004016116b9565b9290929160243567ffffffffffffffff811161136b5782611767916004016116b9565b92909291604435916064359067ffffffffffffffff821161136b5761178e916004016116ea565b909160843590565b600435906001600160a01b038216820361136b57565b6007548110156115b15760075f5260205f2001905f90565b6008548110156115b15760085f5260205f2001905f90565b80548210156115b1575f5260205f2001905f90565b9060048210156113c85752565b805180835260209291819084018484015e5f828201840152601f01601f1916010190565b906001600160a01b038251168152602082015160208201526040820151604082015260ff6060830151166060820152611863608083015160808301906117f1565b60c08061187f60a085015160e060a086015260e08501906117fe565b93015191015290565b602081016020825282518091526040820191602060408360051b8301019401925f915b8383106118ba57505050505090565b90919293946020806118d8600193603f198682030187528951611822565b970193019301919392906118ab565b90600182811c92168015611915575b602083101461190157565b634e487b7160e01b5f52602260045260245ffd5b91607f16916118f6565b60e0810190811067ffffffffffffffff82111761193b57604052565b634e487b7160e01b5f52604160045260245ffd5b90601f8019910116810190811067ffffffffffffffff82111761193b57604052565b9060405191825f825492611984846118e7565b80845293600181169081156119ef57506001146119ab575b506119a99250038361194f565b565b90505f9291925260205f20905f915b8183106119d35750509060206119a9928201015f61199c565b60209193508060019154838589010152019101909184926119ba565b9050602092506119a994915060ff191682840152151560051b8201015f61199c565b15611a1857565b60405162461bcd60e51b815260206004820152600f60248201527f496e76616c6964206164647265737300000000000000000000000000000000006044820152606490fd5b15611a6457565b60405162461bcd60e51b815260206004820152601860248201527f4f6e6c7920456c656374696f6e20436f6d6d697373696f6e00000000000000006044820152606490fd5b15611ab057565b60405162461bcd60e51b815260206004820152601160248201527f52657175657374206e6f7420666f756e640000000000000000000000000000006044820152606490fd5b15611afc57565b60405162461bcd60e51b815260206004820152600b60248201527f4e6f742070656e64696e670000000000000000000000000000000000000000006044820152606490fd5b601f8211611b4e57505050565b5f5260205f20906020601f840160051c83019310611b86575b601f0160051c01905b818110611b7b575050565b5f8155600101611b70565b9091508190611b67565b67ffffffffffffffff811161193b5760051b60200190565b60405190611bb58261191f565b5f60c083828152826020820152826040820152826060820152826080820152606060a08201520152565b90611be982611b90565b611bf6604051918261194f565b8281528092611c07601f1991611b90565b01905f5b828110611c1757505050565b602090611c22611ba8565b82828501015201611c0b565b80518210156115b15760209160051b010190565b60048210156113c85752565b9081602091031261136b5751801515810361136b5790565b600d546801000000000000000081101561193b57806001611c8c9201600d55600d6117dc565b6001600160a01b0380839493549260031b9316831b921b1916179055565b60ff1660ff81146113b45760010190565b92919267ffffffffffffffff821161193b5760405191611ce5601f8201601f19166020018461194f565b82948184528183011161136b578281602093845f960137010152565b98919095979694969392936001600160a01b038a1691825f52600660205260ff60405f20541661233c57604051636d1b67ff60e11b8152600481018490526020816024817f00000000000000000000000000000000000000000000000000000000000000006001600160a01b03165afa908115611360575f9161231d575b506122d857825f52600560205260ff60405f20541661229357801561224e57600a8111612209578481036121c457811561217f57600954985f198a146113b45760018a016009555f5b60ff81169083821015611ed35787611fe08260051b169210156115b15781890135601e198a36030181121561136b5789019182359267ffffffffffffffff841161136b5760200192803603841361136b578f93611e6792611e2f8f92611e37943691611cbb565b9101356124b7565b92838015611ec0575b611e4b903090612716565b611e606001600160a01b03600b541685612440565b5083612440565b508b5f52600160205260405f209182546801000000000000000081101561193b57611e9e81611ebb956001611eb4940181556117dc565b819391549060031b91821b915f19901b19161790565b9055611caa565b611dc8565b50611e4b611ecc612811565b9050611e40565b50509197509450611f2992999350611ef3611ef9929960ff973691611cbb565b9061261b565b9182801561216c575b611f0d903090612716565b611f226001600160a01b03600b54168461246a565b508261246a565b50845f52600260205260405f205516604051611f448161191f565b8481526020810192428452604082019385855260608301848152608084015f815260209660405193611f76898661194f565b5f855260a0870194855260c08701958652895f52600389526001600160a01b0360405f209751166001600160a01b031988541617875551600187015551600286015560ff6003860192511660ff198354161782555160048110156113c857815461ff00191660089190911b61ff0016179055518051600484019167ffffffffffffffff821161193b576120138261200d85546118e7565b85611b41565b8690601f83116001146121055791806120469260059695945f926120fa575b50508160011b915f199060031b1c19161790565b90555b51910155835f52600482528260405f2055835f526005825260405f20600160ff198254161790556008546801000000000000000081101561193b5761209a611e9e82600187940160085560086117dc565b9055600754906801000000000000000082101561193b577fc7cb5f6f7091b704604f8ffdca8b8db183c93c3082cced03be8ce5f05b834d0d92846120eb611e9e8560016040970160075560076117dc565b905582519182524290820152a3565b015190505f80612032565b90601f19831691845f52885f20925f5b8a8282106121565750509160019391856005989796941061213e575b505050811b019055612049565b01515f1960f88460031b161c191690555f8080612131565b6001859682939686015181550195019301612115565b50611f0d6121786128a1565b9050611f02565b60405162461bcd60e51b815260206004820152601360248201527f436f6d6d69746d656e74207265717569726564000000000000000000000000006044820152606490fd5b60405162461bcd60e51b815260206004820152600e60248201527f50726f6f66206d69736d617463680000000000000000000000000000000000006044820152606490fd5b60405162461bcd60e51b815260206004820152601260248201527f446f63756d656e7420746f6f206c6172676500000000000000000000000000006044820152606490fd5b60405162461bcd60e51b815260206004820152601060248201527f4e6f20646f63756d656e742064617461000000000000000000000000000000006044820152606490fd5b60405162461bcd60e51b815260206004820152601760248201527f5265717565737420616c72656164792070656e64696e670000000000000000006044820152606490fd5b60405162461bcd60e51b815260206004820152601860248201527f416c7265616479207265676973746572656420766f74657200000000000000006044820152606490fd5b612336915060203d602011610b9a57610b8b818361194f565b5f611d7f565b60405162461bcd60e51b815260206004820152601060248201527f416c7265616479207665726966696564000000000000000000000000000000006044820152606490fd5b6001600160a01b035f5416330361239457565b63118cdaa760e01b5f523360045260245ffd5b5f5b6007548082101561243b57826123be836117ac565b90549060031b1c146123d357506001016123a9565b9091505f1981019081116113b457611e9e6123f06123fd926117ac565b90549060031b1c926117ac565b90556007548015612427575f1901612414816117ac565b8154905f199060031b1b19169055600755565b634e487b7160e01b5f52603160045260245ffd5b505050565b908115612455575b6124529082612716565b90565b9050612452612462612811565b919050612448565b90811561247b576124529082612716565b90506124526124626128a1565b4660010361249557600190565b4662aa36a7036124a55761271190565b617a6946146124b2575f90565b5f1990565b8151909190156125e35761251a6001600160a01b037f9e7b61f58c47dc699ac88507c4f5bb9f121c03808c5676a8078fe583e46497015416916040519363045fc19560e11b855260048501523360248501526080604485015260848401906117fe565b602091835f8180946008606483015203925af1908115611360575f916125b1575b506001600160a01b037f9e7b61f58c47dc699ac88507c4f5bb9f121c03808c5676a8078fe583e46497005416803b1561136b57604051630f8e573b60e21b815260048101839052336024820152905f908290818381604481015b03925af18015611360576125a7575090565b5f6124529161194f565b90506020813d6020116125db575b816125cc6020938361194f565b8101031261136b57515f61253b565b3d91506125bf565b508015612612576125f43382612791565b156125fc5790565b630276b5d960e01b5f526004523360245260445ffd5b50612452612811565b8151909190156126fc5761267e6001600160a01b037f9e7b61f58c47dc699ac88507c4f5bb9f121c03808c5676a8078fe583e46497015416916040519363045fc19560e11b855260048501523360248501526080604485015260848401906117fe565b602091835f8180946002606483015203925af1908115611360575f916125b157506001600160a01b037f9e7b61f58c47dc699ac88507c4f5bb9f121c03808c5676a8078fe583e46497005416803b1561136b57604051630f8e573b60e21b815260048101839052336024820152905f90829081838160448101612595565b50801561270d576125f43382612791565b506124526128a1565b6001600160a01b037f9e7b61f58c47dc699ac88507c4f5bb9f121c03808c5676a8078fe583e4649700541691823b1561136b57604051635ca4b5b160e11b815260048101929092526001600160a01b03166024820152905f908290604490829084905af18015611360576127875750565b5f6119a99161194f565b7f9e7b61f58c47dc699ac88507c4f5bb9f121c03808c5676a8078fe583e4649700546040516382027b6d60e01b815260048101929092526001600160a01b039283166024830152909160209183916044918391165afa908115611360575f916127f8575090565b612452915060203d602011610b9a57610b8b818361194f565b7f9e7b61f58c47dc699ac88507c4f5bb9f121c03808c5676a8078fe583e464970154604051639cd07acb60e01b81525f6004820152906001600160a01b0316816044815f602094600860248401525af1908115611360575f91612872575090565b90506020813d602011612899575b8161288d6020938361194f565b8101031261136b575190565b3d9150612880565b7f9e7b61f58c47dc699ac88507c4f5bb9f121c03808c5676a8078fe583e464970154604051639cd07acb60e01b81525f6004820152906001600160a01b0316816044815f602094600260248401525af1908115611360575f9161287257509056fea164736f6c634300081b000a",
  "linkReferences": {},
  "deployedLinkReferences": {}
}