{
  "_format": "hh-sol-artifact-1",
  "contractName": "FHEIdentityRegistry",
  "sourceName": "contracts/FHEIdentityRegistry.sol",
  "abi": [
    {
      "inputs": [
        {
          "internalType": "address",
          "name": "_voterRegistry",
          "type": "address"
        },
        {
          "internalType": "address",
          "name": "_commission",
          "type": "address"
        }
      ],
      "stateMutability": "nonpayable",
      "type": "constructor"
    },
    {
      "inputs": [
        {
          "internalType": "address",
          "name": "owner",
          "type": "address"
        }
      ],
      "name": "OwnableInvalidOwner",
      "type": "error"
    },
    {
      "inputs": [
        {
          "internalType": "address",
          "name": "account",
          "type": "address"
        }
      ],
      "name": "OwnableUnauthorizedAccount",
      "type": "error"
    },
    {
      "inputs": [
        {
          "internalType": "bytes32",
          "name": "handle",
          "type": "bytes32"
        },
        {
          "internalType": "address",
          "name": "sender",
          "type": "address"
        }
      ],
      "name": "SenderNotAllowedToUseHandle",
      "type": "error"
    },
    {
      "inputs": [],
      "name": "ZamaProtocolUnsupported",
      "type": "error"
    },
    {
      "anonymous": false,
      "inputs": [
        {
          "indexed": true,
          "internalType": "address",
          "name": "oldCommission",
          "type": "address"
        },
        {
          "indexed": true,
          "internalType": "address",
          "name": "newCommission",
          "type": "address"
        }
      ],
      "name": "CommissionChanged",
      "type": "event"
    },
    {
      "anonymous": false,
      "inputs": [
        {
          "indexed": true,
          "internalType": "address",
          "name": "appointedBy",
          "type": "address"
        },
        {
          "indexed": true,
          "internalType": "address",
          "name": "newCommissioner",
          "type": "address"
        }
      ],
      "name": "CommissionerAppointed",
      "type": "event"
    },
    {
      "anonymous": false,
      "inputs": [
        {
          "indexed": true,
          "internalType": "uint256",
          "name": "requestId",
          "type": "uint256"
        },
        {
          "indexed": true,
          "internalType": "address",
          "name": "citizen",
          "type": "address"
        },
        {
          "indexed": true,
          "internalType": "address",
          "name": "approver",
          "type": "address"
        },
        {
          "indexed": false,
          "internalType": "uint256",
          "name": "timestamp",
          "type": "uint256"
        }
      ],
      "name": "IdentityRequestApproved",
      "type": "event"
    },
    {
      "anonymous": false,
      "inputs": [
        {
          "indexed": true,
          "internalType": "uint256",
          "name": "requestId",
          "type": "uint256"
        },
        {
          "indexed": true,
          "internalType": "address",
          "name": "citizen",
          "type": "address"
        },
        {
          "indexed": true,
          "internalType": "address",
          "name": "rejector",
          "type": "address"
        },
        {
          "indexed": false,
          "internalType": "string",
          "name": "reason",
          "type": "string"
        },
        {
          "indexed": false,
          "internalType": "uint256",
          "name": "timestamp",
          "type": "uint256"
        }
      ],
      "name": "IdentityRequestRejected",
      "type": "event"
    },
    {
      "anonymous": false,
      "inputs": [
        {
          "indexed": true,
          "internalType": "uint256",
          "name": "requestId",
          "type": "uint256"
        },
        {
          "indexed": true,
          "internalType": "address",
          "name": "citizen",
          "type": "address"
        },
        {
          "indexed": false,
          "internalType": "uint8",
          "name": "chunkCount",
          "type": "uint8"
        },
        {
          "indexed": false,
          "internalType": "uint256",
          "name": "timestamp",
          "type": "uint256"
        }
      ],
      "name": "IdentityRequestSubmitted",
      "type": "event"
    },
    {
      "anonymous": false,
      "inputs": [
        {
          "indexed": true,
          "internalType": "address",
          "name": "previousOwner",
          "type": "address"
        },
        {
          "indexed": true,
          "internalType": "address",
          "name": "newOwner",
          "type": "address"
        }
      ],
      "name": "OwnershipTransferred",
      "type": "event"
    },
    {
      "anonymous": false,
      "inputs": [
        {
          "indexed": true,
          "internalType": "uint256",
          "name": "requestId",
          "type": "uint256"
        },
        {
          "indexed": true,
          "internalType": "address",
          "name": "citizen",
          "type": "address"
        },
        {
          "indexed": false,
          "internalType": "uint256",
          "name": "timestamp",
          "type": "uint256"
        }
      ],
      "name": "VoterAutoRegistered",
      "type": "event"
    },
    {
      "inputs": [],
      "name": "DOC_DRIVING_LICENSE",
      "outputs": [
        {
          "internalType": "uint8",
          "name": "",
          "type": "uint8"
        }
      ],
      "stateMutability": "view",
      "type": "function"
    },
    {
      "inputs": [],
      "name": "DOC_NATIONAL_ID",
      "outputs": [
        {
          "internalType": "uint8",
          "name": "",
          "type": "uint8"
        }
      ],
      "stateMutability": "view",
      "type": "function"
    },
    {
      "inputs": [],
      "name": "DOC_PASSPORT",
      "outputs": [
        {
          "internalType": "uint8",
          "name": "",
          "type": "uint8"
        }
      ],
      "stateMutability": "view",
      "type": "function"
    },
    {
      "inputs": [],
      "name": "DOC_VOTER_CARD",
      "outputs": [
        {
          "internalType": "uint8",
          "name": "",
          "type": "uint8"
        }
      ],
      "stateMutability": "view",
      "type": "function"
    },
    {
      "inputs": [],
      "name": "MAX_DOC_CHUNKS",
      "outputs": [
        {
          "internalType": "uint256",
          "name": "",
          "type": "uint256"
        }
      ],
      "stateMutability": "view",
      "type": "function"
    },
    {
      "inputs": [],
      "name": "REQUEST_EXPIRY",
      "outputs": [
        {
          "internalType": "uint256",
          "name": "",
          "type": "uint256"
        }
      ],
      "stateMutability": "view",
      "type": "function"
    },
    {
      "inputs": [
        {
          "internalType": "uint256",
          "name": "",
          "type": "uint256"
        }
      ],
      "name": "allRequestIds",
      "outputs": [
        {
          "internalType": "uint256",
          "name": "",
          "type": "uint256"
        }
      ],
      "stateMutability": "view",
      "type": "function"
    },
    {
      "inputs": [
        {
          "internalType": "address",
          "name": "newCommissioner",
          "type": "address"
        }
      ],
      "name": "appointCommissioner",
      "outputs": [],
      "stateMutability": "nonpayable",
      "type": "function"
    },
    {
      "inputs": [
        {
          "internalType": "uint256",
          "name": "requestId",
          "type": "uint256"
        }
      ],
      "name": "approveIdentityRequest",
      "outputs": [],
      "stateMutability": "nonpayable",
      "type": "function"
    },
    {
      "inputs": [
        {
          "internalType": "address",
          "name": "",
          "type": "address"
        }
      ],
      "name": "citizenRequestId",
      "outputs": [
        {
          "internalType": "uint256",
          "name": "",
          "type": "uint256"
        }
      ],
      "stateMutability": "view",
      "type": "function"
    },
    {
      "inputs": [],
      "name": "commission",
      "outputs": [
        {
          "internalType": "address",
          "name": "",
          "type": "address"
        }
      ],
      "stateMutability": "view",
      "type": "function"
    },
    {
      "inputs": [
        {
          "internalType": "uint256",
          "name": "",
          "type": "uint256"
        }
      ],
      "name": "commissioners",
      "outputs": [
        {
          "internalType": "address",
          "name": "",
          "type": "address"
        }
      ],
      "stateMutability": "view",
      "type": "function"
    },
    {
      "inputs": [],
      "name": "confidentialProtocolId",
      "outputs": [
        {
          "internalType": "uint256",
          "name": "",
          "type": "uint256"
        }
      ],
      "stateMutability": "view",
      "type": "function"
    },
    {
      "inputs": [
        {
          "internalType": "uint256",
          "name": "requestId",
          "type": "uint256"
        },
        {
          "internalType": "address",
          "name": "targetCommissioner",
          "type": "address"
        }
      ],
      "name": "delegateRequestAccess",
      "outputs": [],
      "stateMutability": "nonpayable",
      "type": "function"
    },
    {
      "inputs": [],
      "name": "getAllRequests",
      "outputs": [
        {
          "components": [
            {
              "internalType": "address",
              "name": "citizen",
              "type": "address"
            },
            {
              "internalType": "uint256",
              "name": "submittedAt",
              "type": "uint256"
            },
            {
              "internalType": "uint256",
              "name": "requestId",
              "type": "uint256"
            },
            {
              "internalType": "uint8",
              "name": "docChunkCount",
              "type": "uint8"
            },
            {
              "internalType": "enum FHEIdentityRegistry.RequestStatus",
              "name": "status",
              "type": "uint8"
            },
            {
              "internalType": "string",
              "name": "rejectionReason",
              "type": "string"
            },
            {
              "internalType": "bytes32",
              "name": "commitmentHash",
              "type": "bytes32"
            }
          ],
          "internalType": "struct FHEIdentityRegistry.IdentityRequest[]",
          "name": "",
          "type": "tuple[]"
        }
      ],
      "stateMutability": "view",
      "type": "function"
    },
    {
      "inputs": [
        {
          "internalType": "address",
          "name": "citizen",
          "type": "address"
        }
      ],
      "name": "getCitizenStatus",
      "outputs": [
        {
          "internalType": "bool",
          "name": "isVerified",
          "type": "bool"
        },
        {
          "internalType": "bool",
          "name": "isPending",
          "type": "bool"
        },
        {
          "internalType": "bool",
          "name": "isRegistered",
          "type": "bool"
        },
        {
          "internalType": "uint256",
          "name": "requestId",
          "type": "uint256"
        },
        {
          "internalType": "enum FHEIdentityRegistry.RequestStatus",
          "name": "status",
          "type": "uint8"
        },
        {
          "internalType": "string",
          "name": "rejectionReason",
          "type": "string"
        }
      ],
      "stateMutability": "view",
      "type": "function"
    },
    {
      "inputs": [],
      "name": "getCommissioners",
      "outputs": [
        {
          "internalType": "address[]",
          "name": "",
          "type": "address[]"
        }
      ],
      "stateMutability": "view",
      "type": "function"
    },
    {
      "inputs": [
        {
          "internalType": "uint256",
          "name": "requestId",
          "type": "uint256"
        }
      ],
      "name": "getEncryptedChunkCount",
      "outputs": [
        {
          "internalType": "uint256",
          "name": "",
          "type": "uint256"
        }
      ],
      "stateMutability": "view",
      "type": "function"
    },
    {
      "inputs": [
        {
          "internalType": "uint256",
          "name": "requestId",
          "type": "uint256"
        },
        {
          "internalType": "uint256",
          "name": "chunkIndex",
          "type": "uint256"
        }
      ],
      "name": "getEncryptedDocChunk",
      "outputs": [
        {
          "internalType": "euint256",
          "name": "",
          "type": "bytes32"
        }
      ],
      "stateMutability": "view",
      "type": "function"
    },
    {
      "inputs": [
        {
          "internalType": "uint256",
          "name": "requestId",
          "type": "uint256"
        }
      ],
      "name": "getEncryptedDocType",
      "outputs": [
        {
          "internalType": "euint8",
          "name": "",
          "type": "bytes32"
        }
      ],
      "stateMutability": "view",
      "type": "function"
    },
    {
      "inputs": [],
      "name": "getPendingCount",
      "outputs": [
        {
          "internalType": "uint256",
          "name": "",
          "type": "uint256"
        }
      ],
      "stateMutability": "view",
      "type": "function"
    },
    {
      "inputs": [],
      "name": "getPendingRequests",
      "outputs": [
        {
          "components": [
            {
              "internalType": "address",
              "name": "citizen",
              "type": "address"
            },
            {
              "internalType": "uint256",
              "name": "submittedAt",
              "type": "uint256"
            },
            {
              "internalType": "uint256",
              "name": "requestId",
              "type": "uint256"
            },
            {
              "internalType": "uint8",
              "name": "docChunkCount",
              "type": "uint8"
            },
            {
              "internalType": "enum FHEIdentityRegistry.RequestStatus",
              "name": "status",
              "type": "uint8"
            },
            {
              "internalType": "string",
              "name": "rejectionReason",
              "type": "string"
            },
            {
              "internalType": "bytes32",
              "name": "commitmentHash",
              "type": "bytes32"
            }
          ],
          "internalType": "struct FHEIdentityRegistry.IdentityRequest[]",
          "name": "",
          "type": "tuple[]"
        }
      ],
      "stateMutability": "view",
      "type": "function"
    },
    {
      "inputs": [
        {
          "internalType": "uint256",
          "name": "requestId",
          "type": "uint256"
        }
      ],
      "name": "getRequest",
      "outputs": [
        {
          "components": [
            {
              "internalType": "address",
              "name": "citizen",
              "type": "address"
            },
            {
              "internalType": "uint256",
              "name": "submittedAt",
              "type": "uint256"
            },
            {
              "internalType": "uint256",
              "name": "requestId",
              "type": "uint256"
            },
            {
              "internalType": "uint8",
              "name": "docChunkCount",
              "type": "uint8"
            },
            {
              "internalType": "enum FHEIdentityRegistry.RequestStatus",
              "name": "status",
              "type": "uint8"
            },
            {
              "internalType": "string",
              "name": "rejectionReason",
              "type": "string"
            },
            {
              "internalType": "bytes32",
              "name": "commitmentHash",
              "type": "bytes32"
            }
          ],
          "internalType": "struct FHEIdentityRegistry.IdentityRequest",
          "name": "",
          "type": "tuple"
        }
      ],
      "stateMutability": "view",
      "type": "function"
    },
    {
      "inputs": [
        {
          "internalType": "address",
          "name": "",
          "type": "address"
        }
      ],
      "name": "hasPendingRequest",
      "outputs": [
        {
          "internalType": "bool",
          "name": "",
          "type": "bool"
        }
      ],
      "stateMutability": "view",
      "type": "function"
    },
    {
      "inputs": [
        {
          "internalType": "address",
          "name": "",
          "type": "address"
        }
      ],
      "name": "isCommissioner",
      "outputs": [
        {
          "internalType": "bool",
          "name": "",
          "type": "bool"
        }
      ],
      "stateMutability": "view",
      "type": "function"
    },
    {
      "inputs": [
        {
          "internalType": "address",
          "name": "",
          "type": "address"
        }
      ],
      "name": "isVerifiedCitizen",
      "outputs": [
        {
          "internalType": "bool",
          "name": "",
          "type": "bool"
        }
      ],
      "stateMutability": "view",
      "type": "function"
    },
    {
      "inputs": [],
      "name": "owner",
      "outputs": [
        {
          "internalType": "address",
          "name": "",
          "type": "address"
        }
      ],
      "stateMutability": "view",
      "type": "function"
    },
    {
      "inputs": [
        {
          "internalType": "uint256",
          "name": "",
          "type": "uint256"
        }
      ],
      "name": "pendingRequestIds",
      "outputs": [
        {
          "internalType": "uint256",
          "name": "",
          "type": "uint256"
        }
      ],
      "stateMutability": "view",
      "type": "function"
    },
    {
      "inputs": [
        {
          "internalType": "uint256",
          "name": "requestId",
          "type": "uint256"
        },
        {
          "internalType": "string",
          "name": "reason",
          "type": "string"
        }
      ],
      "name": "rejectIdentityRequest",
      "outputs": [],
      "stateMutability": "nonpayable",
      "type": "function"
    },
    {
      "inputs": [],
      "name": "renounceOwnership",
      "outputs": [],
      "stateMutability": "nonpayable",
      "type": "function"
    },
    {
      "inputs": [],
      "name": "requestCount",
      "outputs": [
        {
          "internalType": "uint256",
          "name": "",
          "type": "uint256"
        }
      ],
      "stateMutability": "view",
      "type": "function"
    },
    {
      "inputs": [
        {
          "internalType": "uint256",
          "name": "",
          "type": "uint256"
        }
      ],
      "name": "requests",
      "outputs": [
        {
          "internalType": "address",
          "name": "citizen",
          "type": "address"
        },
        {
          "internalType": "uint256",
          "name": "submittedAt",
          "type": "uint256"
        },
        {
          "internalType": "uint256",
          "name": "requestId",
          "type": "uint256"
        },
        {
          "internalType": "uint8",
          "name": "docChunkCount",
          "type": "uint8"
        },
        {
          "internalType": "enum FHEIdentityRegistry.RequestStatus",
          "name": "status",
          "type": "uint8"
        },
        {
          "internalType": "string",
          "name": "rejectionReason",
          "type": "string"
        },
        {
          "internalType": "bytes32",
          "name": "commitmentHash",
          "type": "bytes32"
        }
      ],
      "stateMutability": "view",
      "type": "function"
    },
    {
      "inputs": [
        {
          "internalType": "externalEuint256[]",
          "name": "encryptedChunks",
          "type": "bytes32[]"
        },
        {
          "internalType": "bytes[]",
          "name": "inputProofs",
          "type": "bytes[]"
        },
        {
          "internalType": "externalEuint8",
          "name": "encryptedDocTypeVal",
          "type": "bytes32"
        },
        {
          "internalType": "bytes",
          "name": "docTypeProof",
          "type": "bytes"
        },
        {
          "internalType": "bytes32",
          "name": "commitmentHash",
          "type": "bytes32"
        }
      ],
      "name": "resubmitIdentityRequest",
      "outputs": [],
      "stateMutability": "nonpayable",
      "type": "function"
    },
    {
      "inputs": [
        {
          "internalType": "address",
          "name": "newCommission",
          "type": "address"
        }
      ],
      "name": "setCommission",
      "outputs": [],
      "stateMutability": "nonpayable",
      "type": "function"
    },
    {
      "inputs": [
        {
          "internalType": "externalEuint256[]",
          "name": "encryptedChunks",
          "type": "bytes32[]"
        },
        {
          "internalType": "bytes[]",
          "name": "inputProofs",
          "type": "bytes[]"
        },
        {
          "internalType": "externalEuint8",
          "name": "encryptedDocTypeVal",
          "type": "bytes32"
        },
        {
          "internalType": "bytes",
          "name": "docTypeProof",
          "type": "bytes"
        },
        {
          "internalType": "bytes32",
          "name": "commitmentHash",
          "type": "bytes32"
        }
      ],
      "name": "submitIdentityRequest",
      "outputs": [],
      "stateMutability": "nonpayable",
      "type": "function"
    },
    {
      "inputs": [
        {
          "internalType": "address",
          "name": "newOwner",
          "type": "address"
        }
      ],
      "name": "transferOwnership",
      "outputs": [],
      "stateMutability": "nonpayable",
      "type": "function"
    },
    {
      "inputs": [],
      "name": "voterRegistry",
      "outputs": [
        {
          "internalType": "contract VoterRegistry",
          "name": "",
          "type": "address"
        }
      ],
      "stateMutability": "view",
      "type": "function"
    }
  ],
  "bytecode": "0x60a06040523461039857604051601f612b5f38819003918201601f19168301916001600160401b0383118484101761028d578084926040948552833981010312610398576100586020610051836103bb565b92016103bb565b6100606103cf565b50466001036102b4576100716103cf565b5061007a61039c565b73ca2e8f1f656cd25c01f05d0b243ab1ecd4a8ffb6815273d82385dada1ae3e969447f20a3164f6213100e7560208201527377627828a55156b04ac0dc0eb30467f1a552bb0360408201525b80517f9e7b61f58c47dc699ac88507c4f5bb9f121c03808c5676a8078fe583e464970080546001600160a01b03199081166001600160a01b039384161790915560208301517f9e7b61f58c47dc699ac88507c4f5bb9f121c03808c5676a8078fe583e4649701805483169184169190911790556040909201517f9e7b61f58c47dc699ac88507c4f5bb9f121c03808c5676a8078fe583e46497028054909316911617905533156102a1575f8054336001600160a01b0319821681178355604051949290916001600160a01b0316907f8be0079c531659141344cd1fd0a4f28419497f9722a3daafe3b4186f6b6457e09080a36001600160a01b03908116608052600a80546001600160a01b0319169290911691821790555f818152600b60205260409020805460ff19166001179055600c546801000000000000000081101561028d576001810180600c5581101561027957600c5f527fdf6966c971051c3d54ec59162606531493a51404a002842f56009d7e5cf4a8c70180546001600160a01b031916909117905561277590816103ea823960805181818161081501528181610ade015281816111780152611bad0152f35b634e487b7160e01b5f52603260045260245ffd5b634e487b7160e01b5f52604160045260245ffd5b631e4fbdf760e01b5f525f60045260245ffd5b4662aa36a70361031f576102c66103cf565b506102cf61039c565b73f0ffdc93b7e186bc2f8cb3daa75d86d1930a433d81527392c920834ec8941d2c77d188936e1f7a6f49c127602082015273be0e383937d564d7ff0bc3b46c51f0bf8d5c311a60408201526100c6565b46617a6903610389576103306103cf565b5061033961039c565b7350157cffd6bbfa2dece204a89ec419c23ef5755d815273e3a9105a3a932253a70f126eb1e3b589c643dd24602082015273901f8942346f7ab3a01f6d7613119bca447bb03060408201526100c6565b6373cac13b60e01b5f5260045ffd5b5f80fd5b60405190606082016001600160401b0381118382101761028d57604052565b51906001600160a01b038216820361039857565b6103d761039c565b905f82525f60208301525f604083015256fe6080806040526004361015610012575f80fd5b5f905f3560e01c9081630928f2db146114b4575080630c99375d146114775780630f3ceab61461141e57806322f195b514611401578063337b3b1c146113d7578063378fc4be1461139a5780633f7a3c651461137f5780635badbe4c14611362578063605cc5f414611347578063715018a6146112f057806376664ed71461104c578063784095f514610da457806380a1f71214610ccf5780638195b47314610c9757806381d12c5814610bfd578063875bb45b14610bd25780638927b03014610baf5780638d82ecab146109ec5780638da5cb5b146109c65780638da646cb146108fe578063968e5a0d146108d35780639d104f29146108ae578063ab8cbacd14610892578063b52952bf14610855578063b7cece0414610839578063be60040e146107f5578063bf520b97146106b0578063c58343ef14610609578063d795ede1146105eb578063d97e30fa146104c6578063e14891911461049f578063e24ddf2e14610475578063e8bc3211146103df578063f2fde38b14610359578063f3c855b1146102ac578063f7821868146102905763fb1a002a146101b5575f80fd5b3461028d578060031936011261028d576008546101d181611a45565b91805b8281106101ed57604051806101e9868261173a565b0390f35b806101f9600192611676565b90549060031b1c835260036020526040832060056040519161021a836117d1565b6001600160a01b0381541683528481015460208401526002810154604084015261025960ff6003830154818116606087015260081c1660808501611aa8565b61026560048201611823565b60a0840152015460c082015261027b8287611a94565b526102868186611a94565b50016101d4565b80fd5b503461028d578060031936011261028d576020604051600a8152f35b503461028d57602036600319011261028d576001600160a01b03196102cf611648565b6102d76121e7565b600a546001600160a01b0382169281846001600160a01b038194167f57b6129a9bfa54e1abab397a888a489dfa7a74f9047a478bccc140442400a1548880a31617600a55818352600b60205260ff60408420541615610334578280f35b610353918352600b60205260408320600160ff19825416179055611acc565b5f808280f35b503461028d57602036600319011261028d576001600160a01b0361037b611648565b6103836121e7565b1680156103cb576001600160a01b038254826001600160a01b03198216178455167f8be0079c531659141344cd1fd0a4f28419497f9722a3daafe3b4186f6b6457e08380a380f35b631e4fbdf760e01b82526004829052602482fd5b503461028d57604036600319011261028d576004359060243582825260016020526040822054811015610430576040826020946104219452600185522061168e565b90549060031b1c604051908152f35b60405162461bcd60e51b815260206004820152601960248201527f4368756e6b20696e646578206f7574206f6620626f756e6473000000000000006044820152606490fd5b503461028d57602036600319011261028d5760406020916004358152600283522054604051908152f35b503461028d578060031936011261028d5760206001600160a01b03600a5416604051908152f35b503461028d57604036600319011261028d576004356024356001600160a01b0381168082036105e7576001600160a01b03600a5416331480156105d1575b61050d906118c3565b8352600b60205260ff6040842054161561058c578183526001602052604083209261053a8454151561190f565b805b845460ff8216101561057157806105668461055a61056c948961168e565b90549060031b1c6122d5565b50611b10565b61053c565b5061058882848352600260205260408320546122ff565b5080f35b60405162461bcd60e51b815260206004820152601b60248201527f546172676574206d75737420626520636f6d6d697373696f6e657200000000006044820152606490fd5b50338452600b602052604084205460ff16610504565b8380fd5b503461028d578060031936011261028d576020600754604051908152f35b503461028d57602036600319011261028d5760406101e991610629611a0e565b506004358152600360205220600560405191610644836117d1565b6001600160a01b038154168352600181015460208401526002810154604084015261068460ff6003830154818116606087015260081c1660808501611aa8565b61069060048201611823565b60a0840152015460c08201526040519182916020835260208301906116d4565b503461028d57602036600319011261028d576106ca611648565b6001600160a01b03600a5416331480156107df575b6106e8906118c3565b6001600160a01b03811690811561079a57818352600b60205260ff60408420541661075557818352600b60205260408320805460ff1916600117905561072d90611acc565b337f427627d5fef4fb167f1d9923e1af78123a10b318a13eb2c1fa7da1bedc4f52b08380a380f35b60405162461bcd60e51b815260206004820152601460248201527f416c726561647920636f6d6d697373696f6e65720000000000000000000000006044820152606490fd5b60405162461bcd60e51b815260206004820152600f60248201527f496e76616c6964206164647265737300000000000000000000000000000000006044820152606490fd5b50338252600b602052604082205460ff166106df565b503461028d578060031936011261028d5760206040516001600160a01b037f0000000000000000000000000000000000000000000000000000000000000000168152f35b503461028d578060031936011261028d57602060405160028152f35b503461028d57602036600319011261028d5760ff60406020926001600160a01b0361087e611648565b168152600b84522054166040519015158152f35b503461028d578060031936011261028d57602060405160048152f35b503461028d576108d06108c0366115ca565b9695909594919493929333611b67565b80f35b503461028d57602036600319011261028d576004359060085482101561028d57602061042183611676565b503461028d578060031936011261028d57604051806020600c5491828152018091600c85527fdf6966c971051c3d54ec59162606531493a51404a002842f56009d7e5cf4a8c790855b8181106109a7575050508261095d910383611801565b604051928392602084019060208552518091526040840192915b818110610985575050500390f35b82516001600160a01b0316845285945060209384019390920191600101610977565b82546001600160a01b0316845260209093019260019283019201610947565b503461028d578060031936011261028d576001600160a01b036020915416604051908152f35b503461028d57602036600319011261028d576001600160a01b03610a0e611648565b169081815260046020526040812054918282526003602052604082209160405193610a38856117d1565b6001600160a01b038454168552600184015460208601526002840154604086015260038401549460ff86166060820152610a7c60ff608083019760081c1687611aa8565b60c06005610a8c60048801611823565b9660a084019788520154910152828252600660205260ff60408320541693838352600560205260ff6040842054169560405194636d1b67ff60e11b865260048601526020856024816001600160a01b037f0000000000000000000000000000000000000000000000000000000000000000165afa948515610ba4578495610b73575b5051926004841015610b5f575091610b4e916101e994935193604051978897151588521515602088015215156040870152606086015260808501906116a3565b60c060a084015260c08301906116b0565b634e487b7160e01b81526021600452602490fd5b610b9691955060203d602011610b9d575b610b8e8183611801565b810190611ab4565b935f610b0e565b503d610b84565b6040513d86823e3d90fd5b503461028d578060031936011261028d576020610bca6122a6565b604051908152f35b503461028d57602036600319011261028d576004359060075482101561028d5760206104218361165e565b503461028d57602036600319011261028d5760409060043581526003602052206001600160a01b03815416600182015491610c8d600282015491610c7c60038201546005610c4d60048501611823565b9301549460405197889788526020880152604087015260ff8116606087015260ff608087019160081c166116a3565b60e060a085015260e08401906116b0565b9060c08301520390f35b503461028d57602036600319011261028d5760406020916001600160a01b03610cbe611648565b168152600483522054604051908152f35b503461028d578060031936011261028d57600754610cec81611a45565b91805b828110610d0457604051806101e9868261173a565b80610d1060019261165e565b90549060031b1c8352600360205260408320600560405191610d31836117d1565b6001600160a01b03815416835284810154602084015260028101546040840152610d7060ff6003830154818116606087015260081c1660808501611aa8565b610d7c60048201611823565b60a0840152015460c0820152610d928287611a94565b52610d9d8186611a94565b5001610cef565b503461028d57604036600319011261028d5760043560243567ffffffffffffffff811161104857610dd990369060040161159c565b916001600160a01b03600a541633148015611032575b610df8906118c3565b808452600360205260408420610e196001600160a01b03825416151561190f565b6003810160ff815460081c16600481101561101e57610e38901561195b565b600a8510610fd957805461ff0019166102001790556004810167ffffffffffffffff8511610fc557610e7485610e6e8354611799565b836119a7565b8486601f8211600114610f345791610ecc827faab2a338380053799409d2828e3a0946972eeff8bc65ec4ca5be78c7d731c8d995936001600160a01b03958b91610f29575b508160011b915f199060031b1c19161790565b90555b805482168752600560205260408720805460ff19169055610eef8461220d565b541692846040519160408352816040840152606083013785606086830101524260208201526060813396601f80199101168101030190a480f35b90508801355f610eb9565b82885260208820915086601f198116895b818110610faa5750917faab2a338380053799409d2828e3a0946972eeff8bc65ec4ca5be78c7d731c8d99593916001600160a01b03959310610f91575b5050600187811b019055610ecf565b8701355f1960038a901b60f8161c191690555f80610f82565b8884013585556001909401936020938401938a935001610f45565b634e487b7160e01b86526041600452602486fd5b60405162461bcd60e51b815260206004820152601e60248201527f526561736f6e20726571756972656420286d696e2031302063686172732900006044820152606490fd5b634e487b7160e01b87526021600452602487fd5b50338452600b602052604084205460ff16610def565b8280fd5b5034611267576020366003190112611267576004356001600160a01b03600a5416331480156112d8575b61107f906118c3565b805f52600360205260405f206110a06001600160a01b03825416151561190f565b6003810160ff815460081c1660048110156112c4576110bf901561195b565b600182015462278d0081018091116112b057421161126b5761010061ff00198254161790556001600160a01b038154165f52600560205260405f2060ff1981541690556001600160a01b038154165f52600660205260405f20600160ff1982541617905561112c8261220d565b8054600582015460405160208101916bffffffffffffffffffffffff198460601b16835260348201524260548201526054815261116a607482611801565b519020906001600160a01b037f00000000000000000000000000000000000000000000000000000000000000001690813b156112675760446001600160a01b03915f80946040519687958694637e370ebb60e11b865216600485015260248401525af1801561125c57611240575b506001600160a01b039054169060405142815282827f35b38ae8c7024f8da7a6b231e97dc4f3a354fdb9cdeaa6ed6a47662fa5a40c3060203394a47f116dbdab03933571b9cc7f402348b5d6a63a2ac106eccd642b5457b7641ba49c6020604051428152a380f35b61124d9193505f90611801565b5f916001600160a01b036111d8565b6040513d5f823e3d90fd5b5f80fd5b60405162461bcd60e51b815260206004820152600f60248201527f52657175657374206578706972656400000000000000000000000000000000006044820152606490fd5b634e487b7160e01b5f52601160045260245ffd5b634e487b7160e01b5f52602160045260245ffd5b50335f908152600b602052604090205460ff16611076565b34611267575f366003190112611267576113086121e7565b5f6001600160a01b0381546001600160a01b031981168355167f8be0079c531659141344cd1fd0a4f28419497f9722a3daafe3b4186f6b6457e08280a3005b34611267575f36600319011261126757602060405160038152f35b34611267575f366003190112611267576020600954604051908152f35b34611267575f36600319011261126757602060405160018152f35b34611267576020366003190112611267576001600160a01b036113bb611648565b165f526006602052602060ff60405f2054166040519015158152f35b34611267576020366003190112611267576004355f526001602052602060405f2054604051908152f35b34611267575f36600319011261126757602060405162278d008152f35b3461126757602036600319011261126757600435600c5481101561126757600c54811015611463576001600160a01b03602091600c5f52825f20015416604051908152f35b634e487b7160e01b5f52603260045260245ffd5b34611267576020366003190112611267576001600160a01b03611498611648565b165f526005602052602060ff60405f2054166040519015158152f35b34611267576114c2366115ca565b96959095949194939293335f52600460205260405f20545f52600360205260ff600360405f20015460081c1660048110156112c45760020361151f5761151d9850335f52600560205260405f2060ff19815416905533611b67565b005b62461bcd60e51b8952602060048a0152602160248a01527f43616e206f6e6c792072657375626d69742061667465722072656a656374696f60448a0152603760f91b60648a0152608489fd5b9181601f840112156112675782359167ffffffffffffffff8311611267576020808501948460051b01011161126757565b9181601f840112156112675782359167ffffffffffffffff8311611267576020838186019501011161126757565b9060a06003198301126112675760043567ffffffffffffffff811161126757826115f69160040161156b565b9290929160243567ffffffffffffffff811161126757826116199160040161156b565b92909291604435916064359067ffffffffffffffff8211611267576116409160040161159c565b909160843590565b600435906001600160a01b038216820361126757565b6007548110156114635760075f5260205f2001905f90565b6008548110156114635760085f5260205f2001905f90565b8054821015611463575f5260205f2001905f90565b9060048210156112c45752565b805180835260209291819084018484015e5f828201840152601f01601f1916010190565b906001600160a01b038251168152602082015160208201526040820151604082015260ff6060830151166060820152611715608083015160808301906116a3565b60c08061173160a085015160e060a086015260e08501906116b0565b93015191015290565b602081016020825282518091526040820191602060408360051b8301019401925f915b83831061176c57505050505090565b909192939460208061178a600193603f1986820301875289516116d4565b9701930193019193929061175d565b90600182811c921680156117c7575b60208310146117b357565b634e487b7160e01b5f52602260045260245ffd5b91607f16916117a8565b60e0810190811067ffffffffffffffff8211176117ed57604052565b634e487b7160e01b5f52604160045260245ffd5b90601f8019910116810190811067ffffffffffffffff8211176117ed57604052565b9060405191825f82549261183684611799565b80845293600181169081156118a1575060011461185d575b5061185b92500383611801565b565b90505f9291925260205f20905f915b81831061188557505090602061185b928201015f61184e565b602091935080600191548385890101520191019091849261186c565b90506020925061185b94915060ff191682840152151560051b8201015f61184e565b156118ca57565b60405162461bcd60e51b815260206004820152601860248201527f4f6e6c7920456c656374696f6e20436f6d6d697373696f6e00000000000000006044820152606490fd5b1561191657565b60405162461bcd60e51b815260206004820152601160248201527f52657175657374206e6f7420666f756e640000000000000000000000000000006044820152606490fd5b1561196257565b60405162461bcd60e51b815260206004820152600b60248201527f4e6f742070656e64696e670000000000000000000000000000000000000000006044820152606490fd5b601f82116119b457505050565b5f5260205f20906020601f840160051c830193106119ec575b601f0160051c01905b8181106119e1575050565b5f81556001016119d6565b90915081906119cd565b67ffffffffffffffff81116117ed5760051b60200190565b60405190611a1b826117d1565b5f60c083828152826020820152826040820152826060820152826080820152606060a08201520152565b90611a4f826119f6565b611a5c6040519182611801565b8281528092611a6d601f19916119f6565b01905f5b828110611a7d57505050565b602090611a88611a0e565b82828501015201611a71565b80518210156114635760209160051b010190565b60048210156112c45752565b90816020910312611267575180151581036112675790565b600c54680100000000000000008110156117ed57806001611af29201600c55600c61168e565b6001600160a01b0380839493549260031b9316831b921b1916179055565b60ff1660ff81146112b05760010190565b92919267ffffffffffffffff82116117ed5760405191611b4b601f8201601f191660200184611801565b829481845281830111611267578281602093845f960137010152565b98919095979694969392936001600160a01b038a1691825f52600660205260ff60405f2054166121a257604051636d1b67ff60e11b8152600481018490526020816024817f00000000000000000000000000000000000000000000000000000000000000006001600160a01b03165afa90811561125c575f91612183575b5061213e57825f52600560205260ff60405f2054166120f95780156120b457600a811161206f5784810361202a578115611fe557600954985f198a146112b05760018a016009555f5b60ff81169083821015611d395787611fe08260051b169210156114635781890135601e198a3603018112156112675789019182359267ffffffffffffffff841161126757602001928036038413611267578f93611ccd92611c958f92611c9d943691611b21565b91013561231d565b92838015611d26575b611cb190309061257c565b611cc66001600160a01b03600a5416856122d5565b50836122d5565b508b5f52600160205260405f20918254680100000000000000008110156117ed57611d0481611d21956001611d1a9401815561168e565b819391549060031b91821b915f19901b19161790565b9055611b10565b611c2e565b50611cb1611d32612677565b9050611ca6565b50509197509450611d8f92999350611d59611d5f929960ff973691611b21565b90612481565b91828015611fd2575b611d7390309061257c565b611d886001600160a01b03600a5416846122ff565b50826122ff565b50845f52600260205260405f205516604051611daa816117d1565b8481526020810192428452604082019385855260608301848152608084015f815260209660405193611ddc8986611801565b5f855260a0870194855260c08701958652895f52600389526001600160a01b0360405f209751166001600160a01b031988541617875551600187015551600286015560ff6003860192511660ff198354161782555160048110156112c457815461ff00191660089190911b61ff0016179055518051600484019167ffffffffffffffff82116117ed57611e7982611e738554611799565b856119a7565b8690601f8311600114611f6b579180611eac9260059695945f92611f60575b50508160011b915f199060031b1c19161790565b90555b51910155835f52600482528260405f2055835f526005825260405f20600160ff19825416179055600854680100000000000000008110156117ed57611f00611d04826001879401600855600861168e565b905560075490680100000000000000008210156117ed577fc7cb5f6f7091b704604f8ffdca8b8db183c93c3082cced03be8ce5f05b834d0d9284611f51611d0485600160409701600755600761168e565b905582519182524290820152a3565b015190505f80611e98565b90601f19831691845f52885f20925f5b8a828210611fbc57505091600193918560059897969410611fa4575b505050811b019055611eaf565b01515f1960f88460031b161c191690555f8080611f97565b6001859682939686015181550195019301611f7b565b50611d73611fde612707565b9050611d68565b60405162461bcd60e51b815260206004820152601360248201527f436f6d6d69746d656e74207265717569726564000000000000000000000000006044820152606490fd5b60405162461bcd60e51b815260206004820152600e60248201527f50726f6f66206d69736d617463680000000000000000000000000000000000006044820152606490fd5b60405162461bcd60e51b815260206004820152601260248201527f446f63756d656e7420746f6f206c6172676500000000000000000000000000006044820152606490fd5b60405162461bcd60e51b815260206004820152601060248201527f4e6f20646f63756d656e742064617461000000000000000000000000000000006044820152606490fd5b60405162461bcd60e51b815260206004820152601760248201527f5265717565737420616c72656164792070656e64696e670000000000000000006044820152606490fd5b60405162461bcd60e51b815260206004820152601860248201527f416c7265616479207265676973746572656420766f74657200000000000000006044820152606490fd5b61219c915060203d602011610b9d57610b8e8183611801565b5f611be5565b60405162461bcd60e51b815260206004820152601060248201527f416c7265616479207665726966696564000000000000000000000000000000006044820152606490fd5b6001600160a01b035f541633036121fa57565b63118cdaa760e01b5f523360045260245ffd5b5f5b600754808210156122a157826122248361165e565b90549060031b1c14612239575060010161220f565b9091505f1981019081116112b057611d046122566122639261165e565b90549060031b1c9261165e565b9055600754801561228d575f190161227a8161165e565b8154905f199060031b1b19169055600755565b634e487b7160e01b5f52603160045260245ffd5b505050565b466001036122b357600190565b4662aa36a7036122c35761271190565b617a6946146122d0575f90565b5f1990565b9081156122ea575b6122e7908261257c565b90565b90506122e76122f7612677565b9190506122dd565b908115612310576122e7908261257c565b90506122e76122f7612707565b815190919015612449576123806001600160a01b037f9e7b61f58c47dc699ac88507c4f5bb9f121c03808c5676a8078fe583e46497015416916040519363045fc19560e11b855260048501523360248501526080604485015260848401906116b0565b602091835f8180946008606483015203925af190811561125c575f91612417575b506001600160a01b037f9e7b61f58c47dc699ac88507c4f5bb9f121c03808c5676a8078fe583e46497005416803b1561126757604051630f8e573b60e21b815260048101839052336024820152905f908290818381604481015b03925af1801561125c5761240d575090565b5f6122e791611801565b90506020813d602011612441575b8161243260209383611801565b8101031261126757515f6123a1565b3d9150612425565b5080156124785761245a33826125f7565b156124625790565b630276b5d960e01b5f526004523360245260445ffd5b506122e7612677565b815190919015612562576124e46001600160a01b037f9e7b61f58c47dc699ac88507c4f5bb9f121c03808c5676a8078fe583e46497015416916040519363045fc19560e11b855260048501523360248501526080604485015260848401906116b0565b602091835f8180946002606483015203925af190811561125c575f9161241757506001600160a01b037f9e7b61f58c47dc699ac88507c4f5bb9f121c03808c5676a8078fe583e46497005416803b1561126757604051630f8e573b60e21b815260048101839052336024820152905f908290818381604481016123fb565b5080156125735761245a33826125f7565b506122e7612707565b6001600160a01b037f9e7b61f58c47dc699ac88507c4f5bb9f121c03808c5676a8078fe583e4649700541691823b1561126757604051635ca4b5b160e11b815260048101929092526001600160a01b03166024820152905f908290604490829084905af1801561125c576125ed5750565b5f61185b91611801565b7f9e7b61f58c47dc699ac88507c4f5bb9f121c03808c5676a8078fe583e4649700546040516382027b6d60e01b815260048101929092526001600160a01b039283166024830152909160209183916044918391165afa90811561125c575f9161265e575090565b6122e7915060203d602011610b9d57610b8e8183611801565b7f9e7b61f58c47dc699ac88507c4f5bb9f121c03808c5676a8078fe583e464970154604051639cd07acb60e01b81525f6004820152906001600160a01b0316816044815f602094600860248401525af190811561125c575f916126d8575090565b90506020813d6020116126ff575b816126f360209383611801565b81010312611267575190565b3d91506126e6565b7f9e7b61f58c47dc699ac88507c4f5bb9f121c03808c5676a8078fe583e464970154604051639cd07acb60e01b81525f6004820152906001600160a01b0316816044815f602094600260248401525af190811561125c575f916126d857509056fea164736f6c634300081b000a",
  "linkReferences": {},
  "deployedLinkReferences": {}
}