{
  "_format": "hh-sol-artifact-1",
  "contractName": "FHEIdentityRegistry",
  "sourceName": "contracts/FHEIdentityRegistry.sol",
  "abi": [
    {
      "inputs": [
        {
          "internalType": "address",
          "name": "_voterRegistry",
          "type": "address"
        },
        {
          "internalType": "address",
          "name": "_commission",
          "type": "address"
        },
        {
          "internalType": "address",
          "name": "_voterPass",
          "type": "address"
        }
      ],
      "stateMutability": "nonpayable",
      "type": "constructor"
    },
    {
      "inputs": [
        {
          "internalType": "address",
          "name": "owner",
          "type": "address"
        }
      ],
      "name": "OwnableInvalidOwner",
      "type": "error"
    },
    {
      "inputs": [
        {
          "internalType": "address",
          "name": "account",
          "type": "address"
        }
      ],
      "name": "OwnableUnauthorizedAccount",
      "type": "error"
    },
    {
      "inputs": [
        {
          "internalType": "bytes32",
          "name": "handle",
          "type": "bytes32"
        },
        {
          "internalType": "address",
          "name": "sender",
          "type": "address"
        }
      ],
      "name": "SenderNotAllowedToUseHandle",
      "type": "error"
    },
    {
      "inputs": [],
      "name": "ZamaProtocolUnsupported",
      "type": "error"
    },
    {
      "anonymous": false,
      "inputs": [
        {
          "indexed": true,
          "internalType": "address",
          "name": "oldCommission",
          "type": "address"
        },
        {
          "indexed": true,
          "internalType": "address",
          "name": "newCommission",
          "type": "address"
        }
      ],
      "name": "CommissionChanged",
      "type": "event"
    },
    {
      "anonymous": false,
      "inputs": [
        {
          "indexed": true,
          "internalType": "address",
          "name": "appointedBy",
          "type": "address"
        },
        {
          "indexed": true,
          "internalType": "address",
          "name": "newCommissioner",
          "type": "address"
        }
      ],
      "name": "CommissionerAppointed",
      "type": "event"
    },
    {
      "anonymous": false,
      "inputs": [
        {
          "indexed": true,
          "internalType": "uint256",
          "name": "requestId",
          "type": "uint256"
        },
        {
          "indexed": true,
          "internalType": "address",
          "name": "citizen",
          "type": "address"
        },
        {
          "indexed": true,
          "internalType": "address",
          "name": "approver",
          "type": "address"
        },
        {
          "indexed": false,
          "internalType": "uint256",
          "name": "timestamp",
          "type": "uint256"
        }
      ],
      "name": "IdentityRequestApproved",
      "type": "event"
    },
    {
      "anonymous": false,
      "inputs": [
        {
          "indexed": true,
          "internalType": "uint256",
          "name": "requestId",
          "type": "uint256"
        },
        {
          "indexed": true,
          "internalType": "address",
          "name": "citizen",
          "type": "address"
        },
        {
          "indexed": true,
          "internalType": "address",
          "name": "rejector",
          "type": "address"
        },
        {
          "indexed": false,
          "internalType": "string",
          "name": "reason",
          "type": "string"
        },
        {
          "indexed": false,
          "internalType": "uint256",
          "name": "timestamp",
          "type": "uint256"
        }
      ],
      "name": "IdentityRequestRejected",
      "type": "event"
    },
    {
      "anonymous": false,
      "inputs": [
        {
          "indexed": true,
          "internalType": "uint256",
          "name": "requestId",
          "type": "uint256"
        },
        {
          "indexed": true,
          "internalType": "address",
          "name": "citizen",
          "type": "address"
        },
        {
          "indexed": false,
          "internalType": "uint8",
          "name": "chunkCount",
          "type": "uint8"
        },
        {
          "indexed": false,
          "internalType": "uint256",
          "name": "timestamp",
          "type": "uint256"
        }
      ],
      "name": "IdentityRequestSubmitted",
      "type": "event"
    },
    {
      "anonymous": false,
      "inputs": [
        {
          "indexed": true,
          "internalType": "address",
          "name": "previousOwner",
          "type": "address"
        },
        {
          "indexed": true,
          "internalType": "address",
          "name": "newOwner",
          "type": "address"
        }
      ],
      "name": "OwnershipTransferred",
      "type": "event"
    },
    {
      "anonymous": false,
      "inputs": [
        {
          "indexed": true,
          "internalType": "uint256",
          "name": "requestId",
          "type": "uint256"
        },
        {
          "indexed": true,
          "internalType": "address",
          "name": "citizen",
          "type": "address"
        },
        {
          "indexed": false,
          "internalType": "uint256",
          "name": "timestamp",
          "type": "uint256"
        }
      ],
      "name": "VoterAutoRegistered",
      "type": "event"
    },
    {
      "inputs": [],
      "name": "DOC_DRIVING_LICENSE",
      "outputs": [
        {
          "internalType": "uint8",
          "name": "",
          "type": "uint8"
        }
      ],
      "stateMutability": "view",
      "type": "function"
    },
    {
      "inputs": [],
      "name": "DOC_NATIONAL_ID",
      "outputs": [
        {
          "internalType": "uint8",
          "name": "",
          "type": "uint8"
        }
      ],
      "stateMutability": "view",
      "type": "function"
    },
    {
      "inputs": [],
      "name": "DOC_PASSPORT",
      "outputs": [
        {
          "internalType": "uint8",
          "name": "",
          "type": "uint8"
        }
      ],
      "stateMutability": "view",
      "type": "function"
    },
    {
      "inputs": [],
      "name": "DOC_VOTER_CARD",
      "outputs": [
        {
          "internalType": "uint8",
          "name": "",
          "type": "uint8"
        }
      ],
      "stateMutability": "view",
      "type": "function"
    },
    {
      "inputs": [],
      "name": "MAX_DOC_CHUNKS",
      "outputs": [
        {
          "internalType": "uint256",
          "name": "",
          "type": "uint256"
        }
      ],
      "stateMutability": "view",
      "type": "function"
    },
    {
      "inputs": [],
      "name": "REQUEST_EXPIRY",
      "outputs": [
        {
          "internalType": "uint256",
          "name": "",
          "type": "uint256"
        }
      ],
      "stateMutability": "view",
      "type": "function"
    },
    {
      "inputs": [
        {
          "internalType": "uint256",
          "name": "",
          "type": "uint256"
        }
      ],
      "name": "allRequestIds",
      "outputs": [
        {
          "internalType": "uint256",
          "name": "",
          "type": "uint256"
        }
      ],
      "stateMutability": "view",
      "type": "function"
    },
    {
      "inputs": [
        {
          "internalType": "address",
          "name": "newCommissioner",
          "type": "address"
        }
      ],
      "name": "appointCommissioner",
      "outputs": [],
      "stateMutability": "nonpayable",
      "type": "function"
    },
    {
      "inputs": [
        {
          "internalType": "uint256",
          "name": "requestId",
          "type": "uint256"
        },
        {
          "internalType": "bytes",
          "name": "signature",
          "type": "bytes"
        }
      ],
      "name": "approveIdentityRequest",
      "outputs": [],
      "stateMutability": "nonpayable",
      "type": "function"
    },
    {
      "inputs": [
        {
          "internalType": "uint256",
          "name": "",
          "type": "uint256"
        }
      ],
      "name": "approvedSignatures",
      "outputs": [
        {
          "internalType": "bytes",
          "name": "",
          "type": "bytes"
        }
      ],
      "stateMutability": "view",
      "type": "function"
    },
    {
      "inputs": [
        {
          "internalType": "address",
          "name": "",
          "type": "address"
        }
      ],
      "name": "citizenRequestId",
      "outputs": [
        {
          "internalType": "uint256",
          "name": "",
          "type": "uint256"
        }
      ],
      "stateMutability": "view",
      "type": "function"
    },
    {
      "inputs": [],
      "name": "commission",
      "outputs": [
        {
          "internalType": "address",
          "name": "",
          "type": "address"
        }
      ],
      "stateMutability": "view",
      "type": "function"
    },
    {
      "inputs": [
        {
          "internalType": "uint256",
          "name": "",
          "type": "uint256"
        }
      ],
      "name": "commissioners",
      "outputs": [
        {
          "internalType": "address",
          "name": "",
          "type": "address"
        }
      ],
      "stateMutability": "view",
      "type": "function"
    },
    {
      "inputs": [],
      "name": "confidentialProtocolId",
      "outputs": [
        {
          "internalType": "uint256",
          "name": "",
          "type": "uint256"
        }
      ],
      "stateMutability": "view",
      "type": "function"
    },
    {
      "inputs": [
        {
          "internalType": "uint256",
          "name": "requestId",
          "type": "uint256"
        },
        {
          "internalType": "address",
          "name": "targetCommissioner",
          "type": "address"
        }
      ],
      "name": "delegateRequestAccess",
      "outputs": [],
      "stateMutability": "nonpayable",
      "type": "function"
    },
    {
      "inputs": [],
      "name": "getAllRequests",
      "outputs": [
        {
          "components": [
            {
              "internalType": "address",
              "name": "citizen",
              "type": "address"
            },
            {
              "internalType": "uint256",
              "name": "submittedAt",
              "type": "uint256"
            },
            {
              "internalType": "uint256",
              "name": "requestId",
              "type": "uint256"
            },
            {
              "internalType": "uint8",
              "name": "docChunkCount",
              "type": "uint8"
            },
            {
              "internalType": "enum FHEIdentityRegistry.RequestStatus",
              "name": "status",
              "type": "uint8"
            },
            {
              "internalType": "string",
              "name": "rejectionReason",
              "type": "string"
            },
            {
              "internalType": "bytes32",
              "name": "commitmentHash",
              "type": "bytes32"
            }
          ],
          "internalType": "struct FHEIdentityRegistry.IdentityRequest[]",
          "name": "",
          "type": "tuple[]"
        }
      ],
      "stateMutability": "view",
      "type": "function"
    },
    {
      "inputs": [
        {
          "internalType": "address",
          "name": "citizen",
          "type": "address"
        }
      ],
      "name": "getCitizenStatus",
      "outputs": [
        {
          "internalType": "bool",
          "name": "isVerified",
          "type": "bool"
        },
        {
          "internalType": "bool",
          "name": "isPending",
          "type": "bool"
        },
        {
          "internalType": "bool",
          "name": "isRegistered",
          "type": "bool"
        },
        {
          "internalType": "uint256",
          "name": "requestId",
          "type": "uint256"
        },
        {
          "internalType": "enum FHEIdentityRegistry.RequestStatus",
          "name": "status",
          "type": "uint8"
        },
        {
          "internalType": "string",
          "name": "rejectionReason",
          "type": "string"
        }
      ],
      "stateMutability": "view",
      "type": "function"
    },
    {
      "inputs": [],
      "name": "getCommissioners",
      "outputs": [
        {
          "internalType": "address[]",
          "name": "",
          "type": "address[]"
        }
      ],
      "stateMutability": "view",
      "type": "function"
    },
    {
      "inputs": [
        {
          "internalType": "uint256",
          "name": "requestId",
          "type": "uint256"
        }
      ],
      "name": "getEncryptedChunkCount",
      "outputs": [
        {
          "internalType": "uint256",
          "name": "",
          "type": "uint256"
        }
      ],
      "stateMutability": "view",
      "type": "function"
    },
    {
      "inputs": [
        {
          "internalType": "uint256",
          "name": "requestId",
          "type": "uint256"
        },
        {
          "internalType": "uint256",
          "name": "chunkIndex",
          "type": "uint256"
        }
      ],
      "name": "getEncryptedDocChunk",
      "outputs": [
        {
          "internalType": "euint256",
          "name": "",
          "type": "bytes32"
        }
      ],
      "stateMutability": "view",
      "type": "function"
    },
    {
      "inputs": [
        {
          "internalType": "uint256",
          "name": "requestId",
          "type": "uint256"
        }
      ],
      "name": "getEncryptedDocType",
      "outputs": [
        {
          "internalType": "euint8",
          "name": "",
          "type": "bytes32"
        }
      ],
      "stateMutability": "view",
      "type": "function"
    },
    {
      "inputs": [],
      "name": "getPendingCount",
      "outputs": [
        {
          "internalType": "uint256",
          "name": "",
          "type": "uint256"
        }
      ],
      "stateMutability": "view",
      "type": "function"
    },
    {
      "inputs": [],
      "name": "getPendingRequests",
      "outputs": [
        {
          "components": [
            {
              "internalType": "address",
              "name": "citizen",
              "type": "address"
            },
            {
              "internalType": "uint256",
              "name": "submittedAt",
              "type": "uint256"
            },
            {
              "internalType": "uint256",
              "name": "requestId",
              "type": "uint256"
            },
            {
              "internalType": "uint8",
              "name": "docChunkCount",
              "type": "uint8"
            },
            {
              "internalType": "enum FHEIdentityRegistry.RequestStatus",
              "name": "status",
              "type": "uint8"
            },
            {
              "internalType": "string",
              "name": "rejectionReason",
              "type": "string"
            },
            {
              "internalType": "bytes32",
              "name": "commitmentHash",
              "type": "bytes32"
            }
          ],
          "internalType": "struct FHEIdentityRegistry.IdentityRequest[]",
          "name": "",
          "type": "tuple[]"
        }
      ],
      "stateMutability": "view",
      "type": "function"
    },
    {
      "inputs": [
        {
          "internalType": "uint256",
          "name": "requestId",
          "type": "uint256"
        }
      ],
      "name": "getRequest",
      "outputs": [
        {
          "components": [
            {
              "internalType": "address",
              "name": "citizen",
              "type": "address"
            },
            {
              "internalType": "uint256",
              "name": "submittedAt",
              "type": "uint256"
            },
            {
              "internalType": "uint256",
              "name": "requestId",
              "type": "uint256"
            },
            {
              "internalType": "uint8",
              "name": "docChunkCount",
              "type": "uint8"
            },
            {
              "internalType": "enum FHEIdentityRegistry.RequestStatus",
              "name": "status",
              "type": "uint8"
            },
            {
              "internalType": "string",
              "name": "rejectionReason",
              "type": "string"
            },
            {
              "internalType": "bytes32",
              "name": "commitmentHash",
              "type": "bytes32"
            }
          ],
          "internalType": "struct FHEIdentityRegistry.IdentityRequest",
          "name": "",
          "type": "tuple"
        }
      ],
      "stateMutability": "view",
      "type": "function"
    },
    {
      "inputs": [
        {
          "internalType": "address",
          "name": "",
          "type": "address"
        }
      ],
      "name": "hasPendingRequest",
      "outputs": [
        {
          "internalType": "bool",
          "name": "",
          "type": "bool"
        }
      ],
      "stateMutability": "view",
      "type": "function"
    },
    {
      "inputs": [
        {
          "internalType": "address",
          "name": "",
          "type": "address"
        }
      ],
      "name": "isCommissioner",
      "outputs": [
        {
          "internalType": "bool",
          "name": "",
          "type": "bool"
        }
      ],
      "stateMutability": "view",
      "type": "function"
    },
    {
      "inputs": [
        {
          "internalType": "address",
          "name": "",
          "type": "address"
        }
      ],
      "name": "isVerifiedCitizen",
      "outputs": [
        {
          "internalType": "bool",
          "name": "",
          "type": "bool"
        }
      ],
      "stateMutability": "view",
      "type": "function"
    },
    {
      "inputs": [],
      "name": "owner",
      "outputs": [
        {
          "internalType": "address",
          "name": "",
          "type": "address"
        }
      ],
      "stateMutability": "view",
      "type": "function"
    },
    {
      "inputs": [
        {
          "internalType": "uint256",
          "name": "",
          "type": "uint256"
        }
      ],
      "name": "pendingRequestIds",
      "outputs": [
        {
          "internalType": "uint256",
          "name": "",
          "type": "uint256"
        }
      ],
      "stateMutability": "view",
      "type": "function"
    },
    {
      "inputs": [
        {
          "internalType": "uint256",
          "name": "requestId",
          "type": "uint256"
        },
        {
          "internalType": "string",
          "name": "reason",
          "type": "string"
        }
      ],
      "name": "rejectIdentityRequest",
      "outputs": [],
      "stateMutability": "nonpayable",
      "type": "function"
    },
    {
      "inputs": [],
      "name": "renounceOwnership",
      "outputs": [],
      "stateMutability": "nonpayable",
      "type": "function"
    },
    {
      "inputs": [],
      "name": "requestCount",
      "outputs": [
        {
          "internalType": "uint256",
          "name": "",
          "type": "uint256"
        }
      ],
      "stateMutability": "view",
      "type": "function"
    },
    {
      "inputs": [
        {
          "internalType": "uint256",
          "name": "",
          "type": "uint256"
        }
      ],
      "name": "requests",
      "outputs": [
        {
          "internalType": "address",
          "name": "citizen",
          "type": "address"
        },
        {
          "internalType": "uint256",
          "name": "submittedAt",
          "type": "uint256"
        },
        {
          "internalType": "uint256",
          "name": "requestId",
          "type": "uint256"
        },
        {
          "internalType": "uint8",
          "name": "docChunkCount",
          "type": "uint8"
        },
        {
          "internalType": "enum FHEIdentityRegistry.RequestStatus",
          "name": "status",
          "type": "uint8"
        },
        {
          "internalType": "string",
          "name": "rejectionReason",
          "type": "string"
        },
        {
          "internalType": "bytes32",
          "name": "commitmentHash",
          "type": "bytes32"
        }
      ],
      "stateMutability": "view",
      "type": "function"
    },
    {
      "inputs": [
        {
          "internalType": "externalEuint256[]",
          "name": "encryptedChunks",
          "type": "bytes32[]"
        },
        {
          "internalType": "bytes[]",
          "name": "inputProofs",
          "type": "bytes[]"
        },
        {
          "internalType": "externalEuint8",
          "name": "encryptedDocTypeVal",
          "type": "bytes32"
        },
        {
          "internalType": "bytes",
          "name": "docTypeProof",
          "type": "bytes"
        },
        {
          "internalType": "bytes32",
          "name": "commitmentHash",
          "type": "bytes32"
        }
      ],
      "name": "resubmitIdentityRequest",
      "outputs": [],
      "stateMutability": "nonpayable",
      "type": "function"
    },
    {
      "inputs": [
        {
          "internalType": "address",
          "name": "newCommission",
          "type": "address"
        }
      ],
      "name": "setCommission",
      "outputs": [],
      "stateMutability": "nonpayable",
      "type": "function"
    },
    {
      "inputs": [
        {
          "internalType": "address",
          "name": "_voterPass",
          "type": "address"
        }
      ],
      "name": "setVoterPassContract",
      "outputs": [],
      "stateMutability": "nonpayable",
      "type": "function"
    },
    {
      "inputs": [
        {
          "internalType": "externalEuint256[]",
          "name": "encryptedChunks",
          "type": "bytes32[]"
        },
        {
          "internalType": "bytes[]",
          "name": "inputProofs",
          "type": "bytes[]"
        },
        {
          "internalType": "externalEuint8",
          "name": "encryptedDocTypeVal",
          "type": "bytes32"
        },
        {
          "internalType": "bytes",
          "name": "docTypeProof",
          "type": "bytes"
        },
        {
          "internalType": "bytes32",
          "name": "commitmentHash",
          "type": "bytes32"
        }
      ],
      "name": "submitIdentityRequest",
      "outputs": [],
      "stateMutability": "nonpayable",
      "type": "function"
    },
    {
      "inputs": [
        {
          "internalType": "address",
          "name": "newOwner",
          "type": "address"
        }
      ],
      "name": "transferOwnership",
      "outputs": [],
      "stateMutability": "nonpayable",
      "type": "function"
    },
    {
      "inputs": [],
      "name": "voterPassContract",
      "outputs": [
        {
          "internalType": "contract VoterEligibilityPass",
          "name": "",
          "type": "address"
        }
      ],
      "stateMutability": "view",
      "type": "function"
    },
    {
      "inputs": [],
      "name": "voterRegistry",
      "outputs": [
        {
          "internalType": "contract VoterRegistry",
          "name": "",
          "type": "address"
        }
      ],
      "stateMutability": "view",
      "type": "function"
    }
  ],
  "bytecode": "0x60a06040523461043557604051601f612f5038819003918201601f19168301916001600160401b03831184841017610439578084926060946040528339810103126104355761004d8161046c565b610065604061005e6020850161046c565b930161046c565b9161006e6104fc565b50466001036103515761007f6104fc565b5061008861044d565b73ca2e8f1f656cd25c01f05d0b243ab1ecd4a8ffb6815273d82385dada1ae3e969447f20a3164f6213100e7560208201527377627828a55156b04ac0dc0eb30467f1a552bb0360408201525b80517f9e7b61f58c47dc699ac88507c4f5bb9f121c03808c5676a8078fe583e464970080546001600160a01b03199081166001600160a01b039384161790915560208301517f9e7b61f58c47dc699ac88507c4f5bb9f121c03808c5676a8078fe583e4649701805483169184169190911790556040909201517f9e7b61f58c47dc699ac88507c4f5bb9f121c03808c5676a8078fe583e464970280549093169116179055331561033e575f8054336001600160a01b0319821681178355604051949290916001600160a01b0316907f8be0079c531659141344cd1fd0a4f28419497f9722a3daafe3b4186f6b6457e09080a36001600160a01b031691821561030957506001600160a01b0381169283156102cf576001600160a01b0316801561029b5761023b9260805260018060a01b0319600b541617600b558260018060a01b0319600c541617600c55825f52600d60205260405f20600160ff19825416179055610480565b3303610276575b604051612a399081610517823960805181818161081d01528181610a2301528181611c6a01528181611d2a0152611e780152f35b335f52600d60205260405f20600160ff1982541617905561029633610480565b610242565b60405162461bcd60e51b815260206004820152600c60248201526b496e76616c6964207061737360a01b6044820152606490fd5b60405162461bcd60e51b815260206004820152601260248201527124b73b30b634b21031b7b6b6b4b9b9b4b7b760711b6044820152606490fd5b62461bcd60e51b815260206004820152601060248201526f496e76616c696420726567697374727960801b6044820152606490fd5b631e4fbdf760e01b5f525f60045260245ffd5b4662aa36a7036103bc576103636104fc565b5061036c61044d565b73f0ffdc93b7e186bc2f8cb3daa75d86d1930a433d81527392c920834ec8941d2c77d188936e1f7a6f49c127602082015273be0e383937d564d7ff0bc3b46c51f0bf8d5c311a60408201526100d4565b46617a6903610426576103cd6104fc565b506103d661044d565b7350157cffd6bbfa2dece204a89ec419c23ef5755d815273e3a9105a3a932253a70f126eb1e3b589c643dd24602082015273901f8942346f7ab3a01f6d7613119bca447bb03060408201526100d4565b6373cac13b60e01b5f5260045ffd5b5f80fd5b634e487b7160e01b5f52604160045260245ffd5b60405190606082016001600160401b0381118382101761043957604052565b51906001600160a01b038216820361043557565b600e5468010000000000000000811015610439576001810180600e558110156104e857600e5f527fbb7b4a454dc3493923482f07822329ed19e8244eff582cc204f8554c3620c3fd0180546001600160a01b0319166001600160a01b03909216919091179055565b634e487b7160e01b5f52603260045260245ffd5b61050461044d565b905f82525f60208301525f604083015256fe6080806040526004361015610012575f80fd5b5f905f3560e01c9081630928f2db14611503575080630c99375d146114c65780630f3ceab61461146d57806322f195b514611450578063337b3b1c14611426578063378fc4be146113e95780633f7a3c65146113ce5780635badbe4c146113b1578063605cc5f41461139657806360cda60f146112c25780636e20416514611278578063715018a614611221578063784095f514610fc957806380a1f71214610ef55780638195b47314610ebd57806381d12c5814610e24578063875bb45b14610dfb5780638927b03014610dd95780638d82ecab14610d725780638da5cb5b14610d4d5780638da646cb14610c85578063968e5a0d14610c5c5780639d104f2914610c39578063ab8cbacd14610c1e578063b3c3fb281461089a578063b52952bf1461085d578063b7cece0414610841578063be60040e146107fd578063bf520b97146106f8578063c58343ef14610651578063d795ede114610633578063d97e30fa1461050e578063e1489191146104e7578063e24ddf2e146104bd578063e8bc321114610427578063f2fde38b146103a1578063f3c855b1146102f4578063f523d662146102cd578063f7821868146102b15763fb1a002a146101d6575f80fd5b346102ae57806003193601126102ae576009546101f281611afe565b91805b82811061020e576040518061020a8682611831565b0390f35b8061021a6001926116c3565b90549060031b1c835260036020526040832060056040519161023b83611728565b6001600160a01b0381541683528481015460208401526002810154604084015261027a60ff6003830154818116606087015260081c1660808501611b61565b61028660048201611890565b60a0840152015460c082015261029c8287611b4d565b526102a78186611b4d565b50016101f5565b80fd5b50346102ae57806003193601126102ae576020604051600a8152f35b50346102ae57806003193601126102ae5760206001600160a01b03600b5416604051908152f35b50346102ae5760203660031901126102ae576001600160a01b0319610317611695565b61031f6124ab565b600c546001600160a01b0382169281846001600160a01b038194167f57b6129a9bfa54e1abab397a888a489dfa7a74f9047a478bccc140442400a1548880a31617600c55818352600d60205260ff6040842054161561037c578280f35b61039b918352600d60205260408320600160ff19825416179055611d97565b5f808280f35b50346102ae5760203660031901126102ae576001600160a01b036103c3611695565b6103cb6124ab565b168015610413576001600160a01b038254826001600160a01b03198216178455167f8be0079c531659141344cd1fd0a4f28419497f9722a3daafe3b4186f6b6457e08380a380f35b631e4fbdf760e01b82526004829052602482fd5b50346102ae5760403660031901126102ae57600435906024358282526001602052604082205481101561047857604082602094610469945260018552206116db565b90549060031b1c604051908152f35b60405162461bcd60e51b815260206004820152601960248201527f4368756e6b20696e646578206f7574206f6620626f756e6473000000000000006044820152606490fd5b50346102ae5760203660031901126102ae5760406020916004358152600283522054604051908152f35b50346102ae57806003193601126102ae5760206001600160a01b03600c5416604051908152f35b50346102ae5760403660031901126102ae576004356024356001600160a01b03811680820361062f576001600160a01b03600c541633148015610619575b6105559061197c565b8352600d60205260ff604084205416156105d45781835260016020526040832092610582845415156119c8565b805b845460ff821610156105b957806105ae846105a26105b494896116db565b90549060031b1c612599565b50611ddb565b610584565b506105d082848352600260205260408320546125c3565b5080f35b60405162461bcd60e51b815260206004820152601b60248201527f546172676574206d75737420626520636f6d6d697373696f6e657200000000006044820152606490fd5b50338452600d602052604084205460ff1661054c565b8380fd5b50346102ae57806003193601126102ae576020600854604051908152f35b50346102ae5760203660031901126102ae57604061020a91610671611ac7565b50600435815260036020522060056040519161068c83611728565b6001600160a01b03815416835260018101546020840152600281015460408401526106cc60ff6003830154818116606087015260081c1660808501611b61565b6106d860048201611890565b60a0840152015460c08201526040519182916020835260208301906117cb565b50346102ae5760203660031901126102ae57610712611695565b6001600160a01b03600c5416331480156107e7575b6107309061197c565b6001600160a01b03811690610746821515611930565b818352600d60205260ff6040842054166107a257818352600d60205260408320805460ff1916600117905561077a90611d97565b337f427627d5fef4fb167f1d9923e1af78123a10b318a13eb2c1fa7da1bedc4f52b08380a380f35b60405162461bcd60e51b815260206004820152601460248201527f416c726561647920636f6d6d697373696f6e65720000000000000000000000006044820152606490fd5b50338252600d602052604082205460ff16610727565b50346102ae57806003193601126102ae5760206040516001600160a01b037f0000000000000000000000000000000000000000000000000000000000000000168152f35b50346102ae57806003193601126102ae57602060405160028152f35b50346102ae5760203660031901126102ae5760ff60406020926001600160a01b03610886611695565b168152600d84522054166040519015158152f35b5034610b12576108a93661178a565b906001600160a01b03600c541633148015610c06575b6108c89061197c565b825f52600360205260405f20916108ea6001600160a01b0384541615156119c8565b6003830160ff815460081c166004811015610bf2576109099015611a14565b600184015462278d008101809111610bde574211610b995761010061ff00198254161790556001600160a01b038354165f52600560205260405f2060ff1981541690556001600160a01b038354165f52600660205260405f20600160ff19825416179055835f52600760205260405f209167ffffffffffffffff8211610b855761099d8261099785546116f0565b85611a60565b5f90601f8311600114610b21576109cb92915f9183610b16575b50508160011b915f199060031b1c19161790565b90555b6109d7826124d1565b8054600582015460405160208101916bffffffffffffffffffffffff198460601b168352603482015242605482015260548152610a15607482611744565b519020906001600160a01b037f00000000000000000000000000000000000000000000000000000000000000001690813b15610b125760446001600160a01b03915f80946040519687958694637e370ebb60e11b865216600485015260248401525af18015610b0757610aeb575b506001600160a01b039054169060405142815282827f35b38ae8c7024f8da7a6b231e97dc4f3a354fdb9cdeaa6ed6a47662fa5a40c3060203394a47f116dbdab03933571b9cc7f402348b5d6a63a2ac106eccd642b5457b7641ba49c6020604051428152a380f35b610af89193505f90611744565b5f916001600160a01b03610a83565b6040513d5f823e3d90fd5b5f80fd5b013590505f806109b7565b601f19831691845f5260205f20925f5b818110610b6d5750908460019594939210610b54575b505050811b0190556109ce565b01355f19600384901b60f8161c191690555f8080610b47565b91936020600181928787013581550195019201610b31565b634e487b7160e01b5f52604160045260245ffd5b60405162461bcd60e51b815260206004820152600f60248201527f52657175657374206578706972656400000000000000000000000000000000006044820152606490fd5b634e487b7160e01b5f52601160045260245ffd5b634e487b7160e01b5f52602160045260245ffd5b50335f908152600d602052604090205460ff166108bf565b34610b12575f366003190112610b1257602060405160048152f35b34610b1257610c5a610c4a36611617565b9695909594919493929333611e32565b005b34610b12576020366003190112610b1257600435600954811015610b12576104696020916116c3565b34610b12575f366003190112610b1257604051806020600e5492838152018092600e5f527fbb7b4a454dc3493923482f07822329ed19e8244eff582cc204f8554c3620c3fd905f5b818110610d2e5750505081610ce3910382611744565b604051918291602083019060208452518091526040830191905f5b818110610d0c575050500390f35b82516001600160a01b0316845285945060209384019390920191600101610cfe565b82546001600160a01b0316845260209093019260019283019201610ccd565b34610b12575f366003190112610b125760206001600160a01b035f5416604051908152f35b34610b12576020366003190112610b125761020a610dc8610d99610d94611695565b611b85565b9396949592604092919251978897151588521515602088015215156040870152606086015260808501906117be565b60c060a084015260c0830190611766565b34610b12575f366003190112610b12576020610df361256a565b604051908152f35b34610b12576020366003190112610b1257600435600854811015610b12576104696020916116ab565b34610b12576020366003190112610b12576004355f52600360205260405f206001600160a01b03815416600182015491610eb3600282015491610ea260038201546005610e7360048501611890565b9301549460405197889788526020880152604087015260ff8116606087015260ff608087019160081c166117be565b60e060a085015260e0840190611766565b9060c08301520390f35b34610b12576020366003190112610b12576001600160a01b03610ede611695565b165f526004602052602060405f2054604051908152f35b34610b12575f366003190112610b1257600854610f1181611afe565b905f5b818110610f29576040518061020a8582611831565b80610f356001926116ab565b90549060031b1c5f52600360205260405f20600560405191610f5683611728565b6001600160a01b03815416835284810154602084015260028101546040840152610f9560ff6003830154818116606087015260081c1660808501611b61565b610fa160048201611890565b60a0840152015460c0820152610fb78286611b4d565b52610fc28185611b4d565b5001610f14565b34610b1257610fd73661178a565b916001600160a01b03600c541633148015611209575b610ff69061197c565b805f52600360205260405f206110176001600160a01b0382541615156119c8565b6003810160ff815460081c166004811015610bf2576110369015611a14565b600a85106111c457805461ff0019166102001790556004810167ffffffffffffffff8511610b85576110728561106c83546116f0565b83611a60565b845f601f821160011461113157916110ca827faab2a338380053799409d2828e3a0946972eeff8bc65ec4ca5be78c7d731c8d995936001600160a01b03955f91611126575b508160011b915f199060031b1c19161790565b90555b818154165f52600560205260405f2060ff1981541690556110ed846124d1565b54169284604051916040835281604084015260608301375f606086830101524260208201526060813396601f80199101168101030190a4005b90508801358a6110b7565b5f8381526020812092508790601f198216905b8181106111a95750917faab2a338380053799409d2828e3a0946972eeff8bc65ec4ca5be78c7d731c8d99593916001600160a01b03959310611190575b5050600187811b0190556110cd565b8701355f1960038a901b60f8161c191690558780611181565b8884013585556001909401936020938401938a935001611144565b60405162461bcd60e51b815260206004820152601e60248201527f526561736f6e20726571756972656420286d696e2031302063686172732900006044820152606490fd5b50335f908152600d602052604090205460ff16610fed565b34610b12575f366003190112610b12576112396124ab565b5f6001600160a01b0381546001600160a01b031981168355167f8be0079c531659141344cd1fd0a4f28419497f9722a3daafe3b4186f6b6457e08280a3005b34610b12576020366003190112610b12576001600160a01b03611299611695565b6112a16124ab565b166112ad811515611930565b6001600160a01b0319600b541617600b555f80f35b34610b12576020366003190112610b12576004355f52600760205260405f20604051905f908054906112f3826116f0565b808552916001811690811561136f575060011461132f575b61020a8461131b81860382611744565b604051918291602083526020830190611766565b5f90815260208120939250905b8082106113555750909150810160200161131b8261130b565b91926001816020925483858801015201910190929161133c565b60ff191660208087019190915292151560051b8501909201925061131b915083905061130b565b34610b12575f366003190112610b1257602060405160038152f35b34610b12575f366003190112610b12576020600a54604051908152f35b34610b12575f366003190112610b1257602060405160018152f35b34610b12576020366003190112610b12576001600160a01b0361140a611695565b165f526006602052602060ff60405f2054166040519015158152f35b34610b12576020366003190112610b12576004355f526001602052602060405f2054604051908152f35b34610b12575f366003190112610b1257602060405162278d008152f35b34610b12576020366003190112610b1257600435600e54811015610b1257600e548110156114b2576001600160a01b03602091600e5f52825f20015416604051908152f35b634e487b7160e01b5f52603260045260245ffd5b34610b12576020366003190112610b12576001600160a01b036114e7611695565b165f526005602052602060ff60405f2054166040519015158152f35b34610b125761151136611617565b96959095949194939293335f52600460205260405f20545f52600360205260ff600360405f20015460081c166004811015610bf25760020361156c57610c5a9850335f52600560205260405f2060ff19815416905533611e32565b62461bcd60e51b8952602060048a0152602160248a01527f43616e206f6e6c792072657375626d69742061667465722072656a656374696f60448a0152603760f91b60648a0152608489fd5b9181601f84011215610b125782359167ffffffffffffffff8311610b12576020808501948460051b010111610b1257565b9181601f84011215610b125782359167ffffffffffffffff8311610b125760208381860195010111610b1257565b9060a0600319830112610b125760043567ffffffffffffffff8111610b125782611643916004016115b8565b9290929160243567ffffffffffffffff8111610b125782611666916004016115b8565b92909291604435916064359067ffffffffffffffff8211610b125761168d916004016115e9565b909160843590565b600435906001600160a01b0382168203610b1257565b6008548110156114b25760085f5260205f2001905f90565b6009548110156114b25760095f5260205f2001905f90565b80548210156114b2575f5260205f2001905f90565b90600182811c9216801561171e575b602083101461170a57565b634e487b7160e01b5f52602260045260245ffd5b91607f16916116ff565b60e0810190811067ffffffffffffffff821117610b8557604052565b90601f8019910116810190811067ffffffffffffffff821117610b8557604052565b805180835260209291819084018484015e5f828201840152601f01601f1916010190565b906040600319830112610b1257600435916024359067ffffffffffffffff8211610b12576117ba916004016115e9565b9091565b906004821015610bf25752565b906001600160a01b038251168152602082015160208201526040820151604082015260ff606083015116606082015261180c608083015160808301906117be565b60c08061182860a085015160e060a086015260e0850190611766565b93015191015290565b602081016020825282518091526040820191602060408360051b8301019401925f915b83831061186357505050505090565b9091929394602080611881600193603f1986820301875289516117cb565b97019301930191939290611854565b9060405191825f8254926118a3846116f0565b808452936001811690811561190e57506001146118ca575b506118c892500383611744565b565b90505f9291925260205f20905f915b8183106118f25750509060206118c8928201015f6118bb565b60209193508060019154838589010152019101909184926118d9565b9050602092506118c894915060ff191682840152151560051b8201015f6118bb565b1561193757565b60405162461bcd60e51b815260206004820152600f60248201527f496e76616c6964206164647265737300000000000000000000000000000000006044820152606490fd5b1561198357565b60405162461bcd60e51b815260206004820152601860248201527f4f6e6c7920456c656374696f6e20436f6d6d697373696f6e00000000000000006044820152606490fd5b156119cf57565b60405162461bcd60e51b815260206004820152601160248201527f52657175657374206e6f7420666f756e640000000000000000000000000000006044820152606490fd5b15611a1b57565b60405162461bcd60e51b815260206004820152600b60248201527f4e6f742070656e64696e670000000000000000000000000000000000000000006044820152606490fd5b601f8211611a6d57505050565b5f5260205f20906020601f840160051c83019310611aa5575b601f0160051c01905b818110611a9a575050565b5f8155600101611a8f565b9091508190611a86565b67ffffffffffffffff8111610b855760051b60200190565b60405190611ad482611728565b5f60c083828152826020820152826040820152826060820152826080820152606060a08201520152565b90611b0882611aaf565b611b156040519182611744565b8281528092611b26601f1991611aaf565b01905f5b828110611b3657505050565b602090611b41611ac7565b82828501015201611b2a565b80518210156114b25760209160051b010190565b6004821015610bf25752565b90816020910312610b1257518015158103610b125790565b6001600160a01b0316805f52600460205260405f2054805f52600360205260405f2060405193611bb485611728565b6001600160a01b0382541685526001820154602086015260028201546040860152836001600160a01b0360038401549660ff88166060820152611c0160ff608083019960081c1689611b61565b6005611c0f60048701611890565b60a0830190815295015460c0820152511603611ce157835f52600660205260ff60405f20541690845f52600560205260ff60405f2054169560405195636d1b67ff60e11b875260048701526020866024816001600160a01b037f0000000000000000000000000000000000000000000000000000000000000000165afa958615610b07575f96611cb0575b5051926004841015610bf2575191959493929190565b611cd391965060203d602011611cda575b611ccb8183611744565b810190611b6d565b945f611c9a565b503d611cc1565b93505050805f52600660205260ff60405f20541691815f52600560205260ff60405f2054169260405192636d1b67ff60e11b845260048401526020836024816001600160a01b037f0000000000000000000000000000000000000000000000000000000000000000165afa928315610b07575f93611d76575b509291905f905f90604051611d70602082611744565b5f815290565b611d9091935060203d602011611cda57611ccb8183611744565b915f611d5a565b600e5468010000000000000000811015610b8557806001611dbd9201600e55600e6116db565b6001600160a01b0380839493549260031b9316831b921b1916179055565b60ff1660ff8114610bde5760010190565b92919267ffffffffffffffff8211610b855760405191611e16601f8201601f191660200184611744565b829481845281830111610b12578281602093845f960137010152565b98919095979694969392936001600160a01b038a1691825f52600660205260ff60405f20541661246657604051636d1b67ff60e11b8152600481018490526020816024817f00000000000000000000000000000000000000000000000000000000000000006001600160a01b03165afa908115610b07575f91612447575b5061240257825f52600560205260ff60405f2054166123bd57801561237857600a8111612333578481036122ee5781156122a957600a54985f198a14610bde5760018a01600a555f5b60ff811690838210156120045787611fe08260051b169210156114b25781890135601e198a360301811215610b125789019182359267ffffffffffffffff8411610b1257602001928036038413610b12578f93611f9892611f608f92611f68943691611dec565b9101356125e1565b92838015611ff1575b611f7c903090612840565b611f916001600160a01b03600c541685612599565b5083612599565b508b5f52600160205260405f2091825468010000000000000000811015610b8557611fcf81611fec956001611fe5940181556116db565b819391549060031b91821b915f19901b19161790565b9055611ddb565b611ef9565b50611f7c611ffd61293b565b9050611f71565b5050919750945061205a9299935061202461202a929960ff973691611dec565b90612745565b91828015612296575b61203e903090612840565b6120536001600160a01b03600c5416846125c3565b50826125c3565b50845f52600260205260405f20551660405161207581611728565b8481526020810192428452604082019385855260608301848152608084015f8152602096604051936120a78986611744565b5f855260a0870194855260c08701958652895f52600389526001600160a01b0360405f209751166001600160a01b031988541617875551600187015551600286015560ff6003860192511660ff19835416178255516004811015610bf257815461ff00191660089190911b61ff0016179055518051600484019167ffffffffffffffff8211610b855761213e8261099785546116f0565b8690601f831160011461222f5791806121709260059695945f926122245750508160011b915f199060031b1c19161790565b90555b51910155835f52600482528260405f2055835f526005825260405f20600160ff1982541617905560095468010000000000000000811015610b85576121c4611fcf82600187940160095560096116db565b90556008549068010000000000000000821015610b85577fc7cb5f6f7091b704604f8ffdca8b8db183c93c3082cced03be8ce5f05b834d0d9284612215611fcf8560016040970160085560086116db565b905582519182524290820152a3565b015190505f806109b7565b90601f19831691845f52885f20925f5b8a82821061228057505091600193918560059897969410612268575b505050811b019055612173565b01515f1960f88460031b161c191690555f808061225b565b600185968293968601518155019501930161223f565b5061203e6122a26129cb565b9050612033565b60405162461bcd60e51b815260206004820152601360248201527f436f6d6d69746d656e74207265717569726564000000000000000000000000006044820152606490fd5b60405162461bcd60e51b815260206004820152600e60248201527f50726f6f66206d69736d617463680000000000000000000000000000000000006044820152606490fd5b60405162461bcd60e51b815260206004820152601260248201527f446f63756d656e7420746f6f206c6172676500000000000000000000000000006044820152606490fd5b60405162461bcd60e51b815260206004820152601060248201527f4e6f20646f63756d656e742064617461000000000000000000000000000000006044820152606490fd5b60405162461bcd60e51b815260206004820152601760248201527f5265717565737420616c72656164792070656e64696e670000000000000000006044820152606490fd5b60405162461bcd60e51b815260206004820152601860248201527f416c7265616479207265676973746572656420766f74657200000000000000006044820152606490fd5b612460915060203d602011611cda57611ccb8183611744565b5f611eb0565b60405162461bcd60e51b815260206004820152601060248201527f416c7265616479207665726966696564000000000000000000000000000000006044820152606490fd5b6001600160a01b035f541633036124be57565b63118cdaa760e01b5f523360045260245ffd5b5f5b6008548082101561256557826124e8836116ab565b90549060031b1c146124fd57506001016124d3565b9091505f198101908111610bde57611fcf61251a612527926116ab565b90549060031b1c926116ab565b90556008548015612551575f190161253e816116ab565b8154905f199060031b1b19169055600855565b634e487b7160e01b5f52603160045260245ffd5b505050565b4660010361257757600190565b4662aa36a7036125875761271190565b617a694614612594575f90565b5f1990565b9081156125ae575b6125ab9082612840565b90565b90506125ab6125bb61293b565b9190506125a1565b9081156125d4576125ab9082612840565b90506125ab6125bb6129cb565b81519091901561270d576126446001600160a01b037f9e7b61f58c47dc699ac88507c4f5bb9f121c03808c5676a8078fe583e46497015416916040519363045fc19560e11b85526004850152336024850152608060448501526084840190611766565b602091835f8180946008606483015203925af1908115610b07575f916126db575b506001600160a01b037f9e7b61f58c47dc699ac88507c4f5bb9f121c03808c5676a8078fe583e46497005416803b15610b1257604051630f8e573b60e21b815260048101839052336024820152905f908290818381604481015b03925af18015610b07576126d1575090565b5f6125ab91611744565b90506020813d602011612705575b816126f660209383611744565b81010312610b1257515f612665565b3d91506126e9565b50801561273c5761271e33826128bb565b156127265790565b630276b5d960e01b5f526004523360245260445ffd5b506125ab61293b565b815190919015612826576127a86001600160a01b037f9e7b61f58c47dc699ac88507c4f5bb9f121c03808c5676a8078fe583e46497015416916040519363045fc19560e11b85526004850152336024850152608060448501526084840190611766565b602091835f8180946002606483015203925af1908115610b07575f916126db57506001600160a01b037f9e7b61f58c47dc699ac88507c4f5bb9f121c03808c5676a8078fe583e46497005416803b15610b1257604051630f8e573b60e21b815260048101839052336024820152905f908290818381604481016126bf565b5080156128375761271e33826128bb565b506125ab6129cb565b6001600160a01b037f9e7b61f58c47dc699ac88507c4f5bb9f121c03808c5676a8078fe583e4649700541691823b15610b1257604051635ca4b5b160e11b815260048101929092526001600160a01b03166024820152905f908290604490829084905af18015610b07576128b15750565b5f6118c891611744565b7f9e7b61f58c47dc699ac88507c4f5bb9f121c03808c5676a8078fe583e4649700546040516382027b6d60e01b815260048101929092526001600160a01b039283166024830152909160209183916044918391165afa908115610b07575f91612922575090565b6125ab915060203d602011611cda57611ccb8183611744565b7f9e7b61f58c47dc699ac88507c4f5bb9f121c03808c5676a8078fe583e464970154604051639cd07acb60e01b81525f6004820152906001600160a01b0316816044815f602094600860248401525af1908115610b07575f9161299c575090565b90506020813d6020116129c3575b816129b760209383611744565b81010312610b12575190565b3d91506129aa565b7f9e7b61f58c47dc699ac88507c4f5bb9f121c03808c5676a8078fe583e464970154604051639cd07acb60e01b81525f6004820152906001600160a01b0316816044815f602094600260248401525af1908115610b07575f9161299c57509056fea164736f6c634300081b000a",
  "linkReferences": {},
  "deployedLinkReferences": {}
}