{
  "_format": "hh-sol-artifact-1",
  "contractName": "VoterEligibilityPass",
  "sourceName": "contracts/VoterEligibilityPass.sol",
  "abi": [
    {
      "inputs": [
        {
          "internalType": "address",
          "name": "_commission",
          "type": "address"
        }
      ],
      "stateMutability": "nonpayable",
      "type": "constructor"
    },
    {
      "inputs": [
        {
          "internalType": "address",
          "name": "sender",
          "type": "address"
        },
        {
          "internalType": "uint256",
          "name": "tokenId",
          "type": "uint256"
        },
        {
          "internalType": "address",
          "name": "owner",
          "type": "address"
        }
      ],
      "name": "ERC721IncorrectOwner",
      "type": "error"
    },
    {
      "inputs": [
        {
          "internalType": "address",
          "name": "operator",
          "type": "address"
        },
        {
          "internalType": "uint256",
          "name": "tokenId",
          "type": "uint256"
        }
      ],
      "name": "ERC721InsufficientApproval",
      "type": "error"
    },
    {
      "inputs": [
        {
          "internalType": "address",
          "name": "approver",
          "type": "address"
        }
      ],
      "name": "ERC721InvalidApprover",
      "type": "error"
    },
    {
      "inputs": [
        {
          "internalType": "address",
          "name": "operator",
          "type": "address"
        }
      ],
      "name": "ERC721InvalidOperator",
      "type": "error"
    },
    {
      "inputs": [
        {
          "internalType": "address",
          "name": "owner",
          "type": "address"
        }
      ],
      "name": "ERC721InvalidOwner",
      "type": "error"
    },
    {
      "inputs": [
        {
          "internalType": "address",
          "name": "receiver",
          "type": "address"
        }
      ],
      "name": "ERC721InvalidReceiver",
      "type": "error"
    },
    {
      "inputs": [
        {
          "internalType": "address",
          "name": "sender",
          "type": "address"
        }
      ],
      "name": "ERC721InvalidSender",
      "type": "error"
    },
    {
      "inputs": [
        {
          "internalType": "uint256",
          "name": "tokenId",
          "type": "uint256"
        }
      ],
      "name": "ERC721NonexistentToken",
      "type": "error"
    },
    {
      "inputs": [
        {
          "internalType": "address",
          "name": "owner",
          "type": "address"
        }
      ],
      "name": "OwnableInvalidOwner",
      "type": "error"
    },
    {
      "inputs": [
        {
          "internalType": "address",
          "name": "account",
          "type": "address"
        }
      ],
      "name": "OwnableUnauthorizedAccount",
      "type": "error"
    },
    {
      "inputs": [
        {
          "internalType": "bytes32",
          "name": "handle",
          "type": "bytes32"
        },
        {
          "internalType": "address",
          "name": "sender",
          "type": "address"
        }
      ],
      "name": "SenderNotAllowedToUseHandle",
      "type": "error"
    },
    {
      "inputs": [],
      "name": "ZamaProtocolUnsupported",
      "type": "error"
    },
    {
      "anonymous": false,
      "inputs": [
        {
          "indexed": true,
          "internalType": "address",
          "name": "owner",
          "type": "address"
        },
        {
          "indexed": true,
          "internalType": "address",
          "name": "approved",
          "type": "address"
        },
        {
          "indexed": true,
          "internalType": "uint256",
          "name": "tokenId",
          "type": "uint256"
        }
      ],
      "name": "Approval",
      "type": "event"
    },
    {
      "anonymous": false,
      "inputs": [
        {
          "indexed": true,
          "internalType": "address",
          "name": "owner",
          "type": "address"
        },
        {
          "indexed": true,
          "internalType": "address",
          "name": "operator",
          "type": "address"
        },
        {
          "indexed": false,
          "internalType": "bool",
          "name": "approved",
          "type": "bool"
        }
      ],
      "name": "ApprovalForAll",
      "type": "event"
    },
    {
      "anonymous": false,
      "inputs": [
        {
          "indexed": true,
          "internalType": "address",
          "name": "previousOwner",
          "type": "address"
        },
        {
          "indexed": true,
          "internalType": "address",
          "name": "newOwner",
          "type": "address"
        }
      ],
      "name": "OwnershipTransferred",
      "type": "event"
    },
    {
      "anonymous": false,
      "inputs": [
        {
          "indexed": true,
          "internalType": "address",
          "name": "from",
          "type": "address"
        },
        {
          "indexed": true,
          "internalType": "address",
          "name": "to",
          "type": "address"
        },
        {
          "indexed": true,
          "internalType": "uint256",
          "name": "tokenId",
          "type": "uint256"
        }
      ],
      "name": "Transfer",
      "type": "event"
    },
    {
      "anonymous": false,
      "inputs": [
        {
          "indexed": true,
          "internalType": "uint256",
          "name": "tokenId",
          "type": "uint256"
        },
        {
          "indexed": true,
          "internalType": "address",
          "name": "voter",
          "type": "address"
        },
        {
          "indexed": false,
          "internalType": "uint256",
          "name": "electionId",
          "type": "uint256"
        },
        {
          "indexed": false,
          "internalType": "bytes32",
          "name": "commitmentHash",
          "type": "bytes32"
        }
      ],
      "name": "VoterPassMinted",
      "type": "event"
    },
    {
      "anonymous": false,
      "inputs": [
        {
          "indexed": true,
          "internalType": "uint256",
          "name": "tokenId",
          "type": "uint256"
        },
        {
          "indexed": true,
          "internalType": "address",
          "name": "voter",
          "type": "address"
        },
        {
          "indexed": false,
          "internalType": "string",
          "name": "reason",
          "type": "string"
        }
      ],
      "name": "VoterPassRevoked",
      "type": "event"
    },
    {
      "anonymous": false,
      "inputs": [
        {
          "indexed": true,
          "internalType": "uint256",
          "name": "tokenId",
          "type": "uint256"
        },
        {
          "indexed": true,
          "internalType": "address",
          "name": "voter",
          "type": "address"
        },
        {
          "indexed": false,
          "internalType": "uint256",
          "name": "electionId",
          "type": "uint256"
        }
      ],
      "name": "VoterPassUsedToVote",
      "type": "event"
    },
    {
      "inputs": [
        {
          "internalType": "address",
          "name": "to",
          "type": "address"
        },
        {
          "internalType": "uint256",
          "name": "tokenId",
          "type": "uint256"
        }
      ],
      "name": "approve",
      "outputs": [],
      "stateMutability": "nonpayable",
      "type": "function"
    },
    {
      "inputs": [
        {
          "internalType": "address",
          "name": "owner",
          "type": "address"
        }
      ],
      "name": "balanceOf",
      "outputs": [
        {
          "internalType": "uint256",
          "name": "",
          "type": "uint256"
        }
      ],
      "stateMutability": "view",
      "type": "function"
    },
    {
      "inputs": [],
      "name": "commissionAddress",
      "outputs": [
        {
          "internalType": "address",
          "name": "",
          "type": "address"
        }
      ],
      "stateMutability": "view",
      "type": "function"
    },
    {
      "inputs": [],
      "name": "confidentialProtocolId",
      "outputs": [
        {
          "internalType": "uint256",
          "name": "",
          "type": "uint256"
        }
      ],
      "stateMutability": "view",
      "type": "function"
    },
    {
      "inputs": [],
      "name": "electionFactoryAddress",
      "outputs": [
        {
          "internalType": "address",
          "name": "",
          "type": "address"
        }
      ],
      "stateMutability": "view",
      "type": "function"
    },
    {
      "inputs": [
        {
          "internalType": "uint256",
          "name": "tokenId",
          "type": "uint256"
        }
      ],
      "name": "getApproved",
      "outputs": [
        {
          "internalType": "address",
          "name": "",
          "type": "address"
        }
      ],
      "stateMutability": "view",
      "type": "function"
    },
    {
      "inputs": [
        {
          "internalType": "address",
          "name": "voter",
          "type": "address"
        },
        {
          "internalType": "uint256",
          "name": "electionId",
          "type": "uint256"
        }
      ],
      "name": "getPassByWalletAndElection",
      "outputs": [
        {
          "internalType": "uint256",
          "name": "",
          "type": "uint256"
        }
      ],
      "stateMutability": "view",
      "type": "function"
    },
    {
      "inputs": [
        {
          "internalType": "uint256",
          "name": "tokenId",
          "type": "uint256"
        }
      ],
      "name": "getPassMetadata",
      "outputs": [
        {
          "components": [
            {
              "internalType": "euint256",
              "name": "encryptedVoterIdentity",
              "type": "bytes32"
            },
            {
              "internalType": "euint8",
              "name": "encryptedDocumentType",
              "type": "bytes32"
            },
            {
              "internalType": "bytes32",
              "name": "commitmentHash",
              "type": "bytes32"
            },
            {
              "internalType": "uint256",
              "name": "electionId",
              "type": "uint256"
            },
            {
              "internalType": "uint256",
              "name": "mintedAt",
              "type": "uint256"
            },
            {
              "internalType": "address",
              "name": "originalMinter",
              "type": "address"
            },
            {
              "internalType": "bytes",
              "name": "commissionSignature",
              "type": "bytes"
            },
            {
              "internalType": "bool",
              "name": "isActive",
              "type": "bool"
            },
            {
              "internalType": "bool",
              "name": "hasBeenUsedToVote",
              "type": "bool"
            }
          ],
          "internalType": "struct VoterEligibilityPass.VoterPassMetadata",
          "name": "",
          "type": "tuple"
        }
      ],
      "stateMutability": "view",
      "type": "function"
    },
    {
      "inputs": [
        {
          "internalType": "address",
          "name": "owner",
          "type": "address"
        },
        {
          "internalType": "address",
          "name": "operator",
          "type": "address"
        }
      ],
      "name": "isApprovedForAll",
      "outputs": [
        {
          "internalType": "bool",
          "name": "",
          "type": "bool"
        }
      ],
      "stateMutability": "view",
      "type": "function"
    },
    {
      "inputs": [
        {
          "internalType": "address",
          "name": "",
          "type": "address"
        }
      ],
      "name": "isAuthorizedMinter",
      "outputs": [
        {
          "internalType": "bool",
          "name": "",
          "type": "bool"
        }
      ],
      "stateMutability": "view",
      "type": "function"
    },
    {
      "inputs": [
        {
          "internalType": "address",
          "name": "",
          "type": "address"
        }
      ],
      "name": "isAuthorizedSigner",
      "outputs": [
        {
          "internalType": "bool",
          "name": "",
          "type": "bool"
        }
      ],
      "stateMutability": "view",
      "type": "function"
    },
    {
      "inputs": [
        {
          "internalType": "address",
          "name": "voter",
          "type": "address"
        },
        {
          "internalType": "uint256",
          "name": "electionId",
          "type": "uint256"
        }
      ],
      "name": "markPassAsUsed",
      "outputs": [
        {
          "internalType": "bool",
          "name": "",
          "type": "bool"
        }
      ],
      "stateMutability": "nonpayable",
      "type": "function"
    },
    {
      "inputs": [
        {
          "internalType": "address",
          "name": "voter",
          "type": "address"
        },
        {
          "internalType": "uint256",
          "name": "electionId",
          "type": "uint256"
        },
        {
          "internalType": "externalEuint256",
          "name": "encryptedIdentity",
          "type": "bytes32"
        },
        {
          "internalType": "bytes",
          "name": "identityProof",
          "type": "bytes"
        },
        {
          "internalType": "externalEuint8",
          "name": "encryptedDocType",
          "type": "bytes32"
        },
        {
          "internalType": "bytes",
          "name": "docTypeProof",
          "type": "bytes"
        },
        {
          "internalType": "bytes32",
          "name": "commitmentHash",
          "type": "bytes32"
        },
        {
          "internalType": "bytes",
          "name": "commissionSignature",
          "type": "bytes"
        }
      ],
      "name": "mintVoterPass",
      "outputs": [
        {
          "internalType": "uint256",
          "name": "",
          "type": "uint256"
        }
      ],
      "stateMutability": "nonpayable",
      "type": "function"
    },
    {
      "inputs": [
        {
          "internalType": "address",
          "name": "voter",
          "type": "address"
        },
        {
          "internalType": "uint256",
          "name": "electionId",
          "type": "uint256"
        },
        {
          "internalType": "euint256",
          "name": "identity",
          "type": "bytes32"
        },
        {
          "internalType": "euint8",
          "name": "docType",
          "type": "bytes32"
        },
        {
          "internalType": "bytes32",
          "name": "commitmentHash",
          "type": "bytes32"
        },
        {
          "internalType": "bytes",
          "name": "commissionSignature",
          "type": "bytes"
        }
      ],
      "name": "mintVoterPassDirect",
      "outputs": [
        {
          "internalType": "uint256",
          "name": "",
          "type": "uint256"
        }
      ],
      "stateMutability": "nonpayable",
      "type": "function"
    },
    {
      "inputs": [],
      "name": "name",
      "outputs": [
        {
          "internalType": "string",
          "name": "",
          "type": "string"
        }
      ],
      "stateMutability": "view",
      "type": "function"
    },
    {
      "inputs": [],
      "name": "owner",
      "outputs": [
        {
          "internalType": "address",
          "name": "",
          "type": "address"
        }
      ],
      "stateMutability": "view",
      "type": "function"
    },
    {
      "inputs": [
        {
          "internalType": "uint256",
          "name": "tokenId",
          "type": "uint256"
        }
      ],
      "name": "ownerOf",
      "outputs": [
        {
          "internalType": "address",
          "name": "",
          "type": "address"
        }
      ],
      "stateMutability": "view",
      "type": "function"
    },
    {
      "inputs": [
        {
          "internalType": "uint256",
          "name": "",
          "type": "uint256"
        }
      ],
      "name": "passMetadata",
      "outputs": [
        {
          "internalType": "euint256",
          "name": "encryptedVoterIdentity",
          "type": "bytes32"
        },
        {
          "internalType": "euint8",
          "name": "encryptedDocumentType",
          "type": "bytes32"
        },
        {
          "internalType": "bytes32",
          "name": "commitmentHash",
          "type": "bytes32"
        },
        {
          "internalType": "uint256",
          "name": "electionId",
          "type": "uint256"
        },
        {
          "internalType": "uint256",
          "name": "mintedAt",
          "type": "uint256"
        },
        {
          "internalType": "address",
          "name": "originalMinter",
          "type": "address"
        },
        {
          "internalType": "bytes",
          "name": "commissionSignature",
          "type": "bytes"
        },
        {
          "internalType": "bool",
          "name": "isActive",
          "type": "bool"
        },
        {
          "internalType": "bool",
          "name": "hasBeenUsedToVote",
          "type": "bool"
        }
      ],
      "stateMutability": "view",
      "type": "function"
    },
    {
      "inputs": [],
      "name": "renounceOwnership",
      "outputs": [],
      "stateMutability": "nonpayable",
      "type": "function"
    },
    {
      "inputs": [
        {
          "internalType": "uint256",
          "name": "tokenId",
          "type": "uint256"
        },
        {
          "internalType": "string",
          "name": "reason",
          "type": "string"
        }
      ],
      "name": "revokePass",
      "outputs": [],
      "stateMutability": "nonpayable",
      "type": "function"
    },
    {
      "inputs": [
        {
          "internalType": "address",
          "name": "from",
          "type": "address"
        },
        {
          "internalType": "address",
          "name": "to",
          "type": "address"
        },
        {
          "internalType": "uint256",
          "name": "tokenId",
          "type": "uint256"
        }
      ],
      "name": "safeTransferFrom",
      "outputs": [],
      "stateMutability": "nonpayable",
      "type": "function"
    },
    {
      "inputs": [
        {
          "internalType": "address",
          "name": "from",
          "type": "address"
        },
        {
          "internalType": "address",
          "name": "to",
          "type": "address"
        },
        {
          "internalType": "uint256",
          "name": "tokenId",
          "type": "uint256"
        },
        {
          "internalType": "bytes",
          "name": "data",
          "type": "bytes"
        }
      ],
      "name": "safeTransferFrom",
      "outputs": [],
      "stateMutability": "nonpayable",
      "type": "function"
    },
    {
      "inputs": [
        {
          "internalType": "address",
          "name": "operator",
          "type": "address"
        },
        {
          "internalType": "bool",
          "name": "approved",
          "type": "bool"
        }
      ],
      "name": "setApprovalForAll",
      "outputs": [],
      "stateMutability": "nonpayable",
      "type": "function"
    },
    {
      "inputs": [
        {
          "internalType": "address",
          "name": "minter",
          "type": "address"
        },
        {
          "internalType": "bool",
          "name": "authorized",
          "type": "bool"
        }
      ],
      "name": "setAuthorizedMinter",
      "outputs": [],
      "stateMutability": "nonpayable",
      "type": "function"
    },
    {
      "inputs": [
        {
          "internalType": "address",
          "name": "signer_",
          "type": "address"
        },
        {
          "internalType": "bool",
          "name": "authorized",
          "type": "bool"
        }
      ],
      "name": "setAuthorizedSigner",
      "outputs": [],
      "stateMutability": "nonpayable",
      "type": "function"
    },
    {
      "inputs": [
        {
          "internalType": "address",
          "name": "_factory",
          "type": "address"
        }
      ],
      "name": "setElectionFactory",
      "outputs": [],
      "stateMutability": "nonpayable",
      "type": "function"
    },
    {
      "inputs": [
        {
          "internalType": "bytes4",
          "name": "interfaceId",
          "type": "bytes4"
        }
      ],
      "name": "supportsInterface",
      "outputs": [
        {
          "internalType": "bool",
          "name": "",
          "type": "bool"
        }
      ],
      "stateMutability": "view",
      "type": "function"
    },
    {
      "inputs": [],
      "name": "symbol",
      "outputs": [
        {
          "internalType": "string",
          "name": "",
          "type": "string"
        }
      ],
      "stateMutability": "view",
      "type": "function"
    },
    {
      "inputs": [
        {
          "internalType": "uint256",
          "name": "tokenId",
          "type": "uint256"
        }
      ],
      "name": "tokenURI",
      "outputs": [
        {
          "internalType": "string",
          "name": "",
          "type": "string"
        }
      ],
      "stateMutability": "view",
      "type": "function"
    },
    {
      "inputs": [],
      "name": "totalPassesMinted",
      "outputs": [
        {
          "internalType": "uint256",
          "name": "",
          "type": "uint256"
        }
      ],
      "stateMutability": "view",
      "type": "function"
    },
    {
      "inputs": [
        {
          "internalType": "address",
          "name": "from",
          "type": "address"
        },
        {
          "internalType": "address",
          "name": "to",
          "type": "address"
        },
        {
          "internalType": "uint256",
          "name": "tokenId",
          "type": "uint256"
        }
      ],
      "name": "transferFrom",
      "outputs": [],
      "stateMutability": "nonpayable",
      "type": "function"
    },
    {
      "inputs": [
        {
          "internalType": "address",
          "name": "newOwner",
          "type": "address"
        }
      ],
      "name": "transferOwnership",
      "outputs": [],
      "stateMutability": "nonpayable",
      "type": "function"
    },
    {
      "inputs": [
        {
          "internalType": "address",
          "name": "voter",
          "type": "address"
        },
        {
          "internalType": "uint256",
          "name": "electionId",
          "type": "uint256"
        }
      ],
      "name": "verifyVoterPass",
      "outputs": [
        {
          "internalType": "bool",
          "name": "",
          "type": "bool"
        }
      ],
      "stateMutability": "view",
      "type": "function"
    },
    {
      "inputs": [
        {
          "internalType": "address",
          "name": "",
          "type": "address"
        },
        {
          "internalType": "uint256",
          "name": "",
          "type": "uint256"
        }
      ],
      "name": "walletTokens",
      "outputs": [
        {
          "internalType": "uint256",
          "name": "",
          "type": "uint256"
        }
      ],
      "stateMutability": "view",
      "type": "function"
    }
  ],
  "bytecode": "0x6080604052346105db576138166020813803918261001c816105fe565b9384928339810103126105db57516001600160a01b038116908190036105db5761004660406105fe565b906009825268566f7465725061737360b81b602083015261006760406105fe565b600681526556455041535360d01b602082015282519091906001600160401b0381116104ef575f54600181811c911680156105d1575b60208210146104d157601f811161056f575b506020601f821160011461050e57819293945f92610503575b50508160011b915f199060031b1c1916175f555b81516001600160401b0381116104ef57600154600181811c911680156104e5575b60208210146104d157601f811161046e575b50602092601f821160011461040d57928192935f92610402575b50508160011b915f199060031b1c1916176001555b33156103ef5760068054336001600160a01b0319821681179092556001600160a01b03167f8be0079c531659141344cd1fd0a4f28419497f9722a3daafe3b4186f6b6457e05f80a361018e610623565b504660010361030b5761019f610623565b506101a86105df565b73ca2e8f1f656cd25c01f05d0b243ab1ecd4a8ffb6815273d82385dada1ae3e969447f20a3164f6213100e7560208201527377627828a55156b04ac0dc0eb30467f1a552bb0360408201525b80517f9e7b61f58c47dc699ac88507c4f5bb9f121c03808c5676a8078fe583e464970080546001600160a01b03199081166001600160a01b039384161790915560208301517f9e7b61f58c47dc699ac88507c4f5bb9f121c03808c5676a8078fe583e4649701805483169184169190911790556040909201517f9e7b61f58c47dc699ac88507c4f5bb9f121c03808c5676a8078fe583e4649702805490931691161790556001600a5580156102c657600b80546001600160a01b0319169190911790556040516131d8908161063e8239f35b60405162461bcd60e51b815260206004820152601a60248201527f496e76616c696420636f6d6d697373696f6e20616464726573730000000000006044820152606490fd5b4662aa36a7036103765761031d610623565b506103266105df565b73f0ffdc93b7e186bc2f8cb3daa75d86d1930a433d81527392c920834ec8941d2c77d188936e1f7a6f49c127602082015273be0e383937d564d7ff0bc3b46c51f0bf8d5c311a60408201526101f4565b46617a69036103e057610387610623565b506103906105df565b7350157cffd6bbfa2dece204a89ec419c23ef5755d815273e3a9105a3a932253a70f126eb1e3b589c643dd24602082015273901f8942346f7ab3a01f6d7613119bca447bb03060408201526101f4565b6373cac13b60e01b5f5260045ffd5b631e4fbdf760e01b5f525f60045260245ffd5b015190505f80610129565b601f1982169360015f52805f20915f5b868110610456575083600195961061043e575b505050811b0160015561013e565b01515f1960f88460031b161c191690555f8080610430565b9192602060018192868501518155019401920161041d565b60015f527fb10e2d527612073b26eecdfd717e6a320cf44b4afac2b0732d9fcbe2b7fa0cf6601f830160051c810191602084106104c7575b601f0160051c01905b8181106104bc575061010f565b5f81556001016104af565b90915081906104a6565b634e487b7160e01b5f52602260045260245ffd5b90607f16906100fd565b634e487b7160e01b5f52604160045260245ffd5b015190505f806100c8565b601f198216905f8052805f20915f5b8181106105575750958360019596971061053f575b505050811b015f556100dc565b01515f1960f88460031b161c191690555f8080610532565b9192602060018192868b01518155019401920161051d565b5f80527f290decd9548b62a8d60345a988386fc84ba6bc95484008f6362f93160ef3e563601f830160051c810191602084106105c7575b601f0160051c01905b8181106105bc57506100af565b5f81556001016105af565b90915081906105a6565b90607f169061009d565b5f80fd5b60405190606082016001600160401b038111838210176104ef57604052565b6040519190601f01601f191682016001600160401b038111838210176104ef57604052565b61062b6105df565b905f82525f60208301525f604083015256fe60806040526004361015610011575f80fd5b5f3560e01c806301ffc9a71461022f57806306fdde031461022a578063081812fc14610225578063095ea7b3146102205780630b2f5fe81461021b57806323b872dd146102165780632d42425e146101e95780633ae718f01461021157806342842e0e1461020c57806349045e16146102075780636352211e1461020257806365cb515a146101fd5780636d6fc1eb146101f857806370a08231146101f3578063715018a6146101ee57806375090b67146101e95780637a5bb4b6146101e4578063842392c2146101df5780638927b030146101da5780638da5cb5b146101d5578063931742d3146101d057806395d89b41146101cb57806396ca51d9146101c65780639ba9b29d146101c15780639bb9af06146101bc5780639e25c9d0146101b7578063a02ce370146101b2578063a22cb465146101ad578063a2b094dc146101a8578063b88d4fde146101a3578063c87b56dd1461019e578063e985e9c514610199578063ed58bad8146101945763f2fde38b1461018f575f80fd5b6118bc565b611819565b6117bb565b6113f6565b611396565b611298565b6111c5565b61119f565b611003565b610f79565b610f05565b610d4d565b610ca8565b610c82565b610c5c565b610c3a565b610bfd565b610af5565b61072b565b610a17565b6109c6565b6108d0565b6108b3565b610884565b610847565b61081e565b61077b565b610714565b610584565b610452565b6103e9565b610312565b610262565b7fffffffff0000000000000000000000000000000000000000000000000000000081160361025e57565b5f80fd5b3461025e57602036600319011261025e57602060043561028181610234565b63ffffffff60e01b166380ac58cd60e01b81149081156102bf575b81156102ae575b506040519015158152f35b6301ffc9a760e01b1490505f6102a3565b635b5e139f60e01b8114915061029c565b5f91031261025e57565b805180835260209291819084018484015e5f828201840152601f01601f1916010190565b90602061030f9281815201906102da565b90565b3461025e575f36600319011261025e576040515f5f5461033181610d7e565b80845290600181169081156103c55750600114610369575b6103658361035981850382610dec565b604051918291826102fe565b0390f35b5f8080527f290decd9548b62a8d60345a988386fc84ba6bc95484008f6362f93160ef3e563939250905b8082106103ab57509091508101602001610359610349565b919260018160209254838588010152019101909291610393565b60ff191660208086019190915291151560051b840190910191506103599050610349565b3461025e57602036600319011261025e57600435610406816124fd565b505f52600460205260206001600160a01b0360405f205416604051908152f35b600435906001600160a01b038216820361025e57565b602435906001600160a01b038216820361025e57565b3461025e57604036600319011261025e5761046b610426565b60243590610478826124fd565b33151580610543575b80610503575b6104f057826104ee936104d3926001600160a01b0380861691167f8c5be1e5ebec7d5bd14f71427d1e84f3dd0314c0f7b2291e5b200ac8c7c3b9255f80a45f52600460205260405f2090565b906001600160a01b03166001600160a01b0319825416179055565b005b63a9fbf51f60e01b5f523360045260245ffd5b5060ff61053b33610525846001600160a01b03165f52600560205260405f2090565b906001600160a01b03165f5260205260405f2090565b541615610487565b50336001600160a01b0382161415610481565b9181601f8401121561025e5782359167ffffffffffffffff831161025e576020838186019501011161025e57565b3461025e57604036600319011261025e5760043560243567ffffffffffffffff811161025e576105b8903690600401610556565b6001600160a01b03600b9392935416330361069557815f52600760205260ff600760405f2001541615610650577fc798079a21ef636f508d0dfcfc5eab8208c7e0d813633e32df2ce650e2fad56590610629600761061e855f52600760205260405f2090565b01805460ff19169055565b6001600160a01b0361063a846124fd565b169361064b60405192839283611941565b0390a3005b60405162461bcd60e51b815260206004820152600f60248201527f416c7265616479207265766f6b656400000000000000000000000000000000006044820152606490fd5b60405162461bcd60e51b815260206004820152600f60248201527f4f6e6c7920436f6d6d697373696f6e00000000000000000000000000000000006044820152606490fd5b606090600319011261025e576004356001600160a01b038116810361025e57906024356001600160a01b038116810361025e579060443590565b3461025e576104ee610725366106da565b91611968565b3461025e57604036600319011261025e57610744610426565b6001600160a01b0360243591165f52600860205260405f20905f52602052602060405f2054604051908152f35b8015150361025e57565b3461025e57604036600319011261025e57610794610426565b6001600160a01b03602435916107a983610771565b6107b1612530565b169081156107d9576104ee915f52600e60205260405f209060ff801983541691151516179055565b60405162461bcd60e51b815260206004820152601660248201527f496e76616c6964207369676e65722061646472657373000000000000000000006044820152606490fd5b3461025e576104ee61082f366106da565b906040519261083f602085610dec565b5f8452612362565b3461025e57602036600319011261025e576001600160a01b03610868610426565b165f52600e602052602060ff60405f2054166040519015158152f35b3461025e57602036600319011261025e5760206108a26004356124fd565b6001600160a01b0360405191168152f35b3461025e575f36600319011261025e576020600954604051908152f35b3461025e5760c036600319011261025e576108e9610426565b6024359060643560443560843560a43567ffffffffffffffff811161025e57610916903690600401610556565b9390926001600160a01b03600b5416331480156109b2575b801561099c575b15610957576103659661094796611cc1565b6040519081529081906020820190565b60405162461bcd60e51b815260206004820152601d60248201527f4e6f7420617574686f72697a656420746f206d696e74206469726563740000006044820152606490fd5b50335f52600d60205260ff60405f205416610935565b506001600160a01b0360065416331461092e565b3461025e57602036600319011261025e576001600160a01b036109e7610426565b168015610a04575f526003602052602060405f2054604051908152f35b6322718ad960e21b5f525f60045260245ffd5b3461025e575f36600319011261025e57610a2f612530565b5f6001600160a01b036006546001600160a01b03198116600655167f8be0079c531659141344cd1fd0a4f28419497f9722a3daafe3b4186f6b6457e08280a3005b61030f906020815282516020820152602083015160408201526040830151606082015260608301516080820152608083015160a0820152610ac160a084015160c08301906001600160a01b03169052565b610120610100610ae060c08601518360e08601526101408501906102da565b60e08601511515848301529401511515910152565b3461025e57602036600319011261025e576004355f610100604051610b1981610dca565b8281528260208201528260408201528260608201528260808201528260a0820152606060c08201528260e082015201525f52600760205261036560405f20610bf1610be76007610b67611334565b938054855260018101546020860152600281015460408601526003810154606086015260048101546080860152610bbb610bab60058301546001600160a01b031690565b6001600160a01b031660a0870152565b610bc760068201610e0e565b60c08601520154610bde60ff8216151560e0860152565b60081c60ff1690565b1515610100830152565b60405191829182610a70565b3461025e57602036600319011261025e576001600160a01b03610c1e610426565b165f52600d602052602060ff60405f2054166040519015158152f35b3461025e575f36600319011261025e576020610c5461263b565b604051908152f35b3461025e575f36600319011261025e5760206001600160a01b0360065416604051908152f35b3461025e575f36600319011261025e5760206001600160a01b03600b5416604051908152f35b3461025e575f36600319011261025e576040515f600154610cc881610d7e565b80845290600181169081156103c55750600114610cef576103658361035981850382610dec565b91905060015f527fb10e2d527612073b26eecdfd717e6a320cf44b4afac2b0732d9fcbe2b7fa0cf6915f905b808210610d3357509091508101602001610359610349565b919260018160209254838588010152019101909291610d1b565b3461025e57604036600319011261025e576020610d74610d6b610426565b60243590611ef5565b6040519015158152f35b90600182811c92168015610dac575b6020831014610d9857565b634e487b7160e01b5f52602260045260245ffd5b91607f1691610d8d565b634e487b7160e01b5f52604160045260245ffd5b610120810190811067ffffffffffffffff821117610de757604052565b610db6565b90601f8019910116810190811067ffffffffffffffff821117610de757604052565b9060405191825f825492610e2184610d7e565b8084529360018116908115610e8c5750600114610e48575b50610e4692500383610dec565b565b90505f9291925260205f20905f915b818310610e70575050906020610e46928201015f610e39565b6020919350806001915483858901015201910190918492610e57565b905060209250610e4694915060ff191682840152151560051b8201015f610e39565b9799989591936001600160a01b03936101009895610ef697938b5260208b015260408a0152606089015260808801521660a086015261012060c08601526101208501906102da565b94151560e08401521515910152565b3461025e57602036600319011261025e576004355f52600760205260405f2080549061036560018201549160028101549360038201549160048101546001600160a01b03600583015416906007610f5e60068501610e0e565b9301549460405198899860ff808960081c169816968a610eae565b3461025e57602036600319011261025e576001600160a01b03610f9a610426565b610fa2612530565b168015610fbe576001600160a01b0319600c541617600c555f80f35b60405162461bcd60e51b815260206004820152601760248201527f496e76616c696420666163746f727920616464726573730000000000000000006044820152606490fd5b3461025e57604036600319011261025e5761101c610426565b60243590611032600c546001600160a01b031690565b6001600160a01b038116611114575b507f76ac3f92dc1b8769724f06289350a2f4d7a4183df865e62742d34f4357b1a0716001600160a01b036110978461108a856001600160a01b03165f52600860205260405f2090565b905f5260205260405f2090565b54926110a4841515612050565b6110d56110d06110cc60076110c1885f52600760205260405f2090565b015460081c60ff1690565b1590565b61209c565b6110fc60076110ec865f52600760205260405f2090565b01805461ff001916610100179055565b6040519485521692602090a360405160018152602090f35b61112e906001600160a01b03165b6001600160a01b031690565b60405163c6b8565b60e01b815233600482015290602090829060249082905afa801561119a57611165915f9161116b575b50611fde565b5f611041565b61118d915060203d602011611193575b6111858183610dec565b810190611fbe565b5f61115f565b503d61117b565b611fd3565b3461025e575f36600319011261025e5760206001600160a01b03600c5416604051908152f35b3461025e57604036600319011261025e576111de610426565b6024356111ea81610771565b3315611285576001600160a01b038216918215611272578161122b61123c92335f52600560205260405f20906001600160a01b03165f5260205260405f2090565b9060ff801983541691151516179055565b604051901515815233907f17307eab39ab6107e8899845ad3d59bd9653f200f220920489ca2b5937696c3190806020810161064b565b82630b61174360e31b5f5260045260245ffd5b63a9fbf51f60e01b5f525f60045260245ffd5b3461025e5761010036600319011261025e576112b2610426565b6044359060243560643567ffffffffffffffff811161025e576112d9903690600401610556565b90929060843560a43567ffffffffffffffff811161025e576112ff903690600401610556565b9160c4359360e4359767ffffffffffffffff891161025e576103659961132c6109479a3690600401610556565b999098612180565b60405190610e4661012083610dec565b67ffffffffffffffff8111610de757601f01601f191660200190565b92919261136c82611344565b9161137a6040519384610dec565b82948184528183011161025e578281602093845f960137010152565b3461025e57608036600319011261025e576113af610426565b6113b761043c565b906044356064359267ffffffffffffffff841161025e573660238501121561025e576113f06104ee943690602481600401359101611360565b92612362565b3461025e57602036600319011261025e5760043561142d611427611422835f52600760205260405f2090565b611e63565b91612ab4565b606082019161144661143f8451612ab4565b9351612ab4565b9061146160e06114596080840151612ab4565b920151151590565b156117ad5761146e6124b0565b915b604051948594602086016114b2906021907f7b226e616d65223a22566f74657220456c69676962696c6974792050617373208152602360f81b60208201520190565b6114bb916124eb565b7f222c226465736372697074696f6e223a22536f756c626f756e6420766f74657281527f20656c69676962696c69747920706173732e200000000000000000000000000060208201526033017f50726f76657320766f74657220726567697374726174696f6e20666f7220656c81527f656374696f6e20494420000000000000000000000000000000000000000000006020820152602a0161155c916124eb565b7f2e204e6f6e2d7472616e7366657261626c6520616e6420626f756e6420746f2081527f766f7465722077616c6c65742e222c00000000000000000000000000000000006020820152602f017f22696d616765223a22697066733a2f2f516d566f74657250617373496d616765815261088b60f21b60208201526022017f2261747472696275746573223a5b0000000000000000000000000000000000008152600e017f7b2274726169745f74797065223a22456c656374696f6e204944222c2276616c81527f7565223a220000000000000000000000000000000000000000000000000000006020820152602501611654916124eb565b62089f4b60ea1b81526003017f7b2274726169745f74797065223a224d696e746564204174222c2276616c7565815262111d1160e91b602082015260230161169b916124eb565b62089f4b60ea1b81526003017f7b2274726169745f74797065223a22537461747573222c2276616c7565223a2281526020016116d6916124eb565b62089f4b60ea1b81526003017f7b2274726169745f74797065223a22536f756c626f756e64222c2276616c756581527f223a2274727565227d00000000000000000000000000000000000000000000006020820152602901615d7d60f01b815260020103601f198101825261174b9082610dec565b61175490612fd6565b6040517f646174613a6170706c69636174696f6e2f6a736f6e3b6261736536342c0000006020820152908190603d820161178d916124eb565b03601f198101825261179f9082610dec565b6040516103658192826102fe565b6117b5612475565b91611470565b3461025e57604036600319011261025e57602060ff61180d6117db610426565b6001600160a01b036117eb61043c565b91165f526005845260405f20906001600160a01b03165f5260205260405f2090565b54166040519015158152f35b3461025e57604036600319011261025e57611832610426565b6001600160a01b036024359161184783610771565b61184f612530565b16908115611877576104ee915f52600d60205260405f209060ff801983541691151516179055565b60405162461bcd60e51b815260206004820152601660248201527f496e76616c6964206d696e7465722061646472657373000000000000000000006044820152606490fd5b3461025e57602036600319011261025e576001600160a01b036118dd610426565b6118e5612530565b16801561192e576001600160a01b03600654826001600160a01b0319821617600655167f8be0079c531659141344cd1fd0a4f28419497f9722a3daafe3b4186f6b6457e05f80a3005b631e4fbdf760e01b5f525f60045260245ffd5b90918060409360208452816020850152848401375f828201840152601f01601f1916010190565b91906001600160a01b03811615611a4c57815f5260026020526001600160a01b0360405f205416151580611a44575b6119d9576001600160a01b036119b08192843391612c43565b93169216918083036119c157505050565b6364283d7b60e01b5f5260045260245260445260645ffd5b60405162461bcd60e51b815260206004820152602660248201527f56455061737320697320736f756c626f756e64202d207472616e73666572206260448201527f6c6f636b656400000000000000000000000000000000000000000000000000006064820152608490fd5b506001611997565b633250574960e11b5f525f60045260245ffd5b60405190611a6e602083610dec565b5f8252565b15611a7a57565b606460405162461bcd60e51b815260206004820152602060248201527f416c7265616479206d696e74656420666f72207468697320656c656374696f6e6044820152fd5b634e487b7160e01b5f52601160045260245ffd5b5f198114611ae05760010190565b611abe565b601f8211611af257505050565b5f5260205f20906020601f840160051c83019310611b2a575b601f0160051c01905b818110611b1f575050565b5f8155600101611b14565b9091508190611b0b565b919091825167ffffffffffffffff8111610de757611b5c81611b568454610d7e565b84611ae5565b6020601f8211600114611b9b578190611b8c9394955f92611b90575b50508160011b915f199060031b1c19161790565b9055565b015190505f80611b78565b601f19821690611bae845f5260205f2090565b915f5b818110611be857509583600195969710611bd0575b505050811b019055565b01515f1960f88460031b161c191690555f8080611bc6565b9192602060018192868b015181550194019201611bb1565b90611cab6101006007610e46948451815560208501516001820155604085015160028201556060850151600382015560808501516004820155611c6f611c5060a08701516001600160a01b031690565b60058301906001600160a01b03166001600160a01b0319825416179055565b611c8060c086015160068301611b34565b0192611ca4611c9260e0830151151590565b859060ff801983541691151516179055565b0151151590565b815461ff00191690151560081b61ff0016179055565b90947fed49e4bb714f78c9d13dac24a0919534b570f1deb3de0c3cc713dd7af0b42b959394611e046001600160a01b0394611dda611e5d94611d22611d1b8c61108a8a6001600160a01b03165f52600860205260405f2090565b5415611a73565b600a549b8c9a611d39611d348d611ad2565b600a55565b611d4285612557565b50611d5e611d58600b546001600160a01b031690565b86612576565b50611d698986612576565b50611d738161259d565b50611d8f611d89600b546001600160a01b031690565b826125b6565b50611d9a89826125b6565b50611da3611334565b94855260208501528560408501528b6060850152426080850152611dd38860a08601906001600160a01b03169052565b3691611360565b60c0820152600160e08201525f610100820152611dff885f52600760205260405f2090565b611c00565b85611e248861108a866001600160a01b03165f52600860205260405f2090565b55611e2f86846125d4565b611e42611e3d600954611ad2565b600955565b60405193849316968360209093929193604081019481520152565b0390a390565b90610e46611eeb6007611e74611334565b948054865260018101546020870152600281015460408701526003810154606087015260048101546080870152611ec8611eb860058301546001600160a01b031690565b6001600160a01b031660a0880152565b611ed460068201610e0e565b60c08701520154610bde60ff8216151560e0870152565b1515610100840152565b611f148261108a836001600160a01b03165f52600860205260405f2090565b54908115611fb7576001600160a01b039081611f2f846124fd565b91169182911603611fb757611f626111226005611f54855f52600760205260405f2090565b01546001600160a01b031690565b03611fb157611f896110cc6007611f81845f52600760205260405f2090565b015460ff1690565b611fb157611fa16003915f52600760205260405f2090565b015403611fad57600190565b5f90565b50505f90565b5050505f90565b9081602091031261025e575161030f81610771565b6040513d5f823e3d90fd5b15611fe557565b60405162461bcd60e51b815260206004820152602860248201527f4f6e6c79206465706c6f79656420656c656374696f6e20636f6e74726163747360448201527f20616c6c6f7765640000000000000000000000000000000000000000000000006064820152608490fd5b1561205757565b60405162461bcd60e51b815260206004820152600d60248201527f4e6f207061737320666f756e64000000000000000000000000000000000000006044820152606490fd5b156120a357565b60405162461bcd60e51b815260206004820152601460248201527f416c7265616479207573656420746f20766f74650000000000000000000000006044820152606490fd5b156120ef57565b60405162461bcd60e51b815260206004820152601a60248201527f43616e206f6e6c79206d696e7420666f7220796f757273656c660000000000006044820152606490fd5b1561213b57565b60405162461bcd60e51b815260206004820152601c60248201527f496e76616c696420636f6d6d697373696f6e207369676e6174757265000000006044820152606490fd5b94909693979599919892996001600160a01b03861699338b146121a2906120e8565b886121be886001600160a01b03165f52600860205260405f2090565b5f9182526020526040902054156121d490611a73565b6121e184868a8c8b61266a565b6121ea90612134565b600a549b8c9a6121f98c611ad2565b600a55369061220792611360565b6122109161283e565b94369061221c92611360565b612225916129ab565b61222e84612557565b50600b546001600160a01b03166122459085612576565b506122508585612576565b5061225a8161259d565b50600b546001600160a01b031661227190826125b6565b5061227c85826125b6565b50612285611334565b938452602084015260408301859052606083018690524260808401526001600160a01b03841660a084015236906122bb92611360565b60c0820152600160e082015261010081015f90526122e1855f52600760205260405f2090565b906122eb91611c00565b838084612309846001600160a01b03165f52600860205260405f2090565b5f918252602052604090205561231e916125d4565b60095461232a90611ad2565b6009556040805192835260208301919091527fed49e4bb714f78c9d13dac24a0919534b570f1deb3de0c3cc713dd7af0b42b9591a390565b909291612370818584611968565b833b61237d575b50505050565b60209161239f6040519485938493630a85bd0160e11b85523360048601612a25565b03815f6001600160a01b0387165af15f9181612444575b506123f057506123c4612a53565b80519190826123e957633250574960e11b5f526001600160a01b03821660045260245ffd5b6020915001fd5b7fffffffff000000000000000000000000000000000000000000000000000000001663757a42ff60e11b0161242957505f808080612377565b633250574960e11b5f526001600160a01b031660045260245ffd5b61246791925060203d60201161246e575b61245f8183610dec565b810190612a10565b905f6123b6565b503d612455565b60405190612484604083610dec565b600782527f5265766f6b6564000000000000000000000000000000000000000000000000006020830152565b604051906124bf604083610dec565b600682527f41637469766500000000000000000000000000000000000000000000000000006020830152565b805191908290602001825e015f815290565b805f5260026020526001600160a01b0360405f20541690811561251e575090565b637e27328960e01b5f5260045260245ffd5b6001600160a01b0360065416330361254457565b63118cdaa760e01b5f523360045260245ffd5b8015612568575b61030f3082612df1565b506125716130f5565b61255e565b908115612588575b61030f9082612df1565b905061030f6125956130f5565b91905061257e565b80156125ad5761030f3082612df1565b50612571613176565b9081156125c75761030f9082612df1565b905061030f612595613176565b906001600160a01b03821615611a4c57805f5260026020526001600160a01b0360405f205416151580612633575b6119d9575f612619916001600160a01b0393612c43565b1661262057565b6339e3563760e11b5f525f60045260245ffd5b506001612602565b4660010361264857600190565b4662aa36a7036126585761271190565b617a694614612665575f90565b5f1990565b92939190612710906040516126ba816126ac8660208301958a8791605493916bffffffffffffffffffffffff199060601b168352601483015260348201520190565b03601f198101835282610dec565b5190206040516126fc816126ac602082019485603c917f19457468657265756d205369676e6564204d6573736167653a0a3332000000008252601c8201520190565b51902061270a368588611360565b90612e6c565b93612726611122600b546001600160a01b031690565b94856001600160a01b03821614908115612818575b5061280e5760405160609490941b6bffffffffffffffffffffffff1916602085019081525f603486015260548501929092526127d09361270a929061278381607481016126ac565b5190206040516127c5816126ac602082019485603c917f19457468657265756d205369676e6564204d6573736167653a0a3332000000008252601c8201520190565b519020923691611360565b906001600160a01b038216149081156127e7575090565b61030f9150612807906001600160a01b03165f52600e60205260405f2090565b5460ff1690565b5050505050600190565b6128389150612807906001600160a01b03165f52600e60205260405f2090565b5f61273b565b8151909190156129735760086128a9926020925f6128896111226111227f9e7b61f58c47dc699ac88507c4f5bb9f121c03808c5676a8078fe583e4649701546001600160a01b031690565b926040519687958694859363045fc19560e11b8552339060048601612f61565b03925af190811561119a575f91612944575b506128f36111226111227f9e7b61f58c47dc699ac88507c4f5bb9f121c03808c5676a8078fe583e4649700546001600160a01b031690565b803b1561025e57604051630f8e573b60e21b815260048101839052336024820152905f908290604490829084905af1801561119a57612930575090565b8061293e5f61030f93610dec565b806102d0565b612966915060203d60201161296c575b61295e8183610dec565b810190612f31565b5f6128bb565b503d612954565b5080156129a2576129843382612eb1565b1561298c5790565b630276b5d960e01b5f526004523360245260445ffd5b5061030f6130f5565b8151909190156129f65760026128a9926020925f6128896111226111227f9e7b61f58c47dc699ac88507c4f5bb9f121c03808c5676a8078fe583e4649701546001600160a01b031690565b508015612a07576129843382612eb1565b5061030f613176565b9081602091031261025e575161030f81610234565b90926001600160a01b036080938161030f9796168452166020830152604082015281606082015201906102da565b3d15612a7d573d90612a6482611344565b91612a726040519384610dec565b82523d5f602084013e565b606090565b90612a8c82611344565b612a996040519182610dec565b8281528092612aaa601f1991611344565b0190602036910137565b805f917a184f03e93ff9f4daa797ed6e38ed64bf6a1f010000000000000000821015612bf9575b806d04ee2d6d415b85acef8100000000600a921015612bdd575b662386f26fc10000811015612bc8575b6305f5e100811015612bb6575b612710811015612ba6575b6064811015612b97575b1015612b8c575b612b776021612b3f60018501612a82565b938401015b5f1901917f3031323334353637383961626364656600000000000000000000000000000000600a82061a8353600a900490565b8015612b8757612b779091612b44565b505090565b600190910190612b2e565b60029060649004930192612b27565b6004906127109004930192612b1d565b6008906305f5e1009004930192612b12565b601090662386f26fc100009004930192612b05565b6020906d04ee2d6d415b85acef81000000009004930192612af5565b50604091507a184f03e93ff9f4daa797ed6e38ed64bf6a1f0100000000000000008104612adb565b612c33905f52600460205260405f2090565b80546001600160a01b0319169055565b815f5260026020526001600160a01b0360405f205416926001600160a01b038116612d1e575b506001600160a01b03831680612cee575b612ca06001600160a01b0383169283612cc7575b6104d3855f52600260205260405f2090565b7fddf252ad1be2c89b69c2b068fc378daa952ba7f163c4a11628f55a4df523b3ef5f80a490565b612ce2816001600160a01b03165f52600360205260405f2090565b60018154019055612c8e565b612cf783612c21565b612d12846001600160a01b03165f52600360205260405f2090565b80545f19019055612c7a565b612d396001600160a01b0382168015159081612d7f57501590565b15612c6957826001600160a01b038516612d5f57637e27328960e01b5f5260045260245ffd5b63177e802f60e01b5f526001600160a01b0390911660045260245260445ffd5b6001600160a01b03871680821492508215612dbe575b508115612da157501590565b9050845f5260046020526001600160a01b0360405f205416141590565b9091505f52600560205260ff612de88460405f20906001600160a01b03165f5260205260405f2090565b5416905f612d95565b6001600160a01b037f9e7b61f58c47dc699ac88507c4f5bb9f121c03808c5676a8078fe583e4649700541691823b1561025e57604051635ca4b5b160e11b815260048101929092526001600160a01b03166024820152905f908290604490829084905af1801561119a57612e625750565b5f610e4691610dec565b6041825103611fb15760805f918360208095015160606040830151920151851a604051938452868401526040830152606082015282805260015afa1561119a575f5190565b7f9e7b61f58c47dc699ac88507c4f5bb9f121c03808c5676a8078fe583e4649700546040516382027b6d60e01b815260048101929092526001600160a01b039283166024830152909160209183916044918391165afa90811561119a575f91612f18575090565b61030f915060203d602011611193576111858183610dec565b9081602091031261025e575190565b906054821015612f4d5752565b634e487b7160e01b5f52602160045260245ffd5b949391610e46936001600160a01b03612f909260609489521660208801526080604088015260808701906102da565b940190612f40565b9060028201809211611ae057565b908160021b917f3fffffffffffffffffffffffffffffffffffffffffffffffffffffffffffffff811603611ae057565b908151156130eb57612ffa612ff5612fee8451612f98565b6003900490565b612fa6565b90604051917f4142434445464748494a4b4c4d4e4f505152535455565758595a616263646566601f527f6768696a6b6c6d6e6f707172737475767778797a303132333435363738392b2f603f52602083018480518101602081018051915f82525b8089106130af575060209596975090600392915251068060011461309a5760021461308d575b50808452830101604052565b603d905f1901535f613081565b50603d90815f1982015360011901535f613081565b939760036004910198603f8a51818160121c165183538181600c1c16516001840153818160061c1651600284015316516003820153019361305b565b905061030f611a5f565b5f60206001600160a01b037f9e7b61f58c47dc699ac88507c4f5bb9f121c03808c5676a8078fe583e46497015416604460405180948193639cd07acb60e01b835281600484015261314a602484016008612f40565b5af190811561119a575f9161315d575090565b61030f915060203d60201161296c5761295e8183610dec565b5f60206001600160a01b037f9e7b61f58c47dc699ac88507c4f5bb9f121c03808c5676a8078fe583e46497015416604460405180948193639cd07acb60e01b835281600484015261314a602484016002612f4056fea164736f6c634300081b000a",
  "linkReferences": {},
  "deployedLinkReferences": {}
}