{
  "_format": "hh-sol-artifact-1",
  "contractName": "VoterRegistry",
  "sourceName": "contracts/VoterRegistry.sol",
  "abi": [
    {
      "inputs": [],
      "stateMutability": "nonpayable",
      "type": "constructor"
    },
    {
      "inputs": [
        {
          "internalType": "address",
          "name": "owner",
          "type": "address"
        }
      ],
      "name": "OwnableInvalidOwner",
      "type": "error"
    },
    {
      "inputs": [
        {
          "internalType": "address",
          "name": "account",
          "type": "address"
        }
      ],
      "name": "OwnableUnauthorizedAccount",
      "type": "error"
    },
    {
      "anonymous": false,
      "inputs": [
        {
          "indexed": false,
          "internalType": "uint256",
          "name": "count",
          "type": "uint256"
        },
        {
          "indexed": false,
          "internalType": "uint256",
          "name": "timestamp",
          "type": "uint256"
        }
      ],
      "name": "BatchRegistered",
      "type": "event"
    },
    {
      "anonymous": false,
      "inputs": [
        {
          "indexed": true,
          "internalType": "address",
          "name": "previousOwner",
          "type": "address"
        },
        {
          "indexed": true,
          "internalType": "address",
          "name": "newOwner",
          "type": "address"
        }
      ],
      "name": "OwnershipTransferred",
      "type": "event"
    },
    {
      "anonymous": false,
      "inputs": [
        {
          "indexed": true,
          "internalType": "address",
          "name": "registrar",
          "type": "address"
        }
      ],
      "name": "RegistrarAdded",
      "type": "event"
    },
    {
      "anonymous": false,
      "inputs": [
        {
          "indexed": true,
          "internalType": "address",
          "name": "registrar",
          "type": "address"
        }
      ],
      "name": "RegistrarRemoved",
      "type": "event"
    },
    {
      "anonymous": false,
      "inputs": [
        {
          "indexed": true,
          "internalType": "address",
          "name": "voter",
          "type": "address"
        },
        {
          "indexed": false,
          "internalType": "bytes32",
          "name": "voterIdHash",
          "type": "bytes32"
        },
        {
          "indexed": false,
          "internalType": "uint256",
          "name": "timestamp",
          "type": "uint256"
        }
      ],
      "name": "VoterRegistered",
      "type": "event"
    },
    {
      "anonymous": false,
      "inputs": [
        {
          "indexed": true,
          "internalType": "address",
          "name": "voter",
          "type": "address"
        },
        {
          "indexed": false,
          "internalType": "uint256",
          "name": "timestamp",
          "type": "uint256"
        }
      ],
      "name": "VoterRevoked",
      "type": "event"
    },
    {
      "inputs": [
        {
          "internalType": "address",
          "name": "registrar",
          "type": "address"
        }
      ],
      "name": "addRegistrar",
      "outputs": [],
      "stateMutability": "nonpayable",
      "type": "function"
    },
    {
      "inputs": [],
      "name": "getAllVoters",
      "outputs": [
        {
          "internalType": "address[]",
          "name": "",
          "type": "address[]"
        }
      ],
      "stateMutability": "view",
      "type": "function"
    },
    {
      "inputs": [],
      "name": "getVoterCount",
      "outputs": [
        {
          "internalType": "uint256",
          "name": "",
          "type": "uint256"
        }
      ],
      "stateMutability": "view",
      "type": "function"
    },
    {
      "inputs": [
        {
          "internalType": "address",
          "name": "voter",
          "type": "address"
        }
      ],
      "name": "getVoterIdHash",
      "outputs": [
        {
          "internalType": "bytes32",
          "name": "",
          "type": "bytes32"
        }
      ],
      "stateMutability": "view",
      "type": "function"
    },
    {
      "inputs": [
        {
          "internalType": "address",
          "name": "voter",
          "type": "address"
        }
      ],
      "name": "getVoterInfo",
      "outputs": [
        {
          "internalType": "bool",
          "name": "registered",
          "type": "bool"
        },
        {
          "internalType": "bytes32",
          "name": "idHash",
          "type": "bytes32"
        },
        {
          "internalType": "uint256",
          "name": "since",
          "type": "uint256"
        }
      ],
      "stateMutability": "view",
      "type": "function"
    },
    {
      "inputs": [
        {
          "internalType": "address",
          "name": "",
          "type": "address"
        }
      ],
      "name": "isRegisteredVoter",
      "outputs": [
        {
          "internalType": "bool",
          "name": "",
          "type": "bool"
        }
      ],
      "stateMutability": "view",
      "type": "function"
    },
    {
      "inputs": [
        {
          "internalType": "address",
          "name": "",
          "type": "address"
        }
      ],
      "name": "isRegistrar",
      "outputs": [
        {
          "internalType": "bool",
          "name": "",
          "type": "bool"
        }
      ],
      "stateMutability": "view",
      "type": "function"
    },
    {
      "inputs": [],
      "name": "owner",
      "outputs": [
        {
          "internalType": "address",
          "name": "",
          "type": "address"
        }
      ],
      "stateMutability": "view",
      "type": "function"
    },
    {
      "inputs": [
        {
          "internalType": "address",
          "name": "voter",
          "type": "address"
        },
        {
          "internalType": "bytes32",
          "name": "_voterIdHash",
          "type": "bytes32"
        }
      ],
      "name": "registerVoter",
      "outputs": [],
      "stateMutability": "nonpayable",
      "type": "function"
    },
    {
      "inputs": [
        {
          "internalType": "address[]",
          "name": "voters",
          "type": "address[]"
        },
        {
          "internalType": "bytes32[]",
          "name": "hashes",
          "type": "bytes32[]"
        }
      ],
      "name": "registerVotersBatch",
      "outputs": [],
      "stateMutability": "nonpayable",
      "type": "function"
    },
    {
      "inputs": [
        {
          "internalType": "address",
          "name": "",
          "type": "address"
        }
      ],
      "name": "registeredAt",
      "outputs": [
        {
          "internalType": "uint256",
          "name": "",
          "type": "uint256"
        }
      ],
      "stateMutability": "view",
      "type": "function"
    },
    {
      "inputs": [
        {
          "internalType": "address",
          "name": "registrar",
          "type": "address"
        }
      ],
      "name": "removeRegistrar",
      "outputs": [],
      "stateMutability": "nonpayable",
      "type": "function"
    },
    {
      "inputs": [],
      "name": "renounceOwnership",
      "outputs": [],
      "stateMutability": "nonpayable",
      "type": "function"
    },
    {
      "inputs": [
        {
          "internalType": "address",
          "name": "voter",
          "type": "address"
        }
      ],
      "name": "revokeVoter",
      "outputs": [],
      "stateMutability": "nonpayable",
      "type": "function"
    },
    {
      "inputs": [
        {
          "internalType": "address",
          "name": "newOwner",
          "type": "address"
        }
      ],
      "name": "transferOwnership",
      "outputs": [],
      "stateMutability": "nonpayable",
      "type": "function"
    },
    {
      "inputs": [],
      "name": "voterCount",
      "outputs": [
        {
          "internalType": "uint256",
          "name": "",
          "type": "uint256"
        }
      ],
      "stateMutability": "view",
      "type": "function"
    },
    {
      "inputs": [
        {
          "internalType": "address",
          "name": "",
          "type": "address"
        }
      ],
      "name": "voterIdHash",
      "outputs": [
        {
          "internalType": "bytes32",
          "name": "",
          "type": "bytes32"
        }
      ],
      "stateMutability": "view",
      "type": "function"
    },
    {
      "inputs": [
        {
          "internalType": "uint256",
          "name": "",
          "type": "uint256"
        }
      ],
      "name": "voterList",
      "outputs": [
        {
          "internalType": "address",
          "name": "",
          "type": "address"
        }
      ],
      "stateMutability": "view",
      "type": "function"
    }
  ],
  "bytecode": "0x608080604052346071573315605e575f8054336001600160a01b0319821681178355916001600160a01b03909116907f8be0079c531659141344cd1fd0a4f28419497f9722a3daafe3b4186f6b6457e09080a3610c7390816100768239f35b631e4fbdf760e01b5f525f60045260245ffd5b5f80fdfe6080806040526004361015610012575f80fd5b5f3560e01c90816311174a2914610ad6575080632a1fac1614610a1257806335bbe70e1461092157806342169e481461090457806350e2e8af146108ab578063715018a6146108475780638da5cb5b146108225780639ed1f255146107be578063aa084962146104ef578063aaea3d9c146104b7578063af92a69314610450578063b1a1f056146103b4578063ba904eed146103ec578063d4c02ac4146103b4578063d5db72eb14610377578063da36cffe1461033a578063f2fde38b146102aa5763fc6e1d76146100e2575f80fd5b346102a65760403660031901126102a6576100fb610af0565b6024356001600160a01b035f54163314801561028e575b61011b90610b37565b6001600160a01b03821691821561024957825f52600160205260ff60405f2054166102045781156101bf577f091358cc6c9d9ca913b5548b793894caf50674cd0853947dbaafd5bb7cebe0eb916101a3604092855f526001602052835f20600160ff19825416179055855f52600260205282845f2055855f52600360205242845f2055610ba7565b6101ae600554610c1e565b6005558151908152426020820152a2005b60405162461bcd60e51b815260206004820152600c60248201527f496e76616c6964206861736800000000000000000000000000000000000000006044820152606490fd5b60405162461bcd60e51b815260206004820152601260248201527f416c7265616479207265676973746572656400000000000000000000000000006044820152606490fd5b60405162461bcd60e51b815260206004820152600c60248201527f5a65726f206164647265737300000000000000000000000000000000000000006044820152606490fd5b50335f9081526006602052604090205460ff16610112565b5f80fd5b346102a65760203660031901126102a6576001600160a01b036102cb610af0565b6102d3610c40565b168015610327576001600160a01b035f548273ffffffffffffffffffffffffffffffffffffffff198216175f55167f8be0079c531659141344cd1fd0a4f28419497f9722a3daafe3b4186f6b6457e05f80a3005b631e4fbdf760e01b5f525f60045260245ffd5b346102a65760203660031901126102a6576001600160a01b0361035b610af0565b165f526001602052602060ff60405f2054166040519015158152f35b346102a65760203660031901126102a6576001600160a01b03610398610af0565b165f526006602052602060ff60405f2054166040519015158152f35b346102a65760203660031901126102a6576001600160a01b036103d5610af0565b165f526002602052602060405f2054604051908152f35b346102a65760203660031901126102a6576001600160a01b0361040d610af0565b610415610c40565b16805f52600660205260405f2060ff1981541690557f81cb97a294b3ff5f91ef4048b3173c7f8f6943d9750add2071199061165e5f575f80a2005b346102a65760203660031901126102a6576001600160a01b03610471610af0565b610479610c40565b16805f52600660205260405f20600160ff198254161790557f5c38ce8ff8864a9d2a5ff5aec72a88770e38d181dea59173fde1247cdaa1aea35f80a2005b346102a65760203660031901126102a6576001600160a01b036104d8610af0565b165f526003602052602060405f2054604051908152f35b346102a65760403660031901126102a65760043567ffffffffffffffff81116102a657610520903690600401610b06565b9060243567ffffffffffffffff81116102a657610541903690600401610b06565b6001600160a01b035f5416331480156107a6575b61055e90610b37565b808403610761576101f4841161071c575f5b8481106105a9577f5147e56f82dd95b39d986545d47fcc2f02ebe9938671c93e73ec1f28404cef7d6040868151908152426020820152a1005b806001600160a01b036105c76105c26001948989610b83565b610b93565b161515806106f0575b806106dc575b6105e1575b01610570565b6001600160a01b036105f76105c2838989610b83565b165f528160205260405f208260ff19825416179055610617818486610b83565b356001600160a01b0361062e6105c2848a8a610b83565b165f52600260205260405f20556001600160a01b036106516105c2838989610b83565b165f5260036020524260405f20556106756106706105c2838989610b83565b610ba7565b610680600554610c1e565b6005556106916105c2828888610b83565b7f091358cc6c9d9ca913b5548b793894caf50674cd0853947dbaafd5bb7cebe0eb60406001600160a01b036106c785888a610b83565b359382519485524260208601521692a26105db565b506106e8818486610b83565b3515156105d6565b506001600160a01b036107076105c2838989610b83565b165f528160205260ff60405f205416156105d0565b60405162461bcd60e51b815260206004820152601160248201527f4d617820353030207065722062617463680000000000000000000000000000006044820152606490fd5b60405162461bcd60e51b815260206004820152600f60248201527f4c656e677468206d69736d6174636800000000000000000000000000000000006044820152606490fd5b50335f9081526006602052604090205460ff16610555565b346102a65760203660031901126102a65760606001600160a01b036107e1610af0565b16805f52600160205260ff60405f20541690805f52600260205260405f2054905f52600360205260405f205490604051921515835260208301526040820152f35b346102a6575f3660031901126102a65760206001600160a01b035f5416604051908152f35b346102a6575f3660031901126102a65761085f610c40565b5f6001600160a01b03815473ffffffffffffffffffffffffffffffffffffffff1981168355167f8be0079c531659141344cd1fd0a4f28419497f9722a3daafe3b4186f6b6457e08280a3005b346102a65760203660031901126102a6576004356004548110156102a6576004548110156108f0576001600160a01b0360209160045f52825f20015416604051908152f35b634e487b7160e01b5f52603260045260245ffd5b346102a6575f3660031901126102a6576020600554604051908152f35b346102a6575f3660031901126102a6576040518060206004549182815201809160045f527f8a35acfbc15ff81a39ae7d344fd709f28e8600b4aa8c65c6b64bfe7fe36bd19b905f5b8181106109f357505050829003601f01601f191682019167ffffffffffffffff8311818410176109df5790829182604052602083019060208452518091526040830191905f5b8181106109bd575050500390f35b82516001600160a01b03168452859450602093840193909201916001016109af565b634e487b7160e01b5f52604160045260245ffd5b82546001600160a01b0316845260209093019260019283019201610969565b346102a65760203660031901126102a6576001600160a01b03610a33610af0565b610a3b610c40565b16805f52600160205260ff60405f20541615610a9157805f52600160205260405f2060ff1981541690557f63d4608dd4a9c8490c1cb4707a81d0ba78a7647c52d8d1a51f9b4252d62a69e16020604051428152a2005b60405162461bcd60e51b815260206004820152600e60248201527f4e6f7420726567697374657265640000000000000000000000000000000000006044820152606490fd5b346102a6575f3660031901126102a6576020906005548152f35b600435906001600160a01b03821682036102a657565b9181601f840112156102a65782359167ffffffffffffffff83116102a6576020808501948460051b0101116102a657565b15610b3e57565b60405162461bcd60e51b815260206004820152600e60248201527f4e6f7420617574686f72697a65640000000000000000000000000000000000006044820152606490fd5b91908110156108f05760051b0190565b356001600160a01b03811681036102a65790565b600454680100000000000000008110156109df57600181016004556004548110156108f05760045f527f8a35acfbc15ff81a39ae7d344fd709f28e8600b4aa8c65c6b64bfe7fe36bd19b01805473ffffffffffffffffffffffffffffffffffffffff19166001600160a01b03909216919091179055565b5f198114610c2c5760010190565b634e487b7160e01b5f52601160045260245ffd5b6001600160a01b035f54163303610c5357565b63118cdaa760e01b5f523360045260245ffdfea164736f6c634300081b000a",
  "linkReferences": {},
  "deployedLinkReferences": {}
}