{
  "_format": "hh-sol-artifact-1",
  "contractName": "VoterEligibilityPass",
  "sourceName": "contracts/VoterEligibilityPass.sol",
  "abi": [
    {
      "inputs": [
        {
          "internalType": "address",
          "name": "_commission",
          "type": "address"
        }
      ],
      "stateMutability": "nonpayable",
      "type": "constructor"
    },
    {
      "inputs": [
        {
          "internalType": "address",
          "name": "sender",
          "type": "address"
        },
        {
          "internalType": "uint256",
          "name": "tokenId",
          "type": "uint256"
        },
        {
          "internalType": "address",
          "name": "owner",
          "type": "address"
        }
      ],
      "name": "ERC721IncorrectOwner",
      "type": "error"
    },
    {
      "inputs": [
        {
          "internalType": "address",
          "name": "operator",
          "type": "address"
        },
        {
          "internalType": "uint256",
          "name": "tokenId",
          "type": "uint256"
        }
      ],
      "name": "ERC721InsufficientApproval",
      "type": "error"
    },
    {
      "inputs": [
        {
          "internalType": "address",
          "name": "approver",
          "type": "address"
        }
      ],
      "name": "ERC721InvalidApprover",
      "type": "error"
    },
    {
      "inputs": [
        {
          "internalType": "address",
          "name": "operator",
          "type": "address"
        }
      ],
      "name": "ERC721InvalidOperator",
      "type": "error"
    },
    {
      "inputs": [
        {
          "internalType": "address",
          "name": "owner",
          "type": "address"
        }
      ],
      "name": "ERC721InvalidOwner",
      "type": "error"
    },
    {
      "inputs": [
        {
          "internalType": "address",
          "name": "receiver",
          "type": "address"
        }
      ],
      "name": "ERC721InvalidReceiver",
      "type": "error"
    },
    {
      "inputs": [
        {
          "internalType": "address",
          "name": "sender",
          "type": "address"
        }
      ],
      "name": "ERC721InvalidSender",
      "type": "error"
    },
    {
      "inputs": [
        {
          "internalType": "uint256",
          "name": "tokenId",
          "type": "uint256"
        }
      ],
      "name": "ERC721NonexistentToken",
      "type": "error"
    },
    {
      "inputs": [
        {
          "internalType": "address",
          "name": "owner",
          "type": "address"
        }
      ],
      "name": "OwnableInvalidOwner",
      "type": "error"
    },
    {
      "inputs": [
        {
          "internalType": "address",
          "name": "account",
          "type": "address"
        }
      ],
      "name": "OwnableUnauthorizedAccount",
      "type": "error"
    },
    {
      "inputs": [
        {
          "internalType": "bytes32",
          "name": "handle",
          "type": "bytes32"
        },
        {
          "internalType": "address",
          "name": "sender",
          "type": "address"
        }
      ],
      "name": "SenderNotAllowedToUseHandle",
      "type": "error"
    },
    {
      "inputs": [],
      "name": "ZamaProtocolUnsupported",
      "type": "error"
    },
    {
      "anonymous": false,
      "inputs": [
        {
          "indexed": true,
          "internalType": "address",
          "name": "owner",
          "type": "address"
        },
        {
          "indexed": true,
          "internalType": "address",
          "name": "approved",
          "type": "address"
        },
        {
          "indexed": true,
          "internalType": "uint256",
          "name": "tokenId",
          "type": "uint256"
        }
      ],
      "name": "Approval",
      "type": "event"
    },
    {
      "anonymous": false,
      "inputs": [
        {
          "indexed": true,
          "internalType": "address",
          "name": "owner",
          "type": "address"
        },
        {
          "indexed": true,
          "internalType": "address",
          "name": "operator",
          "type": "address"
        },
        {
          "indexed": false,
          "internalType": "bool",
          "name": "approved",
          "type": "bool"
        }
      ],
      "name": "ApprovalForAll",
      "type": "event"
    },
    {
      "anonymous": false,
      "inputs": [
        {
          "indexed": true,
          "internalType": "address",
          "name": "previousOwner",
          "type": "address"
        },
        {
          "indexed": true,
          "internalType": "address",
          "name": "newOwner",
          "type": "address"
        }
      ],
      "name": "OwnershipTransferred",
      "type": "event"
    },
    {
      "anonymous": false,
      "inputs": [
        {
          "indexed": true,
          "internalType": "address",
          "name": "from",
          "type": "address"
        },
        {
          "indexed": true,
          "internalType": "address",
          "name": "to",
          "type": "address"
        },
        {
          "indexed": true,
          "internalType": "uint256",
          "name": "tokenId",
          "type": "uint256"
        }
      ],
      "name": "Transfer",
      "type": "event"
    },
    {
      "anonymous": false,
      "inputs": [
        {
          "indexed": true,
          "internalType": "uint256",
          "name": "tokenId",
          "type": "uint256"
        },
        {
          "indexed": true,
          "internalType": "address",
          "name": "voter",
          "type": "address"
        },
        {
          "indexed": false,
          "internalType": "uint256",
          "name": "electionId",
          "type": "uint256"
        },
        {
          "indexed": false,
          "internalType": "bytes32",
          "name": "commitmentHash",
          "type": "bytes32"
        }
      ],
      "name": "VoterPassMinted",
      "type": "event"
    },
    {
      "anonymous": false,
      "inputs": [
        {
          "indexed": true,
          "internalType": "uint256",
          "name": "tokenId",
          "type": "uint256"
        },
        {
          "indexed": true,
          "internalType": "address",
          "name": "voter",
          "type": "address"
        },
        {
          "indexed": false,
          "internalType": "string",
          "name": "reason",
          "type": "string"
        }
      ],
      "name": "VoterPassRevoked",
      "type": "event"
    },
    {
      "anonymous": false,
      "inputs": [
        {
          "indexed": true,
          "internalType": "uint256",
          "name": "tokenId",
          "type": "uint256"
        },
        {
          "indexed": true,
          "internalType": "address",
          "name": "voter",
          "type": "address"
        },
        {
          "indexed": false,
          "internalType": "uint256",
          "name": "electionId",
          "type": "uint256"
        }
      ],
      "name": "VoterPassUsedToVote",
      "type": "event"
    },
    {
      "inputs": [
        {
          "internalType": "address",
          "name": "to",
          "type": "address"
        },
        {
          "internalType": "uint256",
          "name": "tokenId",
          "type": "uint256"
        }
      ],
      "name": "approve",
      "outputs": [],
      "stateMutability": "nonpayable",
      "type": "function"
    },
    {
      "inputs": [
        {
          "internalType": "address",
          "name": "owner",
          "type": "address"
        }
      ],
      "name": "balanceOf",
      "outputs": [
        {
          "internalType": "uint256",
          "name": "",
          "type": "uint256"
        }
      ],
      "stateMutability": "view",
      "type": "function"
    },
    {
      "inputs": [],
      "name": "commissionAddress",
      "outputs": [
        {
          "internalType": "address",
          "name": "",
          "type": "address"
        }
      ],
      "stateMutability": "view",
      "type": "function"
    },
    {
      "inputs": [],
      "name": "confidentialProtocolId",
      "outputs": [
        {
          "internalType": "uint256",
          "name": "",
          "type": "uint256"
        }
      ],
      "stateMutability": "view",
      "type": "function"
    },
    {
      "inputs": [],
      "name": "electionFactoryAddress",
      "outputs": [
        {
          "internalType": "address",
          "name": "",
          "type": "address"
        }
      ],
      "stateMutability": "view",
      "type": "function"
    },
    {
      "inputs": [
        {
          "internalType": "uint256",
          "name": "tokenId",
          "type": "uint256"
        }
      ],
      "name": "getApproved",
      "outputs": [
        {
          "internalType": "address",
          "name": "",
          "type": "address"
        }
      ],
      "stateMutability": "view",
      "type": "function"
    },
    {
      "inputs": [
        {
          "internalType": "address",
          "name": "voter",
          "type": "address"
        },
        {
          "internalType": "uint256",
          "name": "electionId",
          "type": "uint256"
        }
      ],
      "name": "getPassByWalletAndElection",
      "outputs": [
        {
          "internalType": "uint256",
          "name": "",
          "type": "uint256"
        }
      ],
      "stateMutability": "view",
      "type": "function"
    },
    {
      "inputs": [
        {
          "internalType": "uint256",
          "name": "tokenId",
          "type": "uint256"
        }
      ],
      "name": "getPassMetadata",
      "outputs": [
        {
          "components": [
            {
              "internalType": "euint256",
              "name": "encryptedVoterIdentity",
              "type": "bytes32"
            },
            {
              "internalType": "euint8",
              "name": "encryptedDocumentType",
              "type": "bytes32"
            },
            {
              "internalType": "bytes32",
              "name": "commitmentHash",
              "type": "bytes32"
            },
            {
              "internalType": "uint256",
              "name": "electionId",
              "type": "uint256"
            },
            {
              "internalType": "uint256",
              "name": "mintedAt",
              "type": "uint256"
            },
            {
              "internalType": "address",
              "name": "originalMinter",
              "type": "address"
            },
            {
              "internalType": "bytes",
              "name": "commissionSignature",
              "type": "bytes"
            },
            {
              "internalType": "bool",
              "name": "isActive",
              "type": "bool"
            },
            {
              "internalType": "bool",
              "name": "hasBeenUsedToVote",
              "type": "bool"
            }
          ],
          "internalType": "struct VoterEligibilityPass.VoterPassMetadata",
          "name": "",
          "type": "tuple"
        }
      ],
      "stateMutability": "view",
      "type": "function"
    },
    {
      "inputs": [
        {
          "internalType": "address",
          "name": "owner",
          "type": "address"
        },
        {
          "internalType": "address",
          "name": "operator",
          "type": "address"
        }
      ],
      "name": "isApprovedForAll",
      "outputs": [
        {
          "internalType": "bool",
          "name": "",
          "type": "bool"
        }
      ],
      "stateMutability": "view",
      "type": "function"
    },
    {
      "inputs": [
        {
          "internalType": "address",
          "name": "",
          "type": "address"
        }
      ],
      "name": "isAuthorizedMinter",
      "outputs": [
        {
          "internalType": "bool",
          "name": "",
          "type": "bool"
        }
      ],
      "stateMutability": "view",
      "type": "function"
    },
    {
      "inputs": [
        {
          "internalType": "address",
          "name": "",
          "type": "address"
        }
      ],
      "name": "isAuthorizedSigner",
      "outputs": [
        {
          "internalType": "bool",
          "name": "",
          "type": "bool"
        }
      ],
      "stateMutability": "view",
      "type": "function"
    },
    {
      "inputs": [
        {
          "internalType": "address",
          "name": "voter",
          "type": "address"
        },
        {
          "internalType": "uint256",
          "name": "electionId",
          "type": "uint256"
        }
      ],
      "name": "markPassAsUsed",
      "outputs": [
        {
          "internalType": "bool",
          "name": "",
          "type": "bool"
        }
      ],
      "stateMutability": "nonpayable",
      "type": "function"
    },
    {
      "inputs": [
        {
          "internalType": "address",
          "name": "voter",
          "type": "address"
        },
        {
          "internalType": "uint256",
          "name": "electionId",
          "type": "uint256"
        },
        {
          "internalType": "externalEuint256",
          "name": "encryptedIdentity",
          "type": "bytes32"
        },
        {
          "internalType": "bytes",
          "name": "identityProof",
          "type": "bytes"
        },
        {
          "internalType": "externalEuint8",
          "name": "encryptedDocType",
          "type": "bytes32"
        },
        {
          "internalType": "bytes",
          "name": "docTypeProof",
          "type": "bytes"
        },
        {
          "internalType": "bytes32",
          "name": "commitmentHash",
          "type": "bytes32"
        },
        {
          "internalType": "bytes",
          "name": "commissionSignature",
          "type": "bytes"
        }
      ],
      "name": "mintVoterPass",
      "outputs": [
        {
          "internalType": "uint256",
          "name": "",
          "type": "uint256"
        }
      ],
      "stateMutability": "nonpayable",
      "type": "function"
    },
    {
      "inputs": [
        {
          "internalType": "address",
          "name": "voter",
          "type": "address"
        },
        {
          "internalType": "uint256",
          "name": "electionId",
          "type": "uint256"
        },
        {
          "internalType": "euint256",
          "name": "identity",
          "type": "bytes32"
        },
        {
          "internalType": "euint8",
          "name": "docType",
          "type": "bytes32"
        },
        {
          "internalType": "bytes32",
          "name": "commitmentHash",
          "type": "bytes32"
        },
        {
          "internalType": "bytes",
          "name": "commissionSignature",
          "type": "bytes"
        }
      ],
      "name": "mintVoterPassDirect",
      "outputs": [
        {
          "internalType": "uint256",
          "name": "",
          "type": "uint256"
        }
      ],
      "stateMutability": "nonpayable",
      "type": "function"
    },
    {
      "inputs": [],
      "name": "name",
      "outputs": [
        {
          "internalType": "string",
          "name": "",
          "type": "string"
        }
      ],
      "stateMutability": "view",
      "type": "function"
    },
    {
      "inputs": [],
      "name": "owner",
      "outputs": [
        {
          "internalType": "address",
          "name": "",
          "type": "address"
        }
      ],
      "stateMutability": "view",
      "type": "function"
    },
    {
      "inputs": [
        {
          "internalType": "uint256",
          "name": "tokenId",
          "type": "uint256"
        }
      ],
      "name": "ownerOf",
      "outputs": [
        {
          "internalType": "address",
          "name": "",
          "type": "address"
        }
      ],
      "stateMutability": "view",
      "type": "function"
    },
    {
      "inputs": [
        {
          "internalType": "uint256",
          "name": "",
          "type": "uint256"
        }
      ],
      "name": "passMetadata",
      "outputs": [
        {
          "internalType": "euint256",
          "name": "encryptedVoterIdentity",
          "type": "bytes32"
        },
        {
          "internalType": "euint8",
          "name": "encryptedDocumentType",
          "type": "bytes32"
        },
        {
          "internalType": "bytes32",
          "name": "commitmentHash",
          "type": "bytes32"
        },
        {
          "internalType": "uint256",
          "name": "electionId",
          "type": "uint256"
        },
        {
          "internalType": "uint256",
          "name": "mintedAt",
          "type": "uint256"
        },
        {
          "internalType": "address",
          "name": "originalMinter",
          "type": "address"
        },
        {
          "internalType": "bytes",
          "name": "commissionSignature",
          "type": "bytes"
        },
        {
          "internalType": "bool",
          "name": "isActive",
          "type": "bool"
        },
        {
          "internalType": "bool",
          "name": "hasBeenUsedToVote",
          "type": "bool"
        }
      ],
      "stateMutability": "view",
      "type": "function"
    },
    {
      "inputs": [],
      "name": "renounceOwnership",
      "outputs": [],
      "stateMutability": "nonpayable",
      "type": "function"
    },
    {
      "inputs": [
        {
          "internalType": "uint256",
          "name": "tokenId",
          "type": "uint256"
        },
        {
          "internalType": "string",
          "name": "reason",
          "type": "string"
        }
      ],
      "name": "revokePass",
      "outputs": [],
      "stateMutability": "nonpayable",
      "type": "function"
    },
    {
      "inputs": [
        {
          "internalType": "address",
          "name": "from",
          "type": "address"
        },
        {
          "internalType": "address",
          "name": "to",
          "type": "address"
        },
        {
          "internalType": "uint256",
          "name": "tokenId",
          "type": "uint256"
        }
      ],
      "name": "safeTransferFrom",
      "outputs": [],
      "stateMutability": "nonpayable",
      "type": "function"
    },
    {
      "inputs": [
        {
          "internalType": "address",
          "name": "from",
          "type": "address"
        },
        {
          "internalType": "address",
          "name": "to",
          "type": "address"
        },
        {
          "internalType": "uint256",
          "name": "tokenId",
          "type": "uint256"
        },
        {
          "internalType": "bytes",
          "name": "data",
          "type": "bytes"
        }
      ],
      "name": "safeTransferFrom",
      "outputs": [],
      "stateMutability": "nonpayable",
      "type": "function"
    },
    {
      "inputs": [
        {
          "internalType": "address",
          "name": "operator",
          "type": "address"
        },
        {
          "internalType": "bool",
          "name": "approved",
          "type": "bool"
        }
      ],
      "name": "setApprovalForAll",
      "outputs": [],
      "stateMutability": "nonpayable",
      "type": "function"
    },
    {
      "inputs": [
        {
          "internalType": "address",
          "name": "minter",
          "type": "address"
        },
        {
          "internalType": "bool",
          "name": "authorized",
          "type": "bool"
        }
      ],
      "name": "setAuthorizedMinter",
      "outputs": [],
      "stateMutability": "nonpayable",
      "type": "function"
    },
    {
      "inputs": [
        {
          "internalType": "address",
          "name": "signer_",
          "type": "address"
        },
        {
          "internalType": "bool",
          "name": "authorized",
          "type": "bool"
        }
      ],
      "name": "setAuthorizedSigner",
      "outputs": [],
      "stateMutability": "nonpayable",
      "type": "function"
    },
    {
      "inputs": [
        {
          "internalType": "address",
          "name": "_factory",
          "type": "address"
        }
      ],
      "name": "setElectionFactory",
      "outputs": [],
      "stateMutability": "nonpayable",
      "type": "function"
    },
    {
      "inputs": [
        {
          "internalType": "bytes4",
          "name": "interfaceId",
          "type": "bytes4"
        }
      ],
      "name": "supportsInterface",
      "outputs": [
        {
          "internalType": "bool",
          "name": "",
          "type": "bool"
        }
      ],
      "stateMutability": "view",
      "type": "function"
    },
    {
      "inputs": [],
      "name": "symbol",
      "outputs": [
        {
          "internalType": "string",
          "name": "",
          "type": "string"
        }
      ],
      "stateMutability": "view",
      "type": "function"
    },
    {
      "inputs": [
        {
          "internalType": "uint256",
          "name": "tokenId",
          "type": "uint256"
        }
      ],
      "name": "tokenURI",
      "outputs": [
        {
          "internalType": "string",
          "name": "",
          "type": "string"
        }
      ],
      "stateMutability": "view",
      "type": "function"
    },
    {
      "inputs": [],
      "name": "totalPassesMinted",
      "outputs": [
        {
          "internalType": "uint256",
          "name": "",
          "type": "uint256"
        }
      ],
      "stateMutability": "view",
      "type": "function"
    },
    {
      "inputs": [
        {
          "internalType": "address",
          "name": "from",
          "type": "address"
        },
        {
          "internalType": "address",
          "name": "to",
          "type": "address"
        },
        {
          "internalType": "uint256",
          "name": "tokenId",
          "type": "uint256"
        }
      ],
      "name": "transferFrom",
      "outputs": [],
      "stateMutability": "nonpayable",
      "type": "function"
    },
    {
      "inputs": [
        {
          "internalType": "address",
          "name": "newOwner",
          "type": "address"
        }
      ],
      "name": "transferOwnership",
      "outputs": [],
      "stateMutability": "nonpayable",
      "type": "function"
    },
    {
      "inputs": [
        {
          "internalType": "address",
          "name": "voter",
          "type": "address"
        },
        {
          "internalType": "uint256",
          "name": "electionId",
          "type": "uint256"
        }
      ],
      "name": "verifyVoterPass",
      "outputs": [
        {
          "internalType": "bool",
          "name": "",
          "type": "bool"
        }
      ],
      "stateMutability": "view",
      "type": "function"
    },
    {
      "inputs": [
        {
          "internalType": "address",
          "name": "",
          "type": "address"
        },
        {
          "internalType": "uint256",
          "name": "",
          "type": "uint256"
        }
      ],
      "name": "walletTokens",
      "outputs": [
        {
          "internalType": "uint256",
          "name": "",
          "type": "uint256"
        }
      ],
      "stateMutability": "view",
      "type": "function"
    }
  ],
  "bytecode": "0x6080604052346105db57614eef6020813803918261001c816105fe565b9384928339810103126105db57516001600160a01b038116908190036105db5761004660406105fe565b906009825268566f7465725061737360b81b602083015261006760406105fe565b600681526556455041535360d01b602082015282519091906001600160401b0381116104ef575f54600181811c911680156105d1575b60208210146104d157601f811161056f575b506020601f821160011461050e57819293945f92610503575b50508160011b915f199060031b1c1916175f555b81516001600160401b0381116104ef57600154600181811c911680156104e5575b60208210146104d157601f811161046e575b50602092601f821160011461040d57928192935f92610402575b50508160011b915f199060031b1c1916176001555b33156103ef5760068054336001600160a01b0319821681179092556001600160a01b03167f8be0079c531659141344cd1fd0a4f28419497f9722a3daafe3b4186f6b6457e05f80a361018e610623565b504660010361030b5761019f610623565b506101a86105df565b73ca2e8f1f656cd25c01f05d0b243ab1ecd4a8ffb6815273d82385dada1ae3e969447f20a3164f6213100e7560208201527377627828a55156b04ac0dc0eb30467f1a552bb0360408201525b80517f9e7b61f58c47dc699ac88507c4f5bb9f121c03808c5676a8078fe583e464970080546001600160a01b03199081166001600160a01b039384161790915560208301517f9e7b61f58c47dc699ac88507c4f5bb9f121c03808c5676a8078fe583e4649701805483169184169190911790556040909201517f9e7b61f58c47dc699ac88507c4f5bb9f121c03808c5676a8078fe583e4649702805490931691161790556001600a5580156102c657600b80546001600160a01b0319169190911790556040516148b1908161063e8239f35b60405162461bcd60e51b815260206004820152601a60248201527f496e76616c696420636f6d6d697373696f6e20616464726573730000000000006044820152606490fd5b4662aa36a7036103765761031d610623565b506103266105df565b73f0ffdc93b7e186bc2f8cb3daa75d86d1930a433d81527392c920834ec8941d2c77d188936e1f7a6f49c127602082015273be0e383937d564d7ff0bc3b46c51f0bf8d5c311a60408201526101f4565b46617a69036103e057610387610623565b506103906105df565b7350157cffd6bbfa2dece204a89ec419c23ef5755d815273e3a9105a3a932253a70f126eb1e3b589c643dd24602082015273901f8942346f7ab3a01f6d7613119bca447bb03060408201526101f4565b6373cac13b60e01b5f5260045ffd5b631e4fbdf760e01b5f525f60045260245ffd5b015190505f80610129565b601f1982169360015f52805f20915f5b868110610456575083600195961061043e575b505050811b0160015561013e565b01515f1960f88460031b161c191690555f8080610430565b9192602060018192868501518155019401920161041d565b60015f527fb10e2d527612073b26eecdfd717e6a320cf44b4afac2b0732d9fcbe2b7fa0cf6601f830160051c810191602084106104c7575b601f0160051c01905b8181106104bc575061010f565b5f81556001016104af565b90915081906104a6565b634e487b7160e01b5f52602260045260245ffd5b90607f16906100fd565b634e487b7160e01b5f52604160045260245ffd5b015190505f806100c8565b601f198216905f8052805f20915f5b8181106105575750958360019596971061053f575b505050811b015f556100dc565b01515f1960f88460031b161c191690555f8080610532565b9192602060018192868b01518155019401920161051d565b5f80527f290decd9548b62a8d60345a988386fc84ba6bc95484008f6362f93160ef3e563601f830160051c810191602084106105c7575b601f0160051c01905b8181106105bc57506100af565b5f81556001016105af565b90915081906105a6565b90607f169061009d565b5f80fd5b60405190606082016001600160401b038111838210176104ef57604052565b6040519190601f01601f191682016001600160401b038111838210176104ef57604052565b61062b6105df565b905f82525f60208301525f604083015256fe60806040526004361015610011575f80fd5b5f3560e01c806301ffc9a71461022f57806306fdde031461022a578063081812fc14610225578063095ea7b3146102205780630b2f5fe81461021b57806323b872dd146102165780632d42425e146101e95780633ae718f01461021157806342842e0e1461020c57806349045e16146102075780636352211e1461020257806365cb515a146101fd5780636d6fc1eb146101f857806370a08231146101f3578063715018a6146101ee57806375090b67146101e95780637a5bb4b6146101e4578063842392c2146101df5780638927b030146101da5780638da5cb5b146101d5578063931742d3146101d057806395d89b41146101cb57806396ca51d9146101c65780639ba9b29d146101c15780639bb9af06146101bc5780639e25c9d0146101b7578063a02ce370146101b2578063a22cb465146101ad578063a2b094dc146101a8578063b88d4fde146101a3578063c87b56dd1461019e578063e985e9c514610199578063ed58bad8146101945763f2fde38b1461018f575f80fd5b611929565b611886565b611828565b6113f6565b611396565b611298565b6111c5565b61119f565b611003565b610f79565b610f05565b610d4d565b610ca8565b610c82565b610c5c565b610c3a565b610bfd565b610af5565b61072b565b610a17565b6109c6565b6108d0565b6108b3565b610884565b610847565b61081e565b61077b565b610714565b610584565b610452565b6103e9565b610312565b610262565b7fffffffff0000000000000000000000000000000000000000000000000000000081160361025e57565b5f80fd5b3461025e57602036600319011261025e57602060043561028181610234565b63ffffffff60e01b166380ac58cd60e01b81149081156102bf575b81156102ae575b506040519015158152f35b6301ffc9a760e01b1490505f6102a3565b635b5e139f60e01b8114915061029c565b5f91031261025e57565b805180835260209291819084018484015e5f828201840152601f01601f1916010190565b90602061030f9281815201906102da565b90565b3461025e575f36600319011261025e576040515f5f5461033181610d7e565b80845290600181169081156103c55750600114610369575b6103658361035981850382610dec565b604051918291826102fe565b0390f35b5f8080527f290decd9548b62a8d60345a988386fc84ba6bc95484008f6362f93160ef3e563939250905b8082106103ab57509091508101602001610359610349565b919260018160209254838588010152019101909291610393565b60ff191660208086019190915291151560051b840190910191506103599050610349565b3461025e57602036600319011261025e576004356104068161256a565b505f52600460205260206001600160a01b0360405f205416604051908152f35b600435906001600160a01b038216820361025e57565b602435906001600160a01b038216820361025e57565b3461025e57604036600319011261025e5761046b610426565b602435906104788261256a565b33151580610543575b80610503575b6104f057826104ee936104d3926001600160a01b0380861691167f8c5be1e5ebec7d5bd14f71427d1e84f3dd0314c0f7b2291e5b200ac8c7c3b9255f80a45f52600460205260405f2090565b906001600160a01b03166001600160a01b0319825416179055565b005b63a9fbf51f60e01b5f523360045260245ffd5b5060ff61053b33610525846001600160a01b03165f52600560205260405f2090565b906001600160a01b03165f5260205260405f2090565b541615610487565b50336001600160a01b0382161415610481565b9181601f8401121561025e5782359167ffffffffffffffff831161025e576020838186019501011161025e57565b3461025e57604036600319011261025e5760043560243567ffffffffffffffff811161025e576105b8903690600401610556565b6001600160a01b03600b9392935416330361069557815f52600760205260ff600760405f2001541615610650577fc798079a21ef636f508d0dfcfc5eab8208c7e0d813633e32df2ce650e2fad56590610629600761061e855f52600760205260405f2090565b01805460ff19169055565b6001600160a01b0361063a8461256a565b169361064b604051928392836119ae565b0390a3005b60405162461bcd60e51b815260206004820152600f60248201527f416c7265616479207265766f6b656400000000000000000000000000000000006044820152606490fd5b60405162461bcd60e51b815260206004820152600f60248201527f4f6e6c7920436f6d6d697373696f6e00000000000000000000000000000000006044820152606490fd5b606090600319011261025e576004356001600160a01b038116810361025e57906024356001600160a01b038116810361025e579060443590565b3461025e576104ee610725366106da565b916119d5565b3461025e57604036600319011261025e57610744610426565b6001600160a01b0360243591165f52600860205260405f20905f52602052602060405f2054604051908152f35b8015150361025e57565b3461025e57604036600319011261025e57610794610426565b6001600160a01b03602435916107a983610771565b6107b161259d565b169081156107d9576104ee915f52600e60205260405f209060ff801983541691151516179055565b60405162461bcd60e51b815260206004820152601660248201527f496e76616c6964207369676e65722061646472657373000000000000000000006044820152606490fd5b3461025e576104ee61082f366106da565b906040519261083f602085610dec565b5f84526123cf565b3461025e57602036600319011261025e576001600160a01b03610868610426565b165f52600e602052602060ff60405f2054166040519015158152f35b3461025e57602036600319011261025e5760206108a260043561256a565b6001600160a01b0360405191168152f35b3461025e575f36600319011261025e576020600954604051908152f35b3461025e5760c036600319011261025e576108e9610426565b6024359060643560443560843560a43567ffffffffffffffff811161025e57610916903690600401610556565b9390926001600160a01b03600b5416331480156109b2575b801561099c575b15610957576103659661094796611d2e565b6040519081529081906020820190565b60405162461bcd60e51b815260206004820152601d60248201527f4e6f7420617574686f72697a656420746f206d696e74206469726563740000006044820152606490fd5b50335f52600d60205260ff60405f205416610935565b506001600160a01b0360065416331461092e565b3461025e57602036600319011261025e576001600160a01b036109e7610426565b168015610a04575f526003602052602060405f2054604051908152f35b6322718ad960e21b5f525f60045260245ffd5b3461025e575f36600319011261025e57610a2f61259d565b5f6001600160a01b036006546001600160a01b03198116600655167f8be0079c531659141344cd1fd0a4f28419497f9722a3daafe3b4186f6b6457e08280a3005b61030f906020815282516020820152602083015160408201526040830151606082015260608301516080820152608083015160a0820152610ac160a084015160c08301906001600160a01b03169052565b610120610100610ae060c08601518360e08601526101408501906102da565b60e08601511515848301529401511515910152565b3461025e57602036600319011261025e576004355f610100604051610b1981610dca565b8281528260208201528260408201528260608201528260808201528260a0820152606060c08201528260e082015201525f52600760205261036560405f20610bf1610be76007610b67611334565b938054855260018101546020860152600281015460408601526003810154606086015260048101546080860152610bbb610bab60058301546001600160a01b031690565b6001600160a01b031660a0870152565b610bc760068201610e0e565b60c08601520154610bde60ff8216151560e0860152565b60081c60ff1690565b1515610100830152565b60405191829182610a70565b3461025e57602036600319011261025e576001600160a01b03610c1e610426565b165f52600d602052602060ff60405f2054166040519015158152f35b3461025e575f36600319011261025e576020610c546126a8565b604051908152f35b3461025e575f36600319011261025e5760206001600160a01b0360065416604051908152f35b3461025e575f36600319011261025e5760206001600160a01b03600b5416604051908152f35b3461025e575f36600319011261025e576040515f600154610cc881610d7e565b80845290600181169081156103c55750600114610cef576103658361035981850382610dec565b91905060015f527fb10e2d527612073b26eecdfd717e6a320cf44b4afac2b0732d9fcbe2b7fa0cf6915f905b808210610d3357509091508101602001610359610349565b919260018160209254838588010152019101909291610d1b565b3461025e57604036600319011261025e576020610d74610d6b610426565b60243590611f62565b6040519015158152f35b90600182811c92168015610dac575b6020831014610d9857565b634e487b7160e01b5f52602260045260245ffd5b91607f1691610d8d565b634e487b7160e01b5f52604160045260245ffd5b610120810190811067ffffffffffffffff821117610de757604052565b610db6565b90601f8019910116810190811067ffffffffffffffff821117610de757604052565b9060405191825f825492610e2184610d7e565b8084529360018116908115610e8c5750600114610e48575b50610e4692500383610dec565b565b90505f9291925260205f20905f915b818310610e70575050906020610e46928201015f610e39565b6020919350806001915483858901015201910190918492610e57565b905060209250610e4694915060ff191682840152151560051b8201015f610e39565b9799989591936001600160a01b03936101009895610ef697938b5260208b015260408a0152606089015260808801521660a086015261012060c08601526101208501906102da565b94151560e08401521515910152565b3461025e57602036600319011261025e576004355f52600760205260405f2080549061036560018201549160028101549360038201549160048101546001600160a01b03600583015416906007610f5e60068501610e0e565b9301549460405198899860ff808960081c169816968a610eae565b3461025e57602036600319011261025e576001600160a01b03610f9a610426565b610fa261259d565b168015610fbe576001600160a01b0319600c541617600c555f80f35b60405162461bcd60e51b815260206004820152601760248201527f496e76616c696420666163746f727920616464726573730000000000000000006044820152606490fd5b3461025e57604036600319011261025e5761101c610426565b60243590611032600c546001600160a01b031690565b6001600160a01b038116611114575b507f76ac3f92dc1b8769724f06289350a2f4d7a4183df865e62742d34f4357b1a0716001600160a01b036110978461108a856001600160a01b03165f52600860205260405f2090565b905f5260205260405f2090565b54926110a48415156120bd565b6110d56110d06110cc60076110c1885f52600760205260405f2090565b015460081c60ff1690565b1590565b612109565b6110fc60076110ec865f52600760205260405f2090565b01805461ff001916610100179055565b6040519485521692602090a360405160018152602090f35b61112e906001600160a01b03165b6001600160a01b031690565b60405163c6b8565b60e01b815233600482015290602090829060249082905afa801561119a57611165915f9161116b575b5061204b565b5f611041565b61118d915060203d602011611193575b6111858183610dec565b81019061202b565b5f61115f565b503d61117b565b612040565b3461025e575f36600319011261025e5760206001600160a01b03600c5416604051908152f35b3461025e57604036600319011261025e576111de610426565b6024356111ea81610771565b3315611285576001600160a01b038216918215611272578161122b61123c92335f52600560205260405f20906001600160a01b03165f5260205260405f2090565b9060ff801983541691151516179055565b604051901515815233907f17307eab39ab6107e8899845ad3d59bd9653f200f220920489ca2b5937696c3190806020810161064b565b82630b61174360e31b5f5260045260245ffd5b63a9fbf51f60e01b5f525f60045260245ffd5b3461025e5761010036600319011261025e576112b2610426565b6044359060243560643567ffffffffffffffff811161025e576112d9903690600401610556565b90929060843560a43567ffffffffffffffff811161025e576112ff903690600401610556565b9160c4359360e4359767ffffffffffffffff891161025e576103659961132c6109479a3690600401610556565b9990986121ed565b60405190610e4661012083610dec565b67ffffffffffffffff8111610de757601f01601f191660200190565b92919261136c82611344565b9161137a6040519384610dec565b82948184528183011161025e578281602093845f960137010152565b3461025e57608036600319011261025e576113af610426565b6113b761043c565b906044356064359267ffffffffffffffff841161025e573660238501121561025e576113f06104ee943690602481600401359101611360565b926123cf565b3461025e57602036600319011261025e576004356114138161256a565b5061142e611429825f52600760205260405f2090565b611ed0565b611483611496606083019361149161144d61144883612aef565b61468f565b6040517f646174613a696d6167652f7376672b786d6c3b6261736536342c0000000000006020820152948591603a8301906124e2565b03601f198101855284610dec565b61416d565b916114ab6114a4855161416d565b945161416d565b6114c560e06114bd608085015161416d565b930151151590565b1561181a576114d261252f565b925b60405195869560208701611516906021907f7b226e616d65223a22566f74657220456c69676962696c6974792050617373208152602360f81b60208201520190565b61151f916124e2565b7f222c226465736372697074696f6e223a22536f756c626f756e6420766f74657281527f20656c69676962696c69747920706173732e200000000000000000000000000060208201526033017f50726f76657320766f74657220726567697374726174696f6e20666f7220656c81527f656374696f6e20494420000000000000000000000000000000000000000000006020820152602a016115c0916124e2565b7f2e204e6f6e2d7472616e7366657261626c6520616e6420626f756e6420746f2081527f766f7465722077616c6c65742e222c00000000000000000000000000000000006020820152602f017f22696d616765223a220000000000000000000000000000000000000000000000815260090161163b916124e2565b61088b60f21b81526002017f2261747472696275746573223a5b0000000000000000000000000000000000008152600e017f7b2274726169745f74797065223a22456c656374696f6e204944222c2276616c81527f7565223a2200000000000000000000000000000000000000000000000000000060208201526025016116c1916124e2565b62089f4b60ea1b81526003017f7b2274726169745f74797065223a224d696e746564204174222c2276616c7565815262111d1160e91b6020820152602301611708916124e2565b62089f4b60ea1b81526003017f7b2274726169745f74797065223a22537461747573222c2276616c7565223a228152602001611743916124e2565b62089f4b60ea1b81526003017f7b2274726169745f74797065223a22536f756c626f756e64222c2276616c756581527f223a2274727565227d00000000000000000000000000000000000000000000006020820152602901615d7d60f01b815260020103601f19810182526117b89082610dec565b6117c19061468f565b6040517f646174613a6170706c69636174696f6e2f6a736f6e3b6261736536342c0000006020820152908190603d82016117fa916124e2565b03601f198101825261180c9082610dec565b6040516103658192826102fe565b6118226124f4565b926114d4565b3461025e57604036600319011261025e57602060ff61187a611848610426565b6001600160a01b0361185861043c565b91165f526005845260405f20906001600160a01b03165f5260205260405f2090565b54166040519015158152f35b3461025e57604036600319011261025e5761189f610426565b6001600160a01b03602435916118b483610771565b6118bc61259d565b169081156118e4576104ee915f52600d60205260405f209060ff801983541691151516179055565b60405162461bcd60e51b815260206004820152601660248201527f496e76616c6964206d696e7465722061646472657373000000000000000000006044820152606490fd5b3461025e57602036600319011261025e576001600160a01b0361194a610426565b61195261259d565b16801561199b576001600160a01b03600654826001600160a01b0319821617600655167f8be0079c531659141344cd1fd0a4f28419497f9722a3daafe3b4186f6b6457e05f80a3005b631e4fbdf760e01b5f525f60045260245ffd5b90918060409360208452816020850152848401375f828201840152601f01601f1916010190565b91906001600160a01b03811615611ab957815f5260026020526001600160a01b0360405f205416151580611ab1575b611a46576001600160a01b03611a1d81928433916142fc565b9316921691808303611a2e57505050565b6364283d7b60e01b5f5260045260245260445260645ffd5b60405162461bcd60e51b815260206004820152602660248201527f56455061737320697320736f756c626f756e64202d207472616e73666572206260448201527f6c6f636b656400000000000000000000000000000000000000000000000000006064820152608490fd5b506001611a04565b633250574960e11b5f525f60045260245ffd5b60405190611adb602083610dec565b5f8252565b15611ae757565b606460405162461bcd60e51b815260206004820152602060248201527f416c7265616479206d696e74656420666f72207468697320656c656374696f6e6044820152fd5b634e487b7160e01b5f52601160045260245ffd5b5f198114611b4d5760010190565b611b2b565b601f8211611b5f57505050565b5f5260205f20906020601f840160051c83019310611b97575b601f0160051c01905b818110611b8c575050565b5f8155600101611b81565b9091508190611b78565b919091825167ffffffffffffffff8111610de757611bc981611bc38454610d7e565b84611b52565b6020601f8211600114611c08578190611bf99394955f92611bfd575b50508160011b915f199060031b1c19161790565b9055565b015190505f80611be5565b601f19821690611c1b845f5260205f2090565b915f5b818110611c5557509583600195969710611c3d575b505050811b019055565b01515f1960f88460031b161c191690555f8080611c33565b9192602060018192868b015181550194019201611c1e565b90611d186101006007610e46948451815560208501516001820155604085015160028201556060850151600382015560808501516004820155611cdc611cbd60a08701516001600160a01b031690565b60058301906001600160a01b03166001600160a01b0319825416179055565b611ced60c086015160068301611ba1565b0192611d11611cff60e0830151151590565b859060ff801983541691151516179055565b0151151590565b815461ff00191690151560081b61ff0016179055565b90947fed49e4bb714f78c9d13dac24a0919534b570f1deb3de0c3cc713dd7af0b42b959394611e716001600160a01b0394611e47611eca94611d8f611d888c61108a8a6001600160a01b03165f52600860205260405f2090565b5415611ae0565b600a549b8c9a611da6611da18d611b3f565b600a55565b611daf856125c4565b50611dcb611dc5600b546001600160a01b031690565b866125e3565b50611dd689866125e3565b50611de08161260a565b50611dfc611df6600b546001600160a01b031690565b82612623565b50611e078982612623565b50611e10611334565b94855260208501528560408501528b6060850152426080850152611e408860a08601906001600160a01b03169052565b3691611360565b60c0820152600160e08201525f610100820152611e6c885f52600760205260405f2090565b611c6d565b85611e918861108a866001600160a01b03165f52600860205260405f2090565b55611e9c8684612641565b611eaf611eaa600954611b3f565b600955565b60405193849316968360209093929193604081019481520152565b0390a390565b90610e46611f586007611ee1611334565b948054865260018101546020870152600281015460408701526003810154606087015260048101546080870152611f35611f2560058301546001600160a01b031690565b6001600160a01b031660a0880152565b611f4160068201610e0e565b60c08701520154610bde60ff8216151560e0870152565b1515610100840152565b611f818261108a836001600160a01b03165f52600860205260405f2090565b54908115612024576001600160a01b039081611f9c8461256a565b9116918291160361202457611fcf6111226005611fc1855f52600760205260405f2090565b01546001600160a01b031690565b0361201e57611ff66110cc6007611fee845f52600760205260405f2090565b015460ff1690565b61201e5761200e6003915f52600760205260405f2090565b01540361201a57600190565b5f90565b50505f90565b5050505f90565b9081602091031261025e575161030f81610771565b6040513d5f823e3d90fd5b1561205257565b60405162461bcd60e51b815260206004820152602860248201527f4f6e6c79206465706c6f79656420656c656374696f6e20636f6e74726163747360448201527f20616c6c6f7765640000000000000000000000000000000000000000000000006064820152608490fd5b156120c457565b60405162461bcd60e51b815260206004820152600d60248201527f4e6f207061737320666f756e64000000000000000000000000000000000000006044820152606490fd5b1561211057565b60405162461bcd60e51b815260206004820152601460248201527f416c7265616479207573656420746f20766f74650000000000000000000000006044820152606490fd5b1561215c57565b60405162461bcd60e51b815260206004820152601a60248201527f43616e206f6e6c79206d696e7420666f7220796f757273656c660000000000006044820152606490fd5b156121a857565b60405162461bcd60e51b815260206004820152601c60248201527f496e76616c696420636f6d6d697373696f6e207369676e6174757265000000006044820152606490fd5b94909693979599919892996001600160a01b03861699338b1461220f90612155565b8861222b886001600160a01b03165f52600860205260405f2090565b5f91825260205260409020541561224190611ae0565b61224e84868a8c8b6126d7565b612257906121a1565b600a549b8c9a6122668c611b3f565b600a55369061227492611360565b61227d916128ab565b94369061228992611360565b61229291612a18565b61229b846125c4565b50600b546001600160a01b03166122b290856125e3565b506122bd85856125e3565b506122c78161260a565b50600b546001600160a01b03166122de9082612623565b506122e98582612623565b506122f2611334565b938452602084015260408301859052606083018690524260808401526001600160a01b03841660a0840152369061232892611360565b60c0820152600160e082015261010081015f905261234e855f52600760205260405f2090565b9061235891611c6d565b838084612376846001600160a01b03165f52600860205260405f2090565b5f918252602052604090205561238b91612641565b60095461239790611b3f565b6009556040805192835260208301919091527fed49e4bb714f78c9d13dac24a0919534b570f1deb3de0c3cc713dd7af0b42b9591a390565b9092916123dd8185846119d5565b833b6123ea575b50505050565b60209161240c6040519485938493630a85bd0160e11b85523360048601612a92565b03815f6001600160a01b0387165af15f91816124b1575b5061245d5750612431612ac0565b805191908261245657633250574960e11b5f526001600160a01b03821660045260245ffd5b6020915001fd5b7fffffffff000000000000000000000000000000000000000000000000000000001663757a42ff60e11b0161249657505f8080806123e4565b633250574960e11b5f526001600160a01b031660045260245ffd5b6124d491925060203d6020116124db575b6124cc8183610dec565b810190612a7d565b905f612423565b503d6124c2565b805191908290602001825e015f815290565b60405190612503604083610dec565b600782527f5265766f6b6564000000000000000000000000000000000000000000000000006020830152565b6040519061253e604083610dec565b600682527f41637469766500000000000000000000000000000000000000000000000000006020830152565b805f5260026020526001600160a01b0360405f20541690811561258b575090565b637e27328960e01b5f5260045260245ffd5b6001600160a01b036006541633036125b157565b63118cdaa760e01b5f523360045260245ffd5b80156125d5575b61030f30826144aa565b506125de6147ae565b6125cb565b9081156125f5575b61030f90826144aa565b905061030f6126026147ae565b9190506125eb565b801561261a5761030f30826144aa565b506125de61482f565b9081156126345761030f90826144aa565b905061030f61260261482f565b906001600160a01b03821615611ab957805f5260026020526001600160a01b0360405f2054161515806126a0575b611a46575f612686916001600160a01b03936142fc565b1661268d57565b6339e3563760e11b5f525f60045260245ffd5b50600161266f565b466001036126b557600190565b4662aa36a7036126c55761271190565b617a6946146126d2575f90565b5f1990565b9293919061277d90604051612727816127198660208301958a8791605493916bffffffffffffffffffffffff199060601b168352601483015260348201520190565b03601f198101835282610dec565b51902060405161276981612719602082019485603c917f19457468657265756d205369676e6564204d6573736167653a0a3332000000008252601c8201520190565b519020612777368588611360565b90614525565b93612793611122600b546001600160a01b031690565b94856001600160a01b03821614908115612885575b5061287b5760405160609490941b6bffffffffffffffffffffffff1916602085019081525f6034860152605485019290925261283d9361277792906127f08160748101612719565b51902060405161283281612719602082019485603c917f19457468657265756d205369676e6564204d6573736167653a0a3332000000008252601c8201520190565b519020923691611360565b906001600160a01b03821614908115612854575090565b61030f9150612874906001600160a01b03165f52600e60205260405f2090565b5460ff1690565b5050505050600190565b6128a59150612874906001600160a01b03165f52600e60205260405f2090565b5f6127a8565b8151909190156129e0576008612916926020925f6128f66111226111227f9e7b61f58c47dc699ac88507c4f5bb9f121c03808c5676a8078fe583e4649701546001600160a01b031690565b926040519687958694859363045fc19560e11b855233906004860161461a565b03925af190811561119a575f916129b1575b506129606111226111227f9e7b61f58c47dc699ac88507c4f5bb9f121c03808c5676a8078fe583e4649700546001600160a01b031690565b803b1561025e57604051630f8e573b60e21b815260048101839052336024820152905f908290604490829084905af1801561119a5761299d575090565b806129ab5f61030f93610dec565b806102d0565b6129d3915060203d6020116129d9575b6129cb8183610dec565b8101906145ea565b5f612928565b503d6129c1565b508015612a0f576129f1338261456a565b156129f95790565b630276b5d960e01b5f526004523360245260445ffd5b5061030f6147ae565b815190919015612a63576002612916926020925f6128f66111226111227f9e7b61f58c47dc699ac88507c4f5bb9f121c03808c5676a8078fe583e4649701546001600160a01b031690565b508015612a74576129f1338261456a565b5061030f61482f565b9081602091031261025e575161030f81610234565b90926001600160a01b036080938161030f9796168452166020830152604082015281606082015201906102da565b3d15612aea573d90612ad182611344565b91612adf6040519384610dec565b82523d5f602084013e565b606090565b612af89061416d565b604051809160208201612b7b906059907f3c73766720786d6c6e733d22687474703a2f2f7777772e77332e6f72672f323081527f30302f737667222076696577426f783d2230203020353030203332302220776960208201527f6474683d223130302522206865696768743d2231303025223e0000000000000060408201520190565b7f3c646566733e000000000000000000000000000000000000000000000000000081526006017f3c6c696e6561724772616469656e742069643d2273696c76657247726164222081527f78313d223025222079313d223025222078323d2231303025222079323d2231306020820152631812911f60e11b60408201526044017f3c73746f70206f66667365743d223025222073746f702d636f6c6f723d22236681527f666666666622202f3e000000000000000000000000000000000000000000000060208201526029017f3c73746f70206f66667365743d22353025222073746f702d636f6c6f723d222381527f65306530653022202f3e000000000000000000000000000000000000000000006020820152602a017f3c73746f70206f66667365743d2231303025222073746f702d636f6c6f723d2281527f2362306230623022202f3e0000000000000000000000000000000000000000006020820152602b017f3c2f6c696e6561724772616469656e743e00000000000000000000000000000081526011017f3c6c696e6561724772616469656e742069643d226461726b477261642220783181527f3d223025222079313d223025222078323d2231303025222079323d2231303025602082015261111f60f11b60408201526042017f3c73746f70206f66667365743d223025222073746f702d636f6c6f723d22233181527f353135313822202f3e000000000000000000000000000000000000000000000060208201526029017f3c73746f70206f66667365743d2231303025222073746f702d636f6c6f723d2281527f2330613061306322202f3e0000000000000000000000000000000000000000006020820152602b017f3c2f6c696e6561724772616469656e743e00000000000000000000000000000081526011017f3c2f646566733e0000000000000000000000000000000000000000000000000081526007017f3c7265637420783d22302220793d2230222077696474683d223530302220686581527f696768743d22333230222072783d223234222066696c6c3d2275726c2823646160208201527f726b477261642922207374726f6b653d222333333333333622207374726f6b6560408201527f2d77696474683d223222202f3e000000000000000000000000000000000000006060820152606d017f3c7061746820643d224d20302032342051203020302032342030204c2034373681527f2030205120353030203020353030203234204c2035303020313430204c20343260208201527f3020313430204c2033393020313630204c2031313020313630204c203830203160408201527f3430204c203020313430205a222066696c6c3d2275726c282373696c7665724760608201527f7261642922202f3e00000000000000000000000000000000000000000000000060808201526088017f3c7265637420783d2233352220793d223330222077696474683d22383022206881527f65696768743d223830222072783d2238222066696c6c3d22233131313131312260208201526210179f60e91b60408201526043017f3c7265637420783d2234332220793d223338222077696474683d22323022206881527f65696768743d223230222066696c6c3d222366666666666622202f3e000000006020820152603c017f3c7265637420783d2234372220793d223432222077696474683d22313222206881527f65696768743d223132222066696c6c3d222331313131313122202f3e000000006020820152603c017f3c7265637420783d2238372220793d223338222077696474683d22323022206881527f65696768743d223230222066696c6c3d222366666666666622202f3e000000006020820152603c017f3c7265637420783d2239312220793d223432222077696474683d22313222206881527f65696768743d223132222066696c6c3d222331313131313122202f3e000000006020820152603c017f3c7265637420783d2234332220793d223832222077696474683d22323022206881527f65696768743d223230222066696c6c3d222366666666666622202f3e000000006020820152603c017f3c7265637420783d2234372220793d223836222077696474683d22313222206881527f65696768743d223132222066696c6c3d222331313131313122202f3e000000006020820152603c017f3c7265637420783d2237352220793d223630222077696474683d22313022206881527f65696768743d223130222066696c6c3d222366666666666622202f3e000000006020820152603c017f3c7265637420783d2238372220793d223732222077696474683d22313522206881527f65696768743d223135222066696c6c3d222366666666666622202f3e000000006020820152603c017f3c7265637420783d2237302220793d223835222077696474683d22313222206881527f65696768743d223132222066696c6c3d222366666666666622202f3e000000006020820152603c017f3c636972636c652063783d22323530222063793d2238302220723d223330222081527f66696c6c3d222331313131313122207374726f6b653d2223343434343434222060208201527f7374726f6b652d77696474683d223222202f3e0000000000000000000000000060408201526053017f3c7061746820643d224d2032343520393520432032343020383520323435203781527f302032353520363520432032363020373520323535203930203234352039352060208201527f5a222066696c6c3d226e6f6e6522207374726f6b653d2223666666666666222060408201527f7374726f6b652d77696474683d22312e3522202f3e000000000000000000000060608201526075017f3c7061746820643d224d20323435203935204c20323532203732222066696c6c81527f3d226e6f6e6522207374726f6b653d222366666666666622207374726f6b652d60208201526b3bb4b23a341e91189110179f60a11b6040820152604c017f3c636972636c652063783d22343130222063793d2238302220723d223238222081527f66696c6c3d226e6f6e6522207374726f6b653d2223373737373737222073747260208201527f6f6b652d77696474683d22312e3522207374726f6b652d64617368617272617960408201527f3d2234203222202f3e000000000000000000000000000000000000000000000060608201526069017f3c7465787420783d223431302220793d223833222066696c6c3d22233535353581527f35352220666f6e742d66616d696c793d2273797374656d2d75692220666f6e7460208201527f2d73697a653d22382220666f6e742d7765696768743d22626f6c64222074657860408201527f742d616e63686f723d226d6964646c6522206c65747465722d73706163696e6760608201527f3d2231223e524152453c2f746578743e0000000000000000000000000000000060808201526090017f3c7265637420783d2233352220793d22313830222077696474683d223835222081527f6865696768743d223234222072783d223132222066696c6c3d2223323232323260208201527f3522207374726f6b653d222334343434343822207374726f6b652d776964746860408201527f3d223122202f3e0000000000000000000000000000000000000000000000000060608201526067017f3c7465787420783d2237372e352220793d22313936222066696c6c3d2223666681527f666666662220666f6e742d66616d696c793d2273797374656d2d75692220666f60208201527f6e742d73697a653d2231302220666f6e742d7765696768743d22626f6c64222060408201527f746578742d616e63686f723d226d6964646c6522206c65747465722d7370616360608201527f696e673d2231223e5645504153533c2f746578743e000000000000000000000060808201526095017f3c7465787420783d2233352220793d22323335222066696c6c3d22236666666681527f66662220666f6e742d66616d696c793d2273797374656d2d75692220666f6e7460208201527f2d73697a653d2232382220666f6e742d7765696768743d2239303022206c657460408201527f7465722d73706163696e673d2231223e504e463c2f746578743e0000000000006060820152607a017f3c7465787420783d2233352220793d22323530222066696c6c3d22233838383881527f38622220666f6e742d66616d696c793d2273797374656d2d75692220666f6e7460208201527f2d73697a653d22382220666f6e742d7765696768743d22626f6c6422206c657460408201527f7465722d73706163696e673d22312e35223e50524956415445204e465420504160608201527f53533c2f746578743e000000000000000000000000000000000000000000000060808201526089017f3c7265637420783d2233352220793d22323635222077696474683d223930222081527f6865696768743d223335222072783d2236222066696c6c3d22236463646364636020820152631110179f60e11b60408201526044017f3c6c696e652078313d223435222079313d22323730222078323d22343522207981525f5160206148855f395f51905f5260208201526b3bb4b23a341e91191110179f60a11b6040820152604c017f3c6c696e652078313d223530222079313d22323730222078323d22353022207981525f5160206148855f395f51905f5260208201526b3bb4b23a341e91189110179f60a11b6040820152604c017f3c6c696e652078313d223535222079313d22323730222078323d22353522207981525f5160206148855f395f51905f5260208201526b3bb4b23a341e91199110179f60a11b6040820152604c017f3c6c696e652078313d223632222079313d22323730222078323d22363222207981525f5160206148855f395f51905f5260208201526b3bb4b23a341e91189110179f60a11b6040820152604c017f3c6c696e652078313d223638222079313d22323730222078323d22363822207981525f5160206148855f395f51905f5260208201526b3bb4b23a341e91191110179f60a11b6040820152604c017f3c6c696e652078313d223734222079313d22323730222078323d22373422207981525f5160206148855f395f51905f5260208201527f77696474683d223422202f3e00000000000000000000000000000000000000006040820152604c017f3c6c696e652078313d223832222079313d22323730222078323d22383222207981525f5160206148855f395f51905f5260208201526b3bb4b23a341e91189110179f60a11b6040820152604c017f3c6c696e652078313d223838222079313d22323730222078323d22383822207981525f5160206148855f395f51905f5260208201526b3bb4b23a341e91191110179f60a11b6040820152604c017f3c6c696e652078313d223935222079313d22323730222078323d22393522207981525f5160206148855f395f51905f5260208201526b3bb4b23a341e91199110179f60a11b6040820152604c017f3c6c696e652078313d22313032222079313d22323730222078323d223130322281527f2079323d2232383222207374726f6b653d222331313131313122207374726f6b60208201527f652d77696474683d223122202f3e0000000000000000000000000000000000006040820152604e017f3c6c696e652078313d22313038222079313d22323730222078323d223130382281527f2079323d2232383222207374726f6b653d222331313131313122207374726f6b60208201526d3296bbb4b23a341e91191110179f60911b6040820152604e017f3c6c696e652078313d22313135222079313d22323730222078323d223131352281527f2079323d2232383222207374726f6b653d222331313131313122207374726f6b60208201526d3296bbb4b23a341e91191110179f60911b6040820152604e017f3c7465787420783d2238302220793d22323935222066696c6c3d22233131313181527f31312220666f6e742d66616d696c793d226d6f6e6f73706163652220666f6e7460208201527f2d73697a653d2231302220666f6e742d7765696768743d22626f6c642220746560408201527f78742d616e63686f723d226d6964646c6522206c65747465722d73706163696e60608201527f673d2232223e30203020000000000000000000000000000000000000000000006080820152608a01613d2d916124e2565b661e17ba32bc3a1f60c91b81526007017f3c7465787420783d223436352220793d22313935222066696c6c3d222338383881527f3838622220666f6e742d66616d696c793d2273797374656d2d75692220666f6e60208201527f742d73697a653d22382220666f6e742d7765696768743d22626f6c642220746560408201527f78742d616e63686f723d22656e6422206c65747465722d73706163696e673d2260608201527f31223e564552494649454420425920464845564d3c2f746578743e00000000006080820152609b017f3c7465787420783d223436352220793d22323130222066696c6c3d222338383881527f3838622220666f6e742d66616d696c793d2273797374656d2d75692220666f6e60208201527f742d73697a653d22382220666f6e742d7765696768743d22626f6c642220746560408201527f78742d616e63686f723d22656e6422206c65747465722d73706163696e673d2260608201527f31223e5a45524f2d545255535420454e4352595054494f4e3c2f746578743e006080820152609f017f3c7465787420783d223436352220793d22323235222066696c6c3d222338383881527f3838622220666f6e742d66616d696c793d2273797374656d2d75692220666f6e60208201527f742d73697a653d22382220666f6e742d7765696768743d22626f6c642220746560408201527f78742d616e63686f723d22656e6422206c65747465722d73706163696e673d2260608201527f31223e424f554e4420544f2057414c4c45543c2f746578743e0000000000000060808201526099017f3c636972636c652063783d22333430222063793d223237352220723d2238222081527f66696c6c3d226e6f6e6522207374726f6b653d2223666666666666222073747260208201527f6f6b652d77696474683d22312e3522202f3e000000000000000000000000000060408201526052017f3c7061746820643d224d2033333720323735204c2033343320323735204d203381527f343020323732204c203334302032373822207374726f6b653d2223666666666660208201527f6622207374726f6b652d77696474683d223122202f3e0000000000000000000060408201526056017f3c7465787420783d223335352220793d22323738222066696c6c3d222366666681527f6666662220666f6e742d66616d696c793d2273797374656d2d75692220666f6e60208201527f742d73697a653d2231322220666f6e742d7765696768743d22626f6c6422206c60408201527f65747465722d73706163696e673d22302e35223e43697068657242616c6c6f746060820152661e17ba32bc3a1f60c91b60808201526087017f3c2f7376673e0000000000000000000000000000000000000000000000000000815260060103601f198101825261030f9082610dec565b9061414582611344565b6141526040519182610dec565b8281528092614163601f1991611344565b0190602036910137565b805f917a184f03e93ff9f4daa797ed6e38ed64bf6a1f0100000000000000008210156142b2575b806d04ee2d6d415b85acef8100000000600a921015614296575b662386f26fc10000811015614281575b6305f5e10081101561426f575b61271081101561425f575b6064811015614250575b1015614245575b61423060216141f86001850161413b565b938401015b5f1901917f3031323334353637383961626364656600000000000000000000000000000000600a82061a8353600a900490565b80156142405761423090916141fd565b505090565b6001909101906141e7565b600290606490049301926141e0565b60049061271090049301926141d6565b6008906305f5e10090049301926141cb565b601090662386f26fc1000090049301926141be565b6020906d04ee2d6d415b85acef810000000090049301926141ae565b50604091507a184f03e93ff9f4daa797ed6e38ed64bf6a1f0100000000000000008104614194565b6142ec905f52600460205260405f2090565b80546001600160a01b0319169055565b815f5260026020526001600160a01b0360405f205416926001600160a01b0381166143d7575b506001600160a01b038316806143a7575b6143596001600160a01b0383169283614380575b6104d3855f52600260205260405f2090565b7fddf252ad1be2c89b69c2b068fc378daa952ba7f163c4a11628f55a4df523b3ef5f80a490565b61439b816001600160a01b03165f52600360205260405f2090565b60018154019055614347565b6143b0836142da565b6143cb846001600160a01b03165f52600360205260405f2090565b80545f19019055614333565b6143f26001600160a01b038216801515908161443857501590565b1561432257826001600160a01b03851661441857637e27328960e01b5f5260045260245ffd5b63177e802f60e01b5f526001600160a01b0390911660045260245260445ffd5b6001600160a01b03871680821492508215614477575b50811561445a57501590565b9050845f5260046020526001600160a01b0360405f205416141590565b9091505f52600560205260ff6144a18460405f20906001600160a01b03165f5260205260405f2090565b5416905f61444e565b6001600160a01b037f9e7b61f58c47dc699ac88507c4f5bb9f121c03808c5676a8078fe583e4649700541691823b1561025e57604051635ca4b5b160e11b815260048101929092526001600160a01b03166024820152905f908290604490829084905af1801561119a5761451b5750565b5f610e4691610dec565b604182510361201e5760805f918360208095015160606040830151920151851a604051938452868401526040830152606082015282805260015afa1561119a575f5190565b7f9e7b61f58c47dc699ac88507c4f5bb9f121c03808c5676a8078fe583e4649700546040516382027b6d60e01b815260048101929092526001600160a01b039283166024830152909160209183916044918391165afa90811561119a575f916145d1575090565b61030f915060203d602011611193576111858183610dec565b9081602091031261025e575190565b9060548210156146065752565b634e487b7160e01b5f52602160045260245ffd5b949391610e46936001600160a01b036146499260609489521660208801526080604088015260808701906102da565b9401906145f9565b9060028201809211611b4d57565b908160021b917f3fffffffffffffffffffffffffffffffffffffffffffffffffffffffffffffff811603611b4d57565b908151156147a4576146b36146ae6146a78451614651565b6003900490565b61465f565b90604051917f4142434445464748494a4b4c4d4e4f505152535455565758595a616263646566601f527f6768696a6b6c6d6e6f707172737475767778797a303132333435363738392b2f603f52602083018480518101602081018051915f82525b808910614768575060209596975090600392915251068060011461475357600214614746575b50808452830101604052565b603d905f1901535f61473a565b50603d90815f1982015360011901535f61473a565b939760036004910198603f8a51818160121c165183538181600c1c16516001840153818160061c16516002840153165160038201530193614714565b905061030f611acc565b5f60206001600160a01b037f9e7b61f58c47dc699ac88507c4f5bb9f121c03808c5676a8078fe583e46497015416604460405180948193639cd07acb60e01b83528160048401526148036024840160086145f9565b5af190811561119a575f91614816575090565b61030f915060203d6020116129d9576129cb8183610dec565b5f60206001600160a01b037f9e7b61f58c47dc699ac88507c4f5bb9f121c03808c5676a8078fe583e46497015416604460405180948193639cd07acb60e01b83528160048401526148036024840160026145f956fe323d2232383222207374726f6b653d222331313131313122207374726f6b652da164736f6c634300081b000a",
  "linkReferences": {},
  "deployedLinkReferences": {}
}